:020000040000FA
:100000000C9463000C948B000C948B000C94630391
:100010000C9463030C9463030C948B000C948B007E
:100020000C948B000C948B000C948B000C948B0024
:100030000C948B000C948B000C948B000C948B0014
:100040000C9419030C948B000C94E7020C94C102DD
:100050000C948B000C948B000C948B000C948B00F4
:100060000C948B000C948B0000000008000201002F
:100070000003040700000000000000000000000072
:1000800023002600290000000000240027002A0089
:1000900000000000250028002B00040404040404D0
:1000A0000404020202020202030303030303010227
:1000B00004081020408001020408102001020408F6
:1000C00010202704870611241FBECFEFD8E0DEBF23
:1000D000CDBF11E0A0E0B1E0ECEBFDE002C0059087
:1000E0000D92A437B107D9F722E0A4E7B1E001C02F
:1000F0001D92AD37B207E1F710E0C2E6D0E004C0D0
:100100002197FE010E94CB06C136D107C9F70E9494
:1001100010050C94D1060C940000AF92BF92CF92C0
:10012000DF92EF92FF920F931F93CF93DF936C01B7
:100130007B018B01040F151FEB015E01AE18BF0898
:10014000C017D10759F06991D601ED91FC9101904A
:10015000F081E02DC6010995892B79F7C501DF9162
:10016000CF911F910F91FF90EF90DF90CF90BF90B4
:10017000AF900895FC01538D448D252F30E0842FDE
:1001800090E0821B930B541710F0CF9608950197BF
:100190000895FC01918D828D981761F0A28DAE0FAC
:1001A000BF2FB11D5D968C91928D9F5F9F73928F33
:1001B00090E008958FEF9FEF0895FC01918D828D5F
:1001C000981731F0828DE80FF11D858D90E008952C
:1001D0008FEF9FEF0895FC01918D228D892F90E084
:1001E000805C9F4F821B91098F739927089581EC42
:1001F00091E00E94EB0021E0892B09F420E0822F9E
:10020000089580E090E0892B29F00E94F700811189
:100210000C9400000895FC01A48DA80FB92FB11D06
:10022000A35ABF4F2C91848D90E001968F7399272C
:10023000848FA689B7892C93A089B1898C9183700A
:1002400080648C93938D848D981306C00288F38903
:10025000E02D80818F7D80830895EF92FF920F9330
:100260001F93CF93DF93EC0181E0888F9B8D8C8D62
:1002700098131AC0E889F989808185FF15C09FB756
:10028000F894EE89FF896083E889F9898081837019
:10029000806480839FBF81E090E0DF91CF911F91C8
:1002A0000F91FF90EF900895F62E0B8D10E00F5FE9
:1002B0001F4F0F731127E02E8C8D8E110CC00FB6BF
:1002C00007FCFACFE889F989808185FFF5CFCE0157
:1002D0000E940B01F1CFEB8DEC0FFD2FF11DE35AC6
:1002E000FF4FF0829FB7F8940B8FEA89FB898081DA
:1002F0008062CFCFCF93DF93EC01888D8823B9F054
:10030000AA89BB89E889F9898C9185FD03C0808120
:1003100086FD0DC00FB607FCF7CF8C9185FFF2CF9D
:10032000808185FFEDCFCE010E940B01E9CFDF91E7
:10033000CF9108953FB7F8948091B9019091BA0197
:10034000A091BB01B091BC0126B5A89B05C02F3F71
:1003500019F00196A11DB11D3FBFBA2FA92F982FEB
:100360008827BC01CD01620F711D811D911D42E0E6
:10037000660F771F881F991F4A95D1F708958F92AE
:100380009F92AF92BF92CF92DF92EF92FF924B017A
:100390005C010E949A016B017C010E949A016C1918
:1003A0007D098E099F09683E734081059105A8F378
:1003B00021E0821A9108A108B10888EEC80E83E0F6
:1003C000D81EE11CF11C81149104A104B10429F789
:1003D000FF90EF90DF90CF90BF90AF909F908F9065
:1003E00008952091BF013091C0012817390771F499
:1003F0009091BD018091BE01981741F0E091BD013F
:10040000F0E0EC58FE4F808190E008958FEF9FEF71
:1004100008950895EF92FF920F931F93CF93DF9368
:10042000DC015C96ED90FC905D97E114F10479F4A9
:1004300081E090E013969C938E93129790E080E079
:10044000DF91CF911F910F91FF90EF9008955196FA
:10045000ED91FC91529750968C915097982F9095D2
:100460000FB75E962C915E97122F127021FD60954A
:10047000F8942081112319F1282B2083E70121977B
:10048000F1F728E0462F50E0308160FF1AC0382B8A
:100490003083E7012197F1F7BA01759567952150EF
:1004A00089F7112381F08081892380830FBF5C96B7
:1004B0008D919C910197F1F781E090E0C1CF2923C4
:1004C000DCCF3923E5CF9081892BEFCF2091BF017D
:1004D0003091C0012817390771F48091BE01209135
:1004E000BD0190E0805C9F4F821B910960E470E049
:1004F0000E94A306089590E080E008952091BF0136
:100500003091C00128173907B9F49091BD0180914D
:10051000BE01981789F0E091BD01F0E0EC58FE4F64
:1005200080812091BD0130E02F5F3F4F2F73332733
:100530002093BD0190E008958FEF9FEF089590E024
:1005400080E0089542E050E064E271E08EE592E0E0
:100550000C948D00CF93DF93FC0101900020E9F70C
:100560003197AF01481B590BBC018EE592E00E9408
:100570008D00EC010E94A2028C0F9D1FDF91CF9194
:1005800008951F920F920FB60F9211242F933F934D
:100590004F935F936F937F938F939F93AF93BF938B
:1005A000EF93FF9381EC91E00E940B01FF91EF919B
:1005B000BF91AF919F918F917F916F915F914F917B
:1005C0003F912F910F900FBE0F901F9018951F9283
:1005D0000F920FB60F9211242F938F939F93EF9347
:1005E000FF93E091D101F091D2018081E091D70198
:1005F000F091D80182FD1BC090818091DA018F5F5C
:100600008F732091DB01821741F0E091DA01F0E075
:10061000EF53FE4F958F8093DA01FF91EF919F91F9
:100620008F912F910F900FBE0F901F901895808182
:10063000F4CF1F920F920FB60F9211242F933F9376
:100640008F939F93AF93BF938091B5019091B60123
:10065000A091B701B091B8013091B40123E0230F0C
:100660002D3758F50196A11DB11D2093B40180933B
:10067000B5019093B601A093B701B093B8018091F2
:10068000B9019091BA01A091BB01B091BC01019652
:10069000A11DB11D8093B9019093BA01A093BB0134
:1006A000B093BC01BF91AF919F918F913F912F91DA
:1006B0000F900FBE0F901F90189526E8230F0296FB
:1006C000A11DB11DD2CF1F920F920FB60F92112410
:1006D0002F933F934F935F936F937F938F939F934A
:1006E000AF93BF93EF93FF93E091BF01F091C001EF
:1006F000309749F0A685B7858585968D91FF14C002
:100700009C918923A1F4FF91EF91BF91AF919F91AB
:100710008F917F916F915F914F913F912F910F90AA
:100720000FBE0F901F9018959C91892361F7A389A4
:10073000B4899C918589809589238C938689978932
:100740000197F1F7608D718DA685B785558538E0E5
:1007500020E0CB010197F1F7822F90E095958795E6
:10076000282F4C91452309F02068315091F7868D50
:1007700081FD20958091BE0190E001968F739927AD
:100780003091BD01381799F0A091BE01B0E0AC588E
:10079000BE4F2C938093BE01828D938D0197F1F70C
:1007A000A389B4898C919589892B8C93ACCF868D44
:1007B0008160868FF1CF90E0FC01E859FF4F2491D2
:1007C000FC01E255FF4F3491FC01E656FF4FE491E6
:1007D000EE23C9F0222339F0233001F1A8F42130AF
:1007E00019F1223029F1F0E0EE0FFF1FE057FF4F23
:1007F000A591B4918FB7F894EC91611126C0309512
:100800003E233C938FBF08952730A9F02830C9F0CC
:10081000243049F7809180008F7D03C08091800053
:100820008F7780938000DFCF84B58F7784BDDBCF57
:1008300084B58F7DFBCF8091B0008F778093B0001F
:10084000D2CF8091B0008F7DF9CF3E2BDACF0F93BE
:100850001F93CF93DF931092C4011092C30188EECF
:1008600093E0A0E0B0E08093C5019093C601A0930F
:10087000C701B093C80124E031E03093C201209356
:10088000C10125EC30E03093CE012093CD0124EC62
:1008900030E03093D0012093CF0120EC30E0309352
:1008A000D2012093D10121EC30E03093D401209388
:1008B000D30122EC30E03093D6012093D50126EC11
:1008C00030E03093D8012093D7011092DA011092D2
:1008D000DB011092DC011092DD0110926102109296
:1008E00060028093620290936302A0936402B093CB
:1008F000650286E191E090935F0280935E02109220
:100900007502109274021092770210927602109281
:1009100079021092780210927B0210927A02609112
:100920007C026E7F6D7F60937C026695617081E0D2
:1009300068278AE00E94DB0348EB50E0FA016491EB
:1009400084EA90E0FC012491222399F030E0220F08
:10095000331FF901EA57FF4FA591B491F901E05710
:10096000FF4F259134912FB7F8943C91632B6C93F2
:100970002FBFFA01449140936E02FC018491E82F4D
:10098000F0E0EE0FFF1FE057FF4F85919491909399
:10099000700280936F0207EB10E0F8012491C3EA24
:1009A000D0E0FE0184918823C9F090E0880F991F60
:1009B000FC01EA57FF4FA591B491FC01E057FF4FAE
:1009C000459154913FB7F8949C91822F809598233C
:1009D0009C93FA019081892380833FBF80917C02A0
:1009E00081FD04C061E089E00E94DB0389E080931F
:1009F0006A02F801049100936B02FE01C491EC2F8E
:100A0000F0E0EE0FFF1FE458FF4F85919491909313
:100A10006D0280936C02DF91CF911F910F91089529
:100A2000789484B5826084BD84B5816084BD85B5C9
:100A3000826085BD85B5816085BD80916E008160D5
:100A400080936E001092810080918100826080937B
:100A5000810080918100816080938100809180007D
:100A60008160809380008091B10084608093B100A8
:100A70008091B00081608093B00080917A008460A2
:100A800080937A0080917A00826080937A008091CE
:100A90007A00816080937A0080917A0080688093E8
:100AA0007A001092C100109279021092780210928E
:100AB00077021092760210927502109274028DE9FC
:100AC00091E090937B0280937A0290916A02963132
:100AD00008F047C02DEB30E030937502209374028C
:100AE0002BE931E030937702209376022CE231E05B
:100AF00030937902209378022091680084E0983046
:100B000048F031E09E3008F430E081E001C0880F09
:100B10003A95EAF7822B809368002DE630E0983012
:100B200050F02BE630E09E3030F02CE630E096318D
:100B300010F030E020E03093720220937102292FF0
:100B400030E0983008F0D1C081E001C0880F9A955C
:100B5000EAF78093730280917A0290917B02019769
:100B6000F1F78091780290917902892B49F1E09117
:100B7000BF01F091C00182E0EE35F80709F130972E
:100B800039F0A389B4899C918589809589238C93B8
:100B900080917C028E7F80937C021092BE01109225
:100BA000BD018EE592E09093C0018093BF01E0917A
:100BB0007102F0917202808190917302892B80837F
:100BC000E091D101F091D20182E08083E091CD01EA
:100BD000F091CE011082E091CF01F091D0018FEC25
:100BE00080831092D901E091D501F091D60186E081
:100BF0008083E091D301F091D40180818061808372
:100C0000E091D301F091D401808188608083E091EC
:100C1000D301F091D401808180688083E091D30179
:100C2000F091D40180818F7D808364E670E080E064
:100C300090E00E94BF01C0E0D0E081EC91E00E9412
:100C4000EB0018161906B4F581EC91E00E94C9007A
:100C50008237910509F456C08337910559F587E22B
:100C600091E00E94AA0268EE73E080E090E00E94AA
:100C7000BF0181E391E00E94AA0268EE73E080E088
:100C800090E00E94BF018BE491E00E94AA0264E61A
:100C900070E080E090E00E94BF016AE18EE592E0A2
:100CA0000E940A020E94A20268EE73E080E090E0D7
:100CB0000E94BF018EE592E00E9466021816190696
:100CC0004CF48EE592E00E947E02682F81EC91E068
:100CD0000E942D01209709F4B0CF0E94F7008823CD
:100CE00009F4ABCF0E940000A8CF9E3040F42850FA
:100CF000310981E001C0880F2A95EAF72ACF2E50EA
:100D00003109F7CF82E691E00E94AA02CDCF86E1B9
:100D100091E090935F0280935E028091BF01909179
:100D2000C0018E55924071F4E0917102F09172020F
:100D30009081809173028095892380831092C001F5
:100D40001092BF01089597FB072E16F4009407D068
:100D500077FD09D00E94B70607FC05D03EF49095B8
:100D600081959F4F0895709561957F4F0895AA1BB7
:100D7000BB1B51E107C0AA1FBB1FA617B70710F086
:100D8000A61BB70B881F991F5A95A9F780959095B8
:100D9000BC01CD010895EE0FFF1F0590F491E02DE9
:100DA000099410E0C2E6D0E004C0FE010E94CB0628
:100DB0002196C336D107C9F7F894FFCF0000000091
:100DC0002D018D00BA007A01EB00C900DD000000A2
:100DD00000000A028D009F02090266027E02F101F4
:100DE0000D0A0041542B434D47463D310041542BE1
:100DF000434D47533D222B3937373938303332385A
:100E000038373930220D004920616D20534D532C65
:100E10002053756273637269626521212100415418
:100E20002B434E4D493D322C322C302C302C30008F
:107E0000112484B714BE81FFF0D085E080938100F7
:107E100082E08093C00088E18093C10086E0809377
:107E2000C20080E18093C4008EE0C9D0259A86E02C
:107E300020E33CEF91E0309385002093840096BBD3
:107E4000B09BFECF1D9AA8958150A9F7CC24DD24C4
:107E500088248394B5E0AB2EA1E19A2EF3E0BF2EE7
:107E6000A2D0813461F49FD0082FAFD0023811F036
:107E7000013811F484E001C083E08DD089C08234E0
:107E800011F484E103C0853419F485E0A6D080C0E4
:107E9000853579F488D0E82EFF2485D0082F10E0AE
:107EA000102F00270E291F29000F111F8ED06801E7
:107EB0006FC0863521F484E090D080E0DECF843638
:107EC00009F040C070D06FD0082F6DD080E0C81688
:107ED00080E7D80618F4F601B7BEE895C0E0D1E017
:107EE00062D089930C17E1F7F0E0CF16F0E7DF06D8
:107EF00018F0F601B7BEE89568D007B600FCFDCFD4
:107F0000A601A0E0B1E02C9130E011968C91119780
:107F100090E0982F8827822B932B1296FA010C0160
:107F200087BEE89511244E5F5F4FF1E0A038BF0790
:107F300051F7F601A7BEE89507B600FCFDCF97BE46
:107F4000E89526C08437B1F42ED02DD0F82E2BD052
:107F50003CD0F601EF2C8F010F5F1F4F84911BD097
:107F6000EA94F801C1F70894C11CD11CFA94CF0C13
:107F7000D11C0EC0853739F428D08EE10CD085E9AC
:107F80000AD08FE07ACF813511F488E018D01DD067
:107F900080E101D065CF982F8091C00085FFFCCF94
:107FA0009093C60008958091C00087FFFCCF809118
:107FB000C00084FD01C0A8958091C6000895E0E648
:107FC000F0E098E1908380830895EDDF803219F02E
:107FD00088E0F5DFFFCF84E1DECF1F93182FE3DFCA
:107FE0001150E9F7F2DF1F91089580E0E8DFEE27F6
:047FF000FF270994CA
:027FFE00040479
:00000001FF
