:020000040000FA
:100000000C945D000C9485000C9485000C94A71052
:100010000C94A7100C94A7100C9485000C948500E8
:100020000C9485000C9485000C9485000C94D011E0
:100030000C9485000C9485000C9485000C9485002C
:100040000C945D100C9485000C942B100C940510EE
:100050000C9485000C9485000C9485000C9485000C
:100060000C94B1100C9485000000000024002700BF
:100070002A0000000000250028002B0004040404CE
:100080000404040402020202020203030303030342
:10009000010204081020408001020408102001021F
:1000A00004081020000000080002010000030407FB
:1000B00000000000000000008C1211241FBECFEFD2
:1000C000D8E0DEBFCDBF12E0A0E0B1E0E8E3F2E3AC
:1000D00002C005900D92A430B107D9F725E0A4E045
:1000E000B2E001C01D92AD32B207E1F710E0CDE5FC
:1000F000D0E004C02197FE010E94E017CC35D10763
:10010000C9F70E94A0130C941A190C940000862FB2
:10011000E091E902F091EA02309711F0BA010994F6
:100120000895862FE091E702F091E802309711F0F0
:10013000BA0109940895862FE091E502F091E60254
:10014000309711F0BA0109940895862FE091E302E7
:10015000F091E402309711F0BA0109940895862FC6
:10016000E091E102F091E202309711F0BA010994B6
:100170000895862FE091DF02F091E002309711F0B0
:10018000BA01099408950895862F642FE091EB0237
:10019000F091EC02309711F0A90109940895E091D3
:1001A000ED02F091EE02309709F009940895CF9393
:1001B000DF93FC01A081B181109701F1EC01ED9179
:1001C000FC9111970190F081E02D69EFCD01099527
:1001D00088819981DC01ED91FC910190F081E02D05
:1001E00062E0099588819981DC01ED91FC91019093
:1001F000F081E02D65E0DF91CF910994DF91CF91FF
:100200000895A0919204B0919304ED91FC911197FF
:100210000190F081E02D682FCD0109941F93CF93B9
:10022000DF93182FEB018091590490915A046817BD
:10023000790760F48091570490915804C80FD91F32
:10024000188380E0DF91CF911F910895E09186049B
:10025000F0918704309711F481E0F4CF81E080932E
:100260005604809172049091730409958091590409
:1002700090915A04C817D90778F7DCCFCF93DF9352
:10028000EC01FB0130E020E0C901880F991F8C17B9
:100290009D0778F44081DB014D93BD011197918159
:1002A000979599279795942B9C932F5F3F4F329664
:1002B000EBCFC901DF91CF910895009721F0805CC9
:1002C0009F4F0C94D7000895AF92BF92CF92DF92C8
:1002D000EF92FF920F931F93CF93DF936C017B01FB
:1002E0008B01040F151FEB015E01AE18BF08C0178C
:1002F000D10759F06991D601ED91FC910190F081FF
:10030000E02DC6010995892B79F7C501DF91CF91C1
:100310001F910F91FF90EF90DF90CF90BF90AF9023
:100320000895FC01538D448D252F30E0842F90E0FB
:10033000821B930B541710F0CF96089501970895E0
:10034000FC01918D828D981761F0A28DAE0FBF2FA9
:10035000B11D5D968C91928D9F5F9F73928F90E0FF
:1003600008958FEF9FEF0895FC01918D828D98176E
:1003700031F0828DE80FF11D858D90E008958FEFAB
:100380009FEF0895FC01918D228D892F90E0805C74
:100390009F4F821B91098F739927089587E793E0F8
:1003A0000E94C20121E0892B09F420E0822F0895E8
:1003B00080E090E0892B29F00E94CE0181110C94FD
:1003C00000000895FC01A48DA80FB92FB11DA35AF8
:1003D000BF4F2C91848D90E001968F739927848F65
:1003E000A689B7892C93A089B1898C918370806488
:1003F0008C93938D848D981306C00288F389E02D29
:1004000080818F7D80830895EF92FF920F931F93D9
:10041000CF93DF93EC0181E0888F9B8D8C8D9813B7
:100420001AC0E889F989808185FF15C09FB7F894C3
:10043000EE89FF896083E889F9898081837080640F
:1004400080839FBF81E090E0DF91CF911F910F915A
:10045000FF90EF900895F62E0B8D10E00F5F1F4F69
:100460000F731127E02E8C8D8E110CC00FB607FC78
:10047000FACFE889F989808185FFF5CFCE010E9406
:10048000E201F1CFEB8DEC0FFD2FF11DE35AFF4F91
:10049000F0829FB7F8940B8FEA89FB898081806294
:1004A000CFCFCF93DF93EC01888D8823B9F0AA8951
:1004B000BB89E889F9898C9185FD03C0808186FD1F
:1004C0000DC00FB607FCF7CF8C9185FFF2CF80816E
:1004D00085FFEDCFCE010E94E201E9CFDF91CF9100
:1004E000089590E0FC01EC55FF4F2491FC01E0578A
:1004F000FF4F3491FC01E458FF4FE491EE23C9F023
:10050000222339F0233001F1A8F4213019F12230EF
:1005100029F1F0E0EE0FFF1FEE58FF4FA591B491C7
:100520008FB7F894EC91611126C030953E233C932F
:100530008FBF08952730A9F02830C9F0243049F73B
:10054000809180008F7D03C0809180008F778093A1
:100550008000DFCF84B58F7784BDDBCF84B58F7DFE
:10056000FBCF8091B0008F778093B000D2CF809185
:10057000B0008F7DF9CF3E2BDACFCF93DF9390E0A1
:10058000FC01E057FF4F249184589F4FFC01849158
:100590008823C9F090E0880F991FFC01E859FF4FAC
:1005A000A591B491FC01EE58FF4FC591D491611112
:1005B0000DC09FB7F8948C91209582238C938881ED
:1005C000282328839FBFDF91CF910895623051F493
:1005D0009FB7F8943C91822F809583238C93E88178
:1005E0002E2BEFCF8FB7F894EC912E2B2C938FBF3F
:1005F000EACF8E3008F08E508770806480937C0044
:1006000080917A00806480937A0080917A0086FDE0
:10061000FCCF809178009091790008953FB7F894CD
:100620008091DB029091DC02A091DD02B091DE02AC
:1006300026B5A89B05C02F3F19F00196A11DB11D3D
:100640003FBFBA2FA92F982F8827BC01CD01620F79
:10065000711D811D911D42E0660F771F881F991F34
:100660004A95D1F708958F929F92AF92BF92CF9201
:10067000DF92EF92FF926B017C010E940E034B010F
:100680005C01C114D104E104F104B9F00E940E032D
:10069000681979098A099B09683E734081059105AB
:1006A00080F321E0C21AD108E108F10888EE880E33
:1006B00083E0981EA11CB11CE4CFFF90EF90DF9067
:1006C000CF90BF90AF909F908F9008955F926F9260
:1006D0007F928F929F92AF92BF92CF92DF92EF92D2
:1006E000FF920F931F93CF93DF935C016901DA01AF
:1006F0005C90232B19F4CC24CA94DC2C8A013A0197
:10070000660E771ED0E0C0E0F12CE12C87E0882E49
:10071000912CF50180819181D8016C910C2E01C042
:10072000660F0A94EAF765296F77DC01ED91FC9179
:100730000190F081E02D0995BFEFEB1AFB0AF8015B
:10074000608170E0C4018C1B9D0B02C0759567959C
:100750008A95E2F7562E2196C730D10558F1CE146E
:10076000DF0441F1D5018D919C91652D6F77DC01FE
:10077000ED91FC910190F081E02D0995BFEFEB1A0E
:10078000FB0A551C5524551C2797E6CFEC14FD0495
:1007900008F4BFCFDF91CF911F910F91FF90EF90A1
:1007A000DF90CF90BF90AF909F908F907F906F9091
:1007B0005F9008950F5F1F4F6016710639F72097FD
:1007C00049F3EC14FD0430F7F5018081918161E07B
:1007D00070E001C0660FCA95EAF761506521DC013F
:1007E000ED91FC910190F081E02DDF91CF911F916F
:1007F0000F91FF90EF90DF90CF90BF90AF909F90C0
:100800008F907F906F905F9009941F93CF93DF93A9
:1008100000D0CDB7DEB7182F7A8369838091540456
:10082000909155040097C9F0DC01ED91FC91019085
:10083000F081E02D1031B8F461157044A0F4612FFF
:10084000606E099522E030E0AE014F5F5F4F62E0DD
:1008500070E084E594E00E9466030F900F90DF91B2
:10086000CF911F91089560EF099580915404909164
:100870005504DC01ED91FC910190F081E02D6FE6D3
:1008800009958091540490915504DC01ED91FC91FF
:100890000190F081E02D612F099522E030E0AE015A
:1008A0004F5F5F4F62E070E084E594E00E94660372
:1008B0008091540490915504DC01ED91FC910190DC
:1008C000F081E02D67EF0995C8CFEF92FF920F936B
:1008D0001F93CF93DF93C82F8091540490915504B8
:1008E0000097C9F17A018B01DC01ED91FC91019037
:1008F000F081E02D60EF09958091540490915504AA
:10090000DC01ED91FC910190F081E02D6C2F0995B7
:10091000E7010E0D1F1DC017D10759F030E020E090
:10092000AE0161E070E084E594E00E9466032196E8
:10093000F2CF8091540490915504DC01ED91FC912B
:100940000190F081E02D67EFDF91CF911F910F9122
:10095000FF90EF900994DF91CF911F910F91FF903D
:10096000EF900895CF92DF92EF92FF920F931F9333
:10097000CF93DF93FC01E058FF4FE080EE2009F4B5
:100980005CC0EC01C05CDF4FA881B981109709F40D
:1009900054C0FC01EF57FF4FC080D180F601118198
:1009A0000081ED91FC9111970190F081E02D60EFB5
:1009B000CD01099588819981DC01ED91FC9101902F
:1009C000F081E02D69E7099588819981DC01ED913D
:1009D000FC910190F081E02D602F0995888199812B
:1009E000DC01ED91FC910190F081E02D612F0995E2
:1009F000F12C01E010E00F5F1F4FE016F10659F0F7
:100A000030E020E0A601400F511F61E070E0CE0110
:100A10000E946603F0CF88819981DC01ED91FC9101
:100A20000190F081E02D67EFDF91CF911F910F9141
:100A3000FF90EF90DF90CF900994DF91CF911F91BD
:100A40000F91FF90EF90DF90CF900895009711F0F5
:100A50000C94B20408952091B302260F3327331F5C
:100A600021323105ECF420914D03FC0190E080E04F
:100A7000243069F082E00895A091B3022191AC0185
:100A80004F565D4FA40FB52FB11D2C9301968617BD
:100A900098F38091B302680F6093B30280E00895E9
:100AA00081E0089510924D0381E080934C031092F1
:100AB000270361E082E10E94710261E083E10E940C
:100AC0007102E9EBF0E080818E7F808380818D7FF1
:100AD000808388E48093B80085E48093BC00089507
:100AE000CF93DF9391E0909390028823B9F0C09167
:100AF000B800D091BA008091BC008A7B8093BC0082
:100B000060E082E10E94710260E083E10E94710274
:100B10000E945205D093BA00C093B800DF91CF91E4
:100B200008958F929F92AF92BF92CF92DF92EF92F1
:100B3000FF920F931F93CF93DF93D0917603D1321F
:100B400008F0D7C0182FC09175030E940E036B01E7
:100B50007C0180914D0381116BC082E080934D0335
:100B600010934C038FEF80934B0310924A03D09362
:100B70004903A5E5B3E0E9E2F3E080E0D81391C0D2
:100B80001092280380912803CC0FC82BC093280310
:100B900080912703813009F088C0109227030E94BA
:100BA0000E036B017C01809128038093BB00809130
:100BB0004F0390915003A0915103B0915203892BA0
:100BC0008A2B8B2BA1F00E940E0300914F031091F2
:100BD000500320915103309152036C197D098E0905
:100BE0009F09061717072807390708F442C08091A4
:100BF000BC0083FDD8CF85EC8093BC000E940E031F
:100C00006B017C0180914D03823009F450C08091CA
:100C10004B038F3F09F46FC080914B03803209F47E
:100C20006CC080914B03803309F469C084E026C016
:100C300080914F0390915003A0915103B0915203C2
:100C4000892B8A2B8B2B09F484CF0E940E03809072
:100C50004F0390905003A0905103B09052036C1931
:100C60007D098E099F0986169706A806B90608F021
:100C700070CF80914E030E94700585E0109254035E
:100C80001092760310925303DF91CF911F910F9131
:100C9000FF90EF90DF90CF90BF90AF909F908F909C
:100CA00008959D9191938F5F69CF85EEA5CF809137
:100CB0004F0390915003A0915103B0915203892B9F
:100CC0008A2B8B2B09F49ECF0E940E0300914F03B9
:100CD0001091500320915103309152036C197D09FA
:100CE0008E099F09061717072807390708F08ACFCA
:100CF000C0CF81E0C3CF80E0C1CF82E0BFCF83E02F
:100D0000BDCF089508950895E0918F0280918E02DD
:100D1000E81730F4F0E0E259FD4F808190E008954B
:100D20008FEF9FEF089590918F0280918E022FEFA9
:100D30003FEF981748F4E92FF0E0E259FD4F20818A
:100D400030E09F5F90938F02C901089580918E02D9
:100D500090918F02891B990B0895CF92DF92EF92A9
:100D6000FF920F931F93CF93DF937C01CB018A01F6
:100D700020915303222389F0EB016B01C40ED51E91
:100D8000CC15DD0569F06991D701ED91FC910190D9
:100D9000F081E02DC7010995F3CF642F0E942B0548
:100DA000C801DF91CF911F910F91FF90EF90DF90DD
:100DB000CF900895CF93DF931F92CDB7DEB76983AD
:100DC000209153032223F9F020917603203258F02A
:100DD00021E030E0FC013383228390E080E00F903B
:100DE000DF91CF91089580915403E82FF0E0EB5A02
:100DF000FC4F998190838F5F809354038093760397
:100E000081E090E0ECCF61E0CE0101960E942B05DD
:100E1000F7CF90E080E00895DF92EF92FF920F937A
:100E20001F93CF93DF93EC01D62E7A01890188813D
:100E30008C3008F067C061E08D2D0E94BD02888172
:100E4000282F30E0F901EE0FFF1FE20FF31FE052F1
:100E5000FB4F9D2D9F736081607C692B608320E236
:100E600032E02E193F0937FF02C02D5F3F4F359505
:100E7000279535952795298320E639E0201B310BEE
:100E800037FF02C02D5F3F4F359527953595279544
:100E90002A832CE0622F0E94D417829FB001112474
:100EA00030E020E0AB01420F531FFA01EE0FFF1FAD
:100EB000E40FF51FE052FB4F908196FD16C02F5FA7
:100EC0003F4F2C30310571F781110FC01092800017
:100ED00082E0809381001092850010928400B19A84
:100EE00080916F00826080936F00E8818E2F90E088
:100EF000FC01EE0FFF1FE80FF91FE052FB4F80814E
:100F0000806480838881DF91CF911F910F91FF9042
:100F1000EF90DF900895CF938630B0F421E030E079
:100F2000082E02C0220F331F0A94E2F740912103DA
:100F300050912203672B51F42095309524233523BB
:100F40003093220320932103CF910895242B352B36
:100F5000309322032093210390916C029111F4CFDE
:100F6000C82F0E94F902BC018C2FCF910C9405046C
:100F70005F926F927F928F929F92AF92BF92CF9229
:100F8000DF92EF92FF920F931F93CF93DF93833003
:100F900008F061C0D1E0D80FDD0FDD0FDD0F5D2E51
:100FA000D53110F044E1542EC62F082FD8508D2E85
:100FB000912CC401880F991F9C012C5E3B4F590155
:100FC000D12CC12C10E077247394D515C8F58EEF81
:100FD0008D0F8231F8F4F601E80DF91DE956FB4F4B
:100FE00090819230B8F48C2F87216624639481110C
:100FF00001C0612C7601EE0CFF1C913089F4172999
:1010000037E9E30EF11CF501EE0DFF1D862D90E092
:1010100091838083770CDF5F8FEFC81AD80AD5CF12
:10102000882371F3F701E956FF4FEA0DFB1D80811C
:101030009181019729F362E08D2F0E94BD02E0CFDC
:10104000011119C0F8948BB16C2F68276C7F612354
:1010500068276BB97894DF91CF911F910F91FF9022
:10106000EF90DF90CF90BF90AF909F908F907F9048
:101070006F905F9008950130D1F4C123F89495B139
:10108000812F8F73809589239C2F9F73892B85B91E
:1010900088B1612F62956695669563706095682347
:1010A000C295C695C695C370C62BC8B9D3CF1F705D
:1010B000F89498B1812F880F880F80958923C123D8
:1010C000CC0FCC0FC82BF1CF8F929F92AF92BF92D3
:1010D000CF92DF92EF92FF920F931F93CF93DF9304
:1010E000EB01843108F098C0082F10E0F801E956B0
:1010F000FB4F9081933009F49CC0943009F08CC070
:101100008250823108F081C0F801EC5AFD4FC08056
:10111000D12C7601EE0CFF1C4B01603282E0780787
:101120000CF03EC0F701EC0DFD1DEB5FFA4F818125
:10113000A8E88A2E912C881A910887FD9394880C30
:10114000991C880C991C092C000CAA08BB088281E8
:1011500028E532E0281B310987FD3395220F331F24
:10116000220F331F032E000C440B550B281939098D
:101170004A095B09DB01653B710514F0A4EBB0E0A3
:10118000B7FF02C0B0E0A0E00E949B1724EB30E064
:1011900040E050E00E947117820E931EA41EB51EFF
:1011A000F701EC0DFD1DEB5FFA4F20812C3068F547
:1011B000318188E890E0831B910937FD9395880F72
:1011C000991F880F991F881699067CF0328188E54F
:1011D00092E0831B910937FD9395880F991F880F23
:1011E000991F881699060CF4C4010297880F991F5D
:1011F0004FB7F89430E0F901EE0FFF1FE20FF31F35
:10120000E052FB4F928381834FBF000F111FF80103
:10121000E555FB4FD183C083DF91CF911F910F9193
:10122000FF90EF90DF90CF90BF90AF909F908F9006
:1012300008957B01D82F833041F08BEF800F8230EF
:1012400020F087EF800F833058F461E08D2F0E94EB
:10125000BD02E114F10461F460E08D2F0E9471027F
:10126000000F111FF801E555FB4FF182E082D4CF4A
:101270008FEFE816F10411F461E0EFCFF801EC55BF
:10128000FF4FE491E33021F148F4E130B9F0E2306E
:10129000D1F080E8E816F1047CF7DECFE73011F1F9
:1012A000E83041F1E430A9F78091800080628093BA
:1012B0008000F0928B00E0928A00D2CF84B58068E3
:1012C00084BDE7BCCDCF84B5806284BDE8BCC8CF07
:1012D00080918000806880938000F0928900E09285
:1012E0008800BECF8091B00080688093B000E0920B
:1012F000B300B6CF8091B00080628093B000E092DE
:10130000B400AECF9EEF980F923180F4E82FF0E05A
:10131000DF01A956BB4F9C91913041F4EE0FFF1FA6
:10132000E555FB4F608371830C9471020895FF9221
:101330000F931F93CF93DF9300D0CDB7DEB7082F65
:1013400010E0F801E151FD4F9081F62EF922085985
:101350001D4F411104C0F80190819F1511F12F2DEF
:1013600030E03A832983A0915404B091550410973A
:10137000B1F0682F6F706069ED91FC911197019049
:10138000F081E02DCD01099522E030E0AE014F5F04
:101390005F4F62E070E084E594E00E946603F8012C
:1013A000F0820F900F90DF91CF911F910F91FF90DE
:1013B0000895833040F5282F30E0F901EE50FD4FBD
:1013C0006083672B01F121513D4FF901608181114B
:1013D00006C099B19C7F692341E00C949709813044
:1013E00049F493B126B19F73F0E42F9F900111242B
:1013F000922BF1CF26B130E035952795359527957D
:101400002F706223E9CF0895A82FB0E0AC5ABD4FEA
:101410009C91292F30E0F901EE0FFF1FE20FF31F1F
:10142000EB5FFA4FE0812E2F30E0F901EE0FFF1F46
:10143000E20FF31FE052FB4F80818F7B808380910E
:101440005202981308C0992319F0915090935202B8
:101450008FEF8C9308958823D9F3E0915302EF5FC7
:10146000E0935302F0E0ED5FFD4F9083F1CFFC017C
:1014700001900020E9F73197BF01681B790BAC019F
:1014800081E70C946504CF93DF93DB0190915202C6
:101490009C3078F530915302682F70E0FB01EC5AD4
:1014A000FD4F3323E1F0C32FD0E0CD5FDD4F8881C6
:1014B0008083315030935302808123E0829FC001AA
:1014C00011248B5F9A4F1A161B0674F41416150616
:1014D0005CF49A01AD01DF91CF910C940C079083DD
:1014E0009F5F90935202E8CF20E639E040E252E05D
:1014F000F2CF8DE291E0DF91CF910C94370A85ED28
:101500008093BC0080914F0390915003A0915103B0
:10151000B09152030796A11DB11D23E0B695A79582
:10152000979587952A95D1F72091BC0024FD03C09B
:1015300010924D03089540914F03509150036091D4
:10154000510370915203452B462B472B69F30097AB
:10155000A105B10541F025E32A95F1F700000197B7
:10156000A109B109E1CF80914E030C9470059F92BF
:10157000AF92BF92CF92DF92EF92FF920F931F93A1
:10158000CF93DF93C82ED12CE601CC5EDB4FFE015A
:10159000ED57FF4F90819F3709F49FC0963061F45B
:1015A00090916B02992341F06630710529F01092F9
:1015B0006B029FEF909300017B01182F0EEF080F35
:1015C000023108F564307105F1F0F601EC5AFD4F77
:1015D00080818C30C0F490E0FC01EE0FFF1FE80F1B
:1015E000F91FEB5FFA4FE0818E2F90E0FC01EE0FC8
:1015F000FF1FE80FF91FE052FB4F808186FF03C0F9
:10160000812F0E94040A52EF952E910E85E08915D4
:1016100058F061E070E032E0E316F10411F070E0A0
:1016200060E0892D0E948B070231C8F4E12FE69516
:10163000E695E695F0E0E151FD4F2081312F3770BE
:1016400081E090E001C0880F3A95EAF7E114F104D7
:1016500021F03BE0E316F10401F5822B8083560173
:10166000AA0CBB1CF501E555FB4F118210828CE0E2
:10167000E816F10408F0CBC0F701EF5BF44F0C94CF
:10168000E017610B8E0B500BA50BC40B070CFB0B6B
:10169000070C070C070C6D0B790B80958223DECFAE
:1016A00035E03915D0F0023120F460E0812F0E943E
:1016B000BD02CD57DF4F88818F3779F082E0888374
:1016C0000CC0023150F460E0812F0E94BD02CD5762
:1016D000DF4F88818F3709F01882DF91CF911F91FA
:1016E0000F91FF90EF90DF90CF90BF90AF909F90C1
:1016F0000895023190F762E0812F0E94BD02CD571C
:10170000DF4F88818F3711F08BE08883F501E55535
:10171000FB4F81E090E091838083DFCF0231E8F6D8
:10172000FE01ED57FF4F8081833021F460E0812F6F
:101730000E94710261E0812F0E94BD02CD57DF4FF0
:1017400088818F3751F281E0BACF133049F08BEFA7
:10175000810F823028F087EF810F833008F0BDCFF2
:1017600061E0812F0E94BD0261E0812F0E94BD02D5
:1017700060E0812F0E947102CD57DF4F88818F3743
:1017800009F4ABCF83E09BCF023108F0A6CFCD5751
:10179000DF4F88818F3711F084E08883F601EC5A9F
:1017A000FD4F80818F3FA9F090E0FC01EE0FFF1FFD
:1017B000E80FF91FEB5FFA4FE0818E2F90E0FC01FC
:1017C000EE0FFF1FE80FF91FE052FB4F808186FDEF
:1017D00084CF4FEF5FEF6FEF7FEF812FDF91CF91DE
:1017E0001F910F91FF90EF90DF90CF90BF90AF903F
:1017F0009F900C94430A1251123008F06ECFCD57CF
:10180000DF4F88818F3709F468CF86E058CF81E4B5
:1018100091E0DF91CF911F910F91FF90EF90DF90BA
:10182000CF90BF90AF909F900C94370A0F931F9367
:10183000CF93DF9381E080936C0280916B028823C9
:1018400029F010926B028FEF809300011092F20248
:101850001092EF02109268021092F3021092F002BE
:10186000109269021092F4021092F10210926A0230
:1018700004E512E0C0E0DFEF82EF8C0F62E070E081
:10188000863030F08EEF8C0F823128F461E070E00A
:101890008C2F0E94B70AF801D1938F01CF5FC4311A
:1018A00059F71092220310922103109253021092C2
:1018B000520210926C02DF91CF911F910F91089507
:1018C0004F925F926F927F928F929F92AF92BF9250
:1018D000DF92EF92FF920F931F93CF93DF93D82E57
:1018E0008B01D42FC22F6F3F760709F490C081E09F
:1018F00080935303D0927503109254031092760391
:1019000084ED94E00E94DA068C2F0E94910580916C
:101910005002909151028230910538F0880F991F42
:10192000880F991F05970197F1F70E940E034B014D
:101930005C0180914D0381116CC0CD2FD13208F034
:10194000C0E281E080934D0380934C039FEF90931E
:101950004B0310924A039C0F9093490380932803F2
:10196000909128038D2D880F892B809328038091D7
:101970002703813009F09EC0109227030E940E03B6
:101980004B015C01809128038093BB0080914F0341
:1019900090915003A0915103B0915203892B8A2B4F
:1019A0008B2BA1F00E940E0340904F0350905003E8
:1019B0006090510370905203681979098A099B0954
:1019C000461657066806790608F444C08091BC00A4
:1019D00083FDD8CF85EC8093BC000E940E034B01A1
:1019E0005C0180914D03813009F466C080914A0307
:1019F0008C1710F4C0914A03A9E2B3E0EEE6F2E0DE
:101A000080E08C1761F19D9191938F5FFACF00E098
:101A10008CCF80914F0390915003A0915103B091CE
:101A20005203892B8A2B8B2B09F483CF0E940E0340
:101A300040904F03509050036090510370905203B8
:101A4000681979098A099B094616570668067906B6
:101A500008F06FCF80914E030E947005C0E0109295
:101A60008F02C0938E02ED2EF12C8C2F90E0E816A1
:101A7000F9060CF043C082E591E00E94370AD0924B
:101A800010020093110200E112E0C801805192405F
:101A90008E159F05D4F50F5F1F4F90918E02809198
:101AA0008F02981791F184ED94E00E949306F8015B
:101AB0008183EBCF85EE8FCF80914F0390915003C0
:101AC000A0915103B0915203892B8A2B8B2B09F4DF
:101AD00088CF0E940E0340904F03509050036090B7
:101AE000510370905203681979098A099B094616B7
:101AF00057066806790608F074CFACCF8E159F059F
:101B00000CF0BDCF8FE691E0B8CFDE5F6D2F70E0B7
:101B100040E152E087E7DF91CF911F910F91FF9055
:101B2000EF90DF90BF90AF909F908F907F906F90DD
:101B30005F904F900C946504EF92FF920F931F9368
:101B4000CF93DF938956823108F033C0EA01162F14
:101B5000E82FF0E0E255F24F0C94E017F40FD90DA6
:101B60005B0FD90DB30FD90D390FDD0ED90DD90D7E
:101B7000D90DD90DD90DC00DD90DA10ED90D230F39
:101B8000998195FF0AC08BE891E0DF91CF911F9179
:101B90000F91FF90EF900C94370A888131E096FB0B
:101BA000222720F9232798719830D1F148F49923FE
:101BB000A9F0DF91CF911F910F91FF90EF900895C1
:101BC000903109F44CC09831A1F720910001121610
:101BD0000CF472C08FEF80930001EBCF309353036E
:101BE00080937503109254031092760302E001175C
:101BF00078F4FE01E00FF11D618167956627679516
:101C00008081680F84ED94E00E94DA060E5FEFCFCA
:101C100081E00E94910583E191E00197F1F7C9CF3E
:101C20009A814B816630A1F430E8439FB0011124C2
:101C3000690F711D4D814795442747959C81490F38
:101C4000DF91CF911F910F91FF90EF900C94600C5A
:101C5000479544274795490F6FEF7FEFF1CFE0910C
:101C60000001E7301CF08BEA91E08FCF3A819B8135
:101C70006630D9F460E8969FA0011124430F511DEE
:101C80009D819795992797953C81930FEF5FE093FE
:101C9000000135E0E302F0011124E750FD4F80839D
:101CA000528341839383248384CF97959927979573
:101CB000930F4FEF5FEFEACF90E0622F022E000C00
:101CC000770B35E0492F50E06417750764F0349FB7
:101CD000F001359FF00D1124E750FD4F408148176A
:101CE00019F09F5FEFCF90E085E0492F50E0641737
:101CF00075071CF19830F8F4FA0131968E9FD001E7
:101D00008F9FB00D1124A750BD4F3C91849FF001CF
:101D1000859FF00D1124E750FD4F308311964D91B2
:101D20005C9112975283418313963C9113973383AE
:101D300014963C9134839F5FD8CF215020930001AB
:101D400038CF623078F0898160E8869F9001112455
:101D50008881820F932F911D009721F0909351025B
:101D60008093500280916B02811123CFC0E08EEEF0
:101D70008C0F823028F466E070E08C2F0E94B70A46
:101D8000CF5FC431A1F781E080936B0210928F0284
:101D900010928E0210925403109276030E94520504
:101DA00081E896E09093B2028093B10282E896E0D7
:101DB0009093B6028093B502FCCE653008F4F9CE5C
:101DC00018818EEF810F823108F0F3CE0981EA800D
:101DD000FB80CC81E12FF0E0EC5AFD4F80818C300C
:101DE000C0F490E0FC01EE0FFF1FE80FF91FEB5F5E
:101DF000FA4FE0818E2F90E0FC01EE0FFF1FE80FFD
:101E0000F91FE052FB4F808186FF03C0812F0E94A3
:101E1000040A80E8C89FA00111244F0D511D90E8CD
:101E2000E99EB0011124600F711D812F0E94430AA9
:101E300064E070E0812FDF91CF911F910F91FF90AF
:101E4000EF900C94B70A623008F4B3CE8981E0E8D1
:101E50008E9F900111248881820F932F911D0097EE
:101E600029F09093020180930101A3CE81E090E0DC
:101E7000F8CF623008F49DCE698170E0123091F0A5
:101E80008A81F0E88F9FC0011124682B792B1330D1
:101E900049F08B8190E090E4899F902D8827112450
:101EA000682B792B8881DF91CF911F910F91FF9043
:101EB000EF900C94640880EF0E9401018CE60E9470
:101EC0000101CEEF84EF8C0F863020F582E00E9476
:101ED00001018AE00E9401018DEF8C0F8230E0F059
:101EE00089EF8C0F8330F0F417C0C23158F780E0CF
:101EF0000E94010181E00E9401018BE00E9401012A
:101F000081E00E94010181E00E94010181E00E94C4
:101F10000101D8CFC13001F783E00E94010188E0C0
:101F20000E940101C23130F484E00E9401018EE080
:101F30000E94010180EF8C0F823030F486E00E9415
:101F4000010181E00E9401018FE70E940101CF5F42
:101F5000C23159F687EFDF91CF911F910F91FF901A
:101F6000EF900C940101662309F423CEC88180EF21
:101F70000E9401018EE60E9401018C2F0E94010146
:101F8000C43140F7D0E0FE01E956FB4F80810E944A
:101F90000101CC0FDD1F8E0105551B4FF80180811B
:101FA0008F770E940101F801808191819C01207846
:101FB000232B39F0880F892F881F990B8F770E9468
:101FC0000101C555DB4F888199819C012227307C16
:101FD000232B09F4BFCF990F880B990F982F881FD7
:101FE0008F770E940101B6CF80EF0E9401018AE63F
:101FF0000E940101C2EF8FE7C63008F48C2F0E94C7
:102000000101CF5FC630B9F7A5CF1F920F920FB66F
:102010000F9211242F933F934F935F936F937F936E
:102020008F939F93AF93BF93EF93FF9387E793E0D3
:102030000E94E201FF91EF91BF91AF919F918F912B
:102040007F916F915F914F913F912F910F900FBEB4
:102050000F901F9018951F920F920FB60F92112498
:102060002F938F939F93EF93FF93E0918703F091CA
:1020700088038081E0918D03F0918E0382FD1BC067
:102080009081809190038F5F8F73209191038217CD
:1020900041F0E0919003F0E0E958FC4F958F809378
:1020A0009003FF91EF919F918F912F910F900FBE11
:1020B0000F901F9018958081F4CF1F920F920FB64A
:1020C0000F9211242F933F938F939F93AF93BF93BE
:1020D0008091F5029091F602A091F702B091F8027A
:1020E0003091DA0223E0230F2D3758F50196A11D18
:1020F000B11D2093DA028093F5029093F602A0932B
:10210000F702B093F8028091DB029091DC02A0917B
:10211000DD02B091DE020196A11DB11D8093DB02AC
:102120009093DC02A093DD02B093DE02BF91AF91E9
:102130009F918F913F912F910F900FBE0F901F9005
:10214000189526E8230F0296A11DB11DD2CF1F922C
:102150000F920FB60F9211240F900FBE0F901F9089
:1021600018951F920F920FB60F9211242F933F9341
:102170004F935F936F937F938F939F93AF93BF938F
:10218000EF93FF938091B900887F803609F44AC0AD
:10219000F0F5883209F4A7C018F5803109F49BC026
:1021A000B8F4882309F4F9C0883009F494C0FF9189
:1021B000EF91BF91AF919F918F917F916F915F91BF
:1021C0004F913F912F910F900FBE0F901F90189538
:1021D000883109F488C0803251F780934B0314C0D2
:1021E000803409F49DC040F48033B9F38833F9F6A4
:1021F00080934B0385ECB0C0803509F485C08835E9
:1022000009F496C0883499F60E947F0AD0CF8839A5
:1022100009F48CC038F5883729F050F4883611F06D
:10222000803729F683E080934D031092D70257C080
:10223000883809F47BC0803919F0803809F0B7CFAD
:102240008091D702803208F071C0E091D70281E01E
:102250008E0F8093D7028091BB00F0E0E954FD4FD0
:1022600080833DC0803B39F0E0F4803A09F479C0C6
:10227000883A09F09CCF84E080934D031092B40219
:102280001092B302E091B102F091B20209958091EF
:10229000B30281110FC081E08093B30210929102CA
:1022A00009C0803C09F4A6CF883C09F4A3CF883B41
:1022B00009F07DCFE091B40281E08E0F8093B402EB
:1022C000F0E0EF56FD4F80818093BB009091B40207
:1022D0008091B30229C0809128038093BB0085ECD4
:1022E0008093BC0064CF90914A0380914903981772
:1022F00058F5E0914A0381E08E0F80934A03F0E0A5
:10230000E75DFC4F8081E9CFE0914A0381E08E0FC9
:1023100080934A038091BB00F0E0E75DFC4F80832F
:1023200090914A03809149039817C8F285E8D8CF65
:10233000E0914A0381E08E0F80934A038091BB00B5
:10234000F0E0E75DFC4F808380914C0381115CCF0E
:1023500081E08093270384EA8093BC0010924D03B0
:1023600026CF85EC8093BC0010924D038091D7025C
:10237000803230F4E091D702F0E0E954FD4F108252
:102380006091D70270E0E091B502F091B60287EB60
:1023900092E009951092D7020ACF10924B0334CFE6
:1023A0001F920F920FB60F9211242F933F934F93CA
:1023B0005F936F937F938F939F93AF93BF93CF93CD
:1023C000DF93EF93FF9380916D02C0910405D0E0FD
:1023D00087FF24C0109285001092840080916D02C6
:1023E0008F5F80936D0280916D02082E000C990B17
:1023F0008C179D0724F480916D028C30C4F180917C
:10240000840090918500049680349C4908F47AC039
:102410008091840090918500049676C080916D0231
:10242000082E000C990B8C179D07C4F6E0916D02E5
:102430008E2FEE0F990BFC01EE0FFF1FE80FF91F17
:10244000E052FB4F808186FFC9CFE0916D028E2F55
:10245000EE0F990BFC01EE0FFF1FE80FF91FE05282
:10246000FB4F808160E08F730E947102B7CF209193
:10247000840030918500E0916D028E2FEE0F990B54
:10248000FC01EE0FFF1FE80FF91FE052FB4F8181A7
:102490009281820F931F9093890080938800E0912E
:1024A0006D028E2FEE0F990BFC01EE0FFF1FE80F50
:1024B000F91FE052FB4F808186FF11C0E0916D0251
:1024C0008E2FEE0F990BFC01EE0FFF1FE80FF91F87
:1024D000E052FB4F808161E08F730E947102FF9197
:1024E000EF91DF91CF91BF91AF919F918F917F91AC
:1024F0006F915F914F913F912F910F900FBE0F9071
:102500001F90189580E49CE990938900809388003F
:102510008FEF80936D02E3CF10927A0310927903CC
:1025200048EE53E060E070E040937B0350937C03FF
:1025300060937D0370937E038DE091E09093780328
:102540008093770385EC90E09093840380938303DA
:1025500084EC90E0909386038093850380EC90E078
:10256000909388038093870381EC90E090938A0393
:102570008093890382EC90E090938C0380938B038B
:1025800086EC90E090938E0380938D0310929003DD
:1025900010929103109292031092930384E194E0BD
:1025A0001092550410925404909358048093570449
:1025B00020E430E030935A042093590410925B04D5
:1025C00010925C0410925E0410925D0410925F04FD
:1025D00010926104109260041092630410926204DD
:1025E00010926504109264041092670410926604BD
:1025F000109269041092680410926B0410926A049D
:1026000010926D0410926C04109273041092720474
:10261000109275041092740410927704109276044C
:102620001092790410927804109287041092860414
:1026300010925604109294041092960410929504ED
:102640001092D30427E830E030937B0420937A047F
:1026500021E930E030937D0420937C042BE930E0C5
:1026600030937F0420937E0425EA30E03093810488
:10267000209380042FEA30E0309383042093820477
:1026800029EB30E0309385042093840423EC30E080
:10269000309389042093880424EC30E030938B0439
:1026A00020938A0426E235E030938D0420938C0435
:1026B00090936F0480936E042DE531E030938F0486
:1026C00020938E0490937104809370048FEC90E0BB
:1026D00090939104809390041092D7041092D604A2
:1026E0004093D8045093D9046093DA047093DB04C8
:1026F0008FE191E09093D5048093D404E5E0F5E078
:102700002FEF48EB5BE0809104058C30B8F491E04A
:10271000980F90930405808390E0DC01AA0FBB1F03
:10272000A80FB91FA052BB4F12965C934E931197FE
:10273000339685E0E932F80731F708952083F8CF22
:10274000789484B5826084BD84B5816084BD85B58C
:10275000826085BD85B5816085BD80916E00816098
:1027600080936E001092810080918100826080933E
:102770008100809181008160809381008091800040
:102780008160809380008091B10084608093B1006B
:102790008091B00081608093B00080917A00846065
:1027A00080937A0080917A00826080937A00809191
:1027B0007A00816080937A0080917A0080688093AB
:1027C0007A001092C10085E1809394048091950471
:1027D000909196040E948218C0919404D0E0CE019A
:1027E00001960E94E6179093960480939504FC014D
:1027F000EC0FFD1F108212E0DC011C9325E0119606
:102800002C93AE01425051096FEE71E002960E9486
:102810000B1984E698E09093EA028093E90288EB32
:1028200097E09093E8028093E7028BE897E090931B
:10283000E6028093E50289ED99E09093E4028093AB
:10284000E30287EB9AE09093E2028093E10282E850
:1028500099E09093E0028093DF028CE99DE09093F1
:10286000EC028093EB0286E19CE09093EE02809371
:10287000ED02E0918703F09188031083E0918703D4
:10288000F09188031082E0918303F0918403108219
:10289000E0918503F091860380E1808310928F039D
:1028A000E0918B03F0918C0386E08083E0918903B3
:1028B000F0918A03808180618083E0918903F091A7
:1028C0008A03808188608083E0918903F0918A0384
:1028D000808180688083E0918903F0918A03808100
:1028E0008F7D80838091D30481114FC061E08DE0A2
:1028F0000E94BD0262ED70E080E090E00E94330330
:1029000061E08DE00E94710268E270E080E090E09A
:102910000E94330360E08DE00E94710262ED70E07E
:1029200080E090E00E94330361E08DE00E9471023C
:1029300068E270E080E090E00E94330360E08DE0A8
:102940000E9471026AEF70E080E090E00E94330321
:10295000C5E062ED70E080E090E00E94330361E04A
:102960008DE00E94710268E270E080E090E00E94D9
:10297000330360E08DE00E947102C15051F76DE7B2
:1029800070E080E090E00E94330387E793E090934B
:10299000930480939204909355048093540484E5A7
:1029A00094E00E94D70084E194E00E94B2040E9467
:1029B000160C25E0D22EC0E0D0E0CC24C39402E077
:1029C00010E0EE24E394F12C8091F202882349F088
:1029D00069B18091EF0268236C7F40E080E00E9443
:1029E00097098091F302882379F063B186B16F7300
:1029F000B0E48B9FC0011124682B8091F002682302
:102A000040E081E00E9497098091F402882359F008
:102A100066B18091F1028F7066956695682340E0FB
:102A200082E00E9497098091920490919304DC01C6
:102A3000ED91FC910084F185E02D0995892B09F435
:102A4000CEC18091920490919304DC01ED91FC91B0
:102A50000284F385E02D09959C018F3F980719F3B7
:102A6000982F80915F04882309F492C0973F09F062
:102A70007EC010925F04A0915704B09158046C91ED
:102A80006137C1F1693709F05CC0E0918C04F091C5
:102A90008D04309741F280916004909161048330FD
:102AA000910560F430E020E050E040E070E060E04C
:102AB00080916E0490916F040995B5CFBD016D5F53
:102AC0007F4F03970E943E01BC016D5F7F4F80E006
:102AD0000E940E01E0915704F09158049F012D5F70
:102AE0003F4F428150E0618170E0E0918C04F091B1
:102AF0008D04DECF8091880490918904892B09F49C
:102B000092CFBD016F5F7F4F80916004909161040F
:102B100001970E943E01BC016F5F7F4F80E00E94E1
:102B20000E0160915704709158046F5F7F4FE091E0
:102B30008804F0918904809174049091750409953A
:102B400072CFE0918A04F0918B04309709F46BCF37
:102B50009D012F5F3F4F40916004509161044150AF
:102B60005109809176049091770409955CCF60912A
:102B7000600470916104822F0E940E0180916004B4
:102B800090916104019690936104809360044BCF0F
:102B900060915D0470915E046115710509F4B1C026
:102BA00027FDAFC06150710970935E0460935D04AE
:102BB000822F0E940E0180915D0490915E04892B0A
:102BC00009F031CF80915B04882309F42CCF803D3C
:102BD00009F483C040F4803949F1803C09F469C0AC
:102BE00010925B0420CF843FE1F1853F09F44DC092
:102BF000803EB1F7E0917A04F0917B04309781F345
:102C0000A0915704B09158044C9120E8429FC00114
:102C1000112411964C91480F592F511D60915C045D
:102C200080916204909163040995DACFE0917C046D
:102C3000F0917D043097A1F2A0915704B09158040F
:102C40004C9120E8429FC001112411964C91480FED
:102C5000592F511D60915C0480916404909165042A
:102C6000E3CFE0918204F0918304309709F4B8CF68
:102C7000A0915704B09158044C9150E011966C917A
:102C800080916A0490916B04CFCFE0918404F0911D
:102C90008504309709F4A4CFA0915704B09158044B
:102CA0004C9150E011966C9180916C0490916D0460
:102CB000BBCFE0917E04F0917F04309709F490CF70
:102CC000A0915704B09158044C9150E060915C047D
:102CD0008091660490916704A7CFE0918004F09101
:102CE0008104309709F47CCFA0915704B091580427
:102CF0004C9150E060915C0480916804909169046B
:102D000093CF903F30F4822F8F7080935C04922F8A
:102D1000907F903FF1F190F4903CB1F150F49039F4
:102D200009F081CE10935E0400935D0490935B04E0
:102D30007ACE903D49F1903EA9F375CE993F09F4C2
:102D400042C028F48CE0890F823060F36CCE9F3F44
:102D500009F069CE10925E0410925D0410925B043B
:102D600010925C0490E080E02091590430915A0464
:102D700082179307A8F4E0915704F0915804E80FE4
:102D8000F91F10820196F0CFF0925E04E0925D048C
:102D9000CDCFC0925F04109261041092600443CEC4
:102DA00010925F041092610410926004E09190040C
:102DB000F09191048091780490917904309709F40E
:102DC00032CE099530CEE0918E04F0918F04309789
:102DD00009F429CE8091700490917104F2CF8FB7DD
:102DE000F8948090F5029090F602A090F702B090CF
:102DF000F8028FBF8091230390912403A0912503B3
:102E0000B0912603409101015091020170E060E011
:102E1000881A990AAA0ABB0A481559056A057B054A
:102E200008F054C0840F951FA61FB71F809323037B
:102E300090932403A0932503B093260384E1882E66
:102E400084E0982E92EFB92E85E08B15C8F0F4013E
:102E5000ED57FF4F8081823099F48091210390914A
:102E600022030B2C02C0959587950A94E2F780FF08
:102E700007C08B2D0E94F902BC018B2D0E94050416
:102E8000B394AFEF8A1A9A0AB6E0BB12DDCF8091F5
:102E9000000187FD1BC0B12C2B2D30E0809100017B
:102EA000082E000C990B8217930784F0D29EF00134
:102EB000D39EF00D1124E750FD4F61817281248172
:102EC000438180810E94600CB394E6CF209709F47F
:102ED0007BCD0E94CE01882309F476CD0E940000AC
:102EE00073CD052E97FB1EF400940E94881757FDA2
:102EF00007D00E94A31707FC03D04EF40C94881748
:102F000050954095309521953F4F4F4F5F4F089515
:102F100090958095709561957F4F8F4F9F4F089545
:102F20000E94C517A59F900DB49F900DA49F800D82
:102F3000911D11240895B7FF0C9490170E949017CB
:102F4000821B930B0895A1E21A2EAA1BBB1BFD0145
:102F50000DC0AA1FBB1FEE1FFF1FA217B307E40778
:102F6000F50720F0A21BB30BE40BF50B661F771FD0
:102F7000881F991F1A9469F76095709580959095B0
:102F80009B01AC01BD01CF010895A29FB001B39F89
:102F9000C001A39F700D811D1124911DB29F700D62
:102FA000811D1124911D0895991B79E004C0991F7A
:102FB000961708F0961B881F7A95C9F78095089593
:102FC000EE0FFF1F0590F491E02D09940F931F93CE
:102FD000CF93DF938230910510F482E090E0E0918E
:102FE0002B05F0912C0530E020E0B0E0A0E0309718
:102FF00099F42115310509F44AC0281B390B2430F6
:103000003105D8F58A819B816115710589F1FB0134
:1030100093838283FE0111C040815181028113811B
:1030200048175907E0F04817590799F4109761F0CD
:1030300012960C93129713961C933296CF01DF9140
:10304000CF911F910F91089500932B0510932C059C
:10305000F4CF2115310551F04217530738F0A9017B
:10306000DB019A01BD01DF01F801C1CFEF01F9CF0A
:1030700090932C0580932B05CDCFFE01E20FF31F1B
:10308000819391932250310939832883D7CF20919E
:10309000290530912A05232B41F420910501309117
:1030A000060130932A0520932905209103013091D0
:1030B00004012115310541F42DB73EB740910701B8
:1030C00050910801241B350BE0912905F0912A0548
:1030D000E217F307A0F42E1B3F0B2817390778F0EF
:1030E000AC014E5F5F4F2417350748F04E0F5F1F4E
:1030F00050932A0540932905819391939FCFF0E047
:10310000E0E09CCFCF93DF930097E9F0FC0132978A
:1031100013821282A0912B05B0912C05ED0130E0B5
:1031200020E01097A1F420813181820F931F20911C
:10313000290530912A052817390709F061C0F09355
:103140002A05E0932905DF91CF910895EA01CE1772
:10315000DF07E8F54A815B819E0141155105B1F712
:10316000E901FB83EA8349915991C40FD51FEC17FC
:10317000FD0761F4808191810296840F951FE9011A
:1031800099838883828193819B838A83F0E0E0E046
:1031900012968D919C9113970097B9F52D913C91C2
:1031A0001197CD010296820F931F2091290530912E
:1031B0002A052817390739F6309751F510922C0552
:1031C00010922B05B0932A05A0932905BCCFD38379
:1031D000C28340815181840F951FC817D90761F4BC
:1031E0004E5F5F4F88819981480F591F51834083FB
:1031F0008A819B81938382832115310509F0B0CFA9
:10320000F0932C05E0932B059ECFFD01DC01C0CF90
:1032100013821282D7CFFB01DC014150504048F0AD
:1032200001900D920020C9F701C01D9241505040FD
:10323000E0F70895F894FFCFFF130000002D0580FC
:1032400000000000000402640191015102C201A0CB
:1032500001B40100000000DA06AD0609078306A6E6
:1032600006930684064D617820736572766F73202D
:10327000617474616368656400556E6B6E6F776E20
:103280002070696E206D6F6465004932433A2054A6
:103290006F6F206D616E792062797465732072653D
:1032A000636569766564004932433A20546F6F2044
:1032B00066657720627974657320726563656976E7
:1032C00065640031302D62697420616464726573D5
:1032D00073696E67206E6F7420737570706F72748F
:1032E000656400746F6F206D616E79207175657211
:1032F00069657300443A5C50757273686F747461E9
:103300006D5C70726F6A65637420323032335C6159
:10331000726475696E6F5C5374616E646172644649
:1033200069726D6174615C5374616E64617264464C
:0C33300069726D6174612E696E6F00009F
:107E0000112484B714BE81FFF0D085E080938100F7
:107E100082E08093C00088E18093C10086E0809377
:107E2000C20080E18093C4008EE0C9D0259A86E02C
:107E300020E33CEF91E0309385002093840096BBD3
:107E4000B09BFECF1D9AA8958150A9F7CC24DD24C4
:107E500088248394B5E0AB2EA1E19A2EF3E0BF2EE7
:107E6000A2D0813461F49FD0082FAFD0023811F036
:107E7000013811F484E001C083E08DD089C08234E0
:107E800011F484E103C0853419F485E0A6D080C0E4
:107E9000853579F488D0E82EFF2485D0082F10E0AE
:107EA000102F00270E291F29000F111F8ED06801E7
:107EB0006FC0863521F484E090D080E0DECF843638
:107EC00009F040C070D06FD0082F6DD080E0C81688
:107ED00080E7D80618F4F601B7BEE895C0E0D1E017
:107EE00062D089930C17E1F7F0E0CF16F0E7DF06D8
:107EF00018F0F601B7BEE89568D007B600FCFDCFD4
:107F0000A601A0E0B1E02C9130E011968C91119780
:107F100090E0982F8827822B932B1296FA010C0160
:107F200087BEE89511244E5F5F4FF1E0A038BF0790
:107F300051F7F601A7BEE89507B600FCFDCF97BE46
:107F4000E89526C08437B1F42ED02DD0F82E2BD052
:107F50003CD0F601EF2C8F010F5F1F4F84911BD097
:107F6000EA94F801C1F70894C11CD11CFA94CF0C13
:107F7000D11C0EC0853739F428D08EE10CD085E9AC
:107F80000AD08FE07ACF813511F488E018D01DD067
:107F900080E101D065CF982F8091C00085FFFCCF94
:107FA0009093C60008958091C00087FFFCCF809118
:107FB000C00084FD01C0A8958091C6000895E0E648
:107FC000F0E098E1908380830895EDDF803219F02E
:107FD00088E0F5DFFFCF84E1DECF1F93182FE3DFCA
:107FE0001150E9F7F2DF1F91089580E0E8DFEE27F6
:047FF000FF270994CA
:027FFE00040479
:00000001FF
