:020000040000FA
:100000000C9471000C9499000C9499000C94990034
:100010000C9499000C9499000C9499000C949900FC
:100020000C9499000C9499000C9499000C949900EC
:100030000C9499000C9499000C9499000C949900DC
:100040000C94E2090C9499000C94520A0C942C0A1A
:100050000C9499000C9499000C9499000C949900BC
:100060000C9499000C9499004156525F50574D20C2
:1000700076312E322E30000A5374617274696E67C5
:100080002050574D5F4261736963206F6E200000FE
:100090000000080002010000030407000000000047
:1000A00000000000000000250028002B00000000D8
:1000B00000240027002A00040404040404040402A9
:1000C00002020202020303030303030102040810F5
:1000D00020408001020408102001020408102000C2
:1000E000710B11241FBECFEFD8E0DEBFCDBF14E0EF
:1000F000A0E0B1E0E2EDFEE102C005900D92A23376
:10010000B107D9F724E0A2E3B4E001C01D92A63EF6
:10011000B207E1F710E0C1E7D0E004C02197FE018B
:100120000E943C0EC037D107C9F70E94840A0C9484
:10013000670F0C94000090E0FC01E553FF4F249101
:1001400089549F4FFC018491882399F090E0880F97
:10015000991FFC01E355FF4FA591B491FC01ED55AA
:10016000FF4F859194918FB7F894EC91E22BEC932B
:100170008FBF0895FC01538D448D252F30E0842FCF
:1001800090E0821B930B541710F0CF9608950197BF
:100190000895FC01918D828D981761F0A28DAE0FAC
:1001A000BF2FB11D5D968C91928D9F5F9F73928F33
:1001B00090E008958FEF9FEF0895FC01918D828D5F
:1001C000981731F0828DE80FF11D858D90E008952C
:1001D0008FEF9FEF0895FC01918D228D892F90E084
:1001E000805C9F4F821B91098F7399270895FC01B2
:1001F000A48DA80FB92FB11DA35ABF4F2C91848D88
:1002000090E001968F739927848FA689B7892C93E4
:10021000A089B1898C91837080648C93938D848D37
:10022000981306C00288F389E02D80818F7D80833A
:100230000895EF92FF920F931F93CF93DF93EC01FA
:1002400081E0888F9B8D8C8D98131AC0E889F9897D
:10025000808185FF15C09FB7F894EE89FF89608380
:10026000E889F98980818370806480839FBF81E001
:1002700090E0DF91CF911F910F91FF90EF90089543
:10028000F62E0B8D10E00F5F1F4F0F731127E02E1E
:100290008C8D8E110CC00FB607FCFACFE889F98956
:1002A000808185FFF5CFCE010E94F700F1CFEB8D65
:1002B000EC0FFD2FF11DE35AFF4FF0829FB7F8942A
:1002C0000B8FEA89FB8980818062CFCF0F931F93C8
:1002D000CF93DF938C01D0E0C0E0F801EC0FFD1F5D
:1002E0006491662341F085E494E00E941901892B12
:1002F00011F02196F2CFCE01DF91CF911F910F9196
:100300000895CF93DF93EC01888D8823B9F0AA89F3
:10031000BB89E889F9898C9185FD03C0808186FDC0
:100320000DC00FB607FCF7CF8C9185FFF2CF80810F
:1003300085FFEDCFCE010E94F700E9CFDF91CF918D
:10034000089585E494E00E94EB0021E0892B09F4F4
:1003500020E0822F089580E090E0892B29F00E9410
:10036000A10181110C940000089590E0FC01E15777
:10037000FF4F2491FC01E553FF4F3491FC01E954F8
:10038000FF4FE491EE23C9F0222339F0233001F12D
:10039000A8F4213019F1223029F1F0E0EE0FFF1F0F
:1003A000ED55FF4FA591B4918FB7F894EC91611181
:1003B00026C030953E233C938FBF08952730A9F087
:1003C0002830C9F0243049F7809180008F7D03C028
:1003D000809180008F7780938000DFCF84B58F7706
:1003E00084BDDBCF84B58F7DFBCF8091B0008F774C
:1003F0008093B000D2CF8091B0008F7DF9CF3E2B9B
:10040000DACF3FB7F8948091390490913A04A091E3
:100410003B04B0913C0426B5A89B05C02F3F19F0C2
:100420000196A11DB11D3FBFBA2FA92F982F882774
:10043000BC01CD01620F711D811D911D42E0660F4F
:10044000771F881F991F4A95D1F708958F929F9221
:10045000AF92BF92CF92DF92EF92FF920E94010281
:100460004B015C0180E1C82E87E2D82EE12CF12CF3
:100470000E940102681979098A099B09683E734044
:1004800081059105A8F321E0C21AD108E108F1081D
:1004900088EE880E83E0981EA11CB11CC114D10403
:1004A000E104F10429F7FF90EF90DF90CF90BF9027
:1004B000AF909F908F900895AF92BF92CF92DF92AE
:1004C000EF92FF920F931F93CF93DF936C017B0109
:1004D0008B01040F151FEB015E01AE18BF08C0179A
:1004E000D10759F06991D601ED91FC910190F0810D
:1004F000E02DC6010995892B79F7C501DF91CF91D0
:100500001F910F91FF90EF90DF90CF90BF90AF9031
:100510000895FC0101900020E9F73197AF01481BD5
:10052000590BBC0185E494E00C945C028F929F927D
:10053000AF92BF920F931F93CF93DF93CDB7DEB7E8
:10054000A1970FB6F894DEBF0FBECDBF19A24230FF
:1005500008F44AE08E010F5D1F4F842E912CB12CC0
:10056000A12CA50194010E94C80BE62FB901CA0174
:10057000EA30F4F4E05DD801EE938D01232B242BB7
:10058000252B79F790E080E0109719F0CD010E94BB
:100590008902A1960FB6F894DEBF0FBECDBFDF91E2
:1005A000CF911F910F91BF90AF909F908F90089522
:1005B000E95CE1CF0C948902CF93DF930E9489021A
:1005C000EC0181E291E00E9489028C0F9D1FDF9176
:1005D000CF910895CF93DF93BC0190E080E04AE093
:1005E0000E949602EC0181E291E00E9489028C0F48
:1005F0009D1FDF91CF9108954F925F926F927F92EE
:100600008F929F92AF92BF92CF92DF92EF92FF9222
:100610000F931F93CF936B017C01742EAC019B0150
:100620000E94370E882399F084E291E0CF911F91C8
:100630000F91FF90EF90DF90CF90BF90AF909F9081
:100640008F907F906F905F904F900C94890246013D
:100650005701E894B7F82FEF3FEF4FE75FE7C50189
:10066000B4010E94370E81110DC02FEF3FEF4FE70D
:100670005FE7C501B4010E94660C18161CF488E2FD
:1006800091E0D4CF2FEF3FEF4FE75FE4C701B60112
:100690000E94C50D18161CF48CE291E0C7CF2FEF15
:1006A0003FEF4FE75FECC701B6010E94660C87FD84
:1006B000F3CF20E030E0A901C701B6010E94660C2B
:1006C00010E000E087FF0AC06DE285E494E00E943C
:1006D00019018C01F7FAF094F7F8F094C0E060E0AB
:1006E00070E080E09FE37C1641F020E030E040E2E3
:1006F00051E40E946B0CCF5FF6CFA70196010E94D8
:10070000FA0B2B013C010E94E40C4B015C014AE016
:100710000E9496027C01E00EF11ECC23C1F1C501BE
:10072000B4010E94130D9B01AC01C301B2010E94F0
:10073000F90B4B015C016EE285E494E00E94190123
:10074000E80EF91EC15018F120E030E040E251E41B
:10075000C501B4010E94CA0D2B013C010E94E40CAA
:100760004B01B12CA12C4AE0C501B4010E949602B4
:10077000E80EF91EC501B4010E94130D9B01AC01E6
:10078000C301B2010E94F90B4B015C01DBCFC70131
:10079000CF911F910F91FF90EF90DF90CF90BF907E
:1007A000AF909F908F907F906F905F904F90089543
:1007B000CF93DF9342E00E94FC02EC0181E291E0E2
:1007C0000E9489028C0F9D1FDF91CF9108950F9396
:1007D0001F93CF93DF93EC018A01FA01808191810D
:1007E000A281B38188879987AA87BB87DB01EC91B7
:1007F000F0E0E157FF4FE491EF878FEF8E0F8230EB
:1008000020F0E650E33008F044C020E034E244E752
:1008100057E4F80160817181828193810E94660CA6
:1008200087FF2EC08AE191E00E94DA0280E391E026
:100830000E94DA0288E191E00E94DA02D8016D910B
:100840007D918D919C9142E00E94FC0288E191E0B3
:100850000E94DA028CE491E00E94DA0288E191E0E1
:100860000E94DA0260E074E284E797E40E94D80311
:1008700080E094E2A4E7B7E488879987AA87BB87DA
:10088000688579858A859B85DF91CF911F910F912E
:10089000089520E034E244E753E4F8016081718177
:1008A000828193810E94660C87FFEACF8AE191E002
:1008B0000E94DA0280E391E00E94DA0288E191E08E
:1008C0000E94DA02D8016D917D918D919C9142E058
:1008D0000E94FC0288E191E00E94DA028CE491E03F
:1008E0000E94DA0288E191E00E94DA0260E074E29C
:1008F00084E793E40E94D80380E094E2A4E7B3E4A1
:10090000BBCF682F70E090E080E04AE00C94960244
:10091000CF93DF930E948104EC0181E291E00E9479
:1009200089028C0F9D1FDF91CF910895CF93DF93A4
:100930004AE00E949602EC0181E291E00E94890265
:100940008C0F9D1FDF91CF9108958F929F92AF9250
:10095000BF92CF92DF92EF92FF921F93CF93DF93DC
:10096000EC017B0160913D0470913E0480913F0455
:10097000909140040E94DD0C9B01AC01AFEFBFEFF2
:100980000E94BD0B24E630E040E050E00E949E0B48
:100990003D872C878AE191E00E94DA0285E591E0AB
:1009A0000E94DA0288E191E00E94DA028C859D853E
:1009B0000E94EA02F70180810E949B0041E454E01A
:1009C000B701CE010E94E7034B015C018F859FEFC9
:1009D000980F923030F08650CC24CA94DC2C8330AF
:1009E00088F42C853D85AFEFB0E00E94EA0B2FEF35
:1009F0003FEF40E050E00E949E0B3D872C87CC24C7
:100A0000CA94D12C8AE191E00E94DA028AE691E050
:100A10000E94DA0288E191E00E94DA028C859D85CD
:100A20000E94EA028C859D8560E0009779F08C1524
:100A30009D0580F08AE191E00E94DA0283E891E06E
:100A40000E94DA02C6010E94EA0261E0F701808199
:100A50000E94B5011F85133009F43DC2F0F4123035
:100A600009F4F7C08AE191E00E94DA028EED93E08A
:100A70000E94DA02F70180810E948804D694C7940C
:100A80008C859D8560E08C159D0508F061E0F7017F
:100A900080810E94B50180E0C6C2143009F423C3EE
:100AA000183001F78AE191E00E94DA0280E393E0D6
:100AB0000E94DC021093B1001092B000A5019401D5
:100AC00060E074E284E799E40E946B0C0E94E40CFD
:100AD0009B01AC01A0EAB0E00E94BD0B4B015C01A0
:100AE0002AE030E040E050E00E94C80B69017A0142
:100AF0008AE191E00E94DA0289E493E00E94DA023E
:100B000088E191E00E94DA024AE060E074E284EF5A
:100B100090E00E94960288E191E00E94DA028CED5A
:100B200091E00E94DA0288E191E00E94DA02C701B6
:100B3000B6010E949604EFEFCE16D104E104F10451
:100B400011F008F0CCC381E0888BDA8AC98A8091E1
:100B5000B1009889892B8093B10089898093B30073
:100B600069897A8995E0660F771F9A95E1F790E099
:100B700080E00E94130D9B01AC0160E074E284E709
:100B80009BE40E946B0C6C837D838E839F838AE140
:100B900091E00E94DA028CE893E00E94DA0288E198
:100BA00091E00E94DA0288890E94810488E191E044
:100BB0000E94DA0284E392E00E94DA0288E191E086
:100BC0000E94DA0289899A890E94EA0229893A896F
:100BD000AC85BD850E94EA0B672F782F892F992756
:100BE0007D876C878AE191E00E94DA0282E492E0DC
:100BF0000E94DA0288E191E00E94DA028C859D85EC
:100C00000E94EA028091B00083628093B0008C85DC
:100C10008093B4008AE191E00E94DA0280EB93E0D5
:100C20000E94DA0288E191E00E94DA028091B0002D
:100C30000E94810488E191E00E94DA0283ED93E052
:100C40000E94DA0288E191E00E94DA028091B1000C
:100C5000CDC08AE191E00E94DA0289EA91E00E9427
:100C6000DC0288E085BD14BCA501940160E074E25B
:100C700084E799E40E946B0C0E94E40C9B01AC0198
:100C8000A0EAB0E00E94BD0B4B015C0124E130E022
:100C900040E050E00E94C80B69017A018AE191E0CE
:100CA0000E94DA0282EC91E00E94DA0288E191E08F
:100CB0000E94DA024AE060E074E284EF90E00E9471
:100CC000960288E191E00E94DA028CED91E00E94A8
:100CD000DA0288E191E00E94DA02C701B6010E94BF
:100CE0009604FFEFCF16D104E104F10411F008F0EF
:100CF00080C081E0888BDA8AC98A85B59889892B7A
:100D000085BD898987BD69897A8955E0660F771F16
:100D10005A95E1F790E080E00E94130D9B01AC0131
:100D200060E074E284E79BE40E946B0C6C837D833B
:100D30008E839F838AE191E00E94DA0280E192E053
:100D40000E94DA0288E191E00E94DA0288890E941A
:100D5000810488E191E00E94DA0284E392E00E943B
:100D6000DA0288E191E00E94DA0289899A890E9478
:100D7000EA0229893A89AC85BD850E94EA0B672F72
:100D8000782F892F99277D876C878AE191E00E94CF
:100D9000DA0282E492E00E94DA0288E191E00E94A5
:100DA000DA028C859D850E94EA0284B5836284BD47
:100DB0008C8588BD8AE191E00E94DA0289E692E0A2
:100DC0000E94DA0288E191E00E94DA0284B50E9472
:100DD000810488E191E00E94DA028CE892E00E94AE
:100DE000DA0288E191E00E94DA0285B50E94880467
:100DF00019C1C11488E0D806E104F10460F4188B2D
:100E0000C501B40120EA30E040E050E00E94C80B88
:100E10003A8B298B72CFC114E0E2DE06E104F104C3
:100E200048F483E0888BC501B40120E832E040E05B
:100E300050E0ECCFC114F0E4DF06E104F10448F423
:100E400084E0888BC501B40120E035E040E050E04B
:100E5000DDCFC11480E8D806E104F10448F485E050
:100E6000888BC501B40120E03AE040E050E0CECFED
:100E7000C114D104E1E0EE06F10448F486E0888B69
:100E8000C501B40120E034E140E050E0BFCFC1141F
:100E9000D104F4E0EF06F10448F487E0888BC50143
:100EA000B40120E030E540E050E0B0CF8AE191E0CD
:100EB0000E94DA0287EE91E00E94DA0260E074E2BA
:100EC00084E797E40E94D80387E0888B8FEF90E057
:100ED0009A8B898B12CF8AE191E00E94DA0287E92E
:100EE00092E00E94DC0280E18093810010928000F9
:100EF000A501940160E074E284E799E40E946B0C20
:100F00000E94E40C9B01AC01A0EAB0E00E94BD0B82
:100F10004B015C0124E130E040E050E00E94C80B4E
:100F200069017A018AE191E00E94DA0280EB92E0A5
:100F30000E94DA0288E191E00E94DA024AE060E071
:100F400074E284EF90E00E94960288E191E00E94B2
:100F5000DA028CED91E00E94DA0288E191E00E94D1
:100F6000DA02C701B6010E949604C114D10481E0DF
:100F7000E806F10408F063C081E0888BDA8AC98A48
:100F800089899A8990938700809386008091810057
:100F90009889892B8093810069897A89660F771FE8
:100FA00090E080E00E94130D9B01AC0160E074E2D0
:100FB00084E79BE40E946B0C6C837D838E839F830C
:100FC0008AE191E00E94DA0283EF92E00E94DA0265
:100FD00088E191E00E94DA0288890E94810488E118
:100FE00091E00E94DA0284E392E00E94DA0288E152
:100FF00091E00E94DA0289899A890E94EA0229898D
:101000003A89AC85BD850E94EA0B9D878C878091CB
:1010100080008068809380008C859D8590938900F6
:101020008093880081E0DF91CF911F91FF90EF9036
:10103000DF90CF90BF90AF909F908F900895C11494
:10104000D104E8E0EE06F10468F482E0888BC50183
:10105000B40120EA30E040E050E00E94C80B3A8B37
:10106000298B8ECFC114D104F0E4EF06F10440F4D3
:10107000188BC501B40120E035E040E050E0EDCF31
:10108000C114D104E10481E0F80648F484E0888BBF
:10109000C501B40120E034E140E050E0DECFC114EE
:1010A000D104E104E4E0FE0648F485E0888BC50144
:1010B000B40120E030E540E050E0CFCF8AE191E09C
:1010C0000E94DA028AEC92E00E94DA0260E074E2A6
:1010D00084E793E40E94D80385E0888B8FEF9FEF2D
:1010E0009A8B898B4DCF8AE191E00E94DA0287E1E9
:1010F00093E00E94DC0280E18093810010928000E6
:10110000A501940160E074E284E799E40E946B0C0D
:101110000E94E40C9B01AC01A0EAB0E00E94BD0B70
:101120004B015C0124E130E040E050E00E94C80B3C
:1011300069017A018AE191E00E94DA0280EB92E093
:101140000E94DA0288E191E00E94DA024AE060E05F
:1011500074E284EF90E00E94960288E191E00E94A0
:10116000DA028CED91E00E94DA0288E191E00E94BF
:10117000DA02C701B6010E949604C114D104F1E05D
:10118000EF06F10408F057C081E0888BDA8AC98A3B
:1011900089899A8990938700809386008091810045
:1011A0009889892B8093810069897A89660F771FD6
:1011B00090E080E00E94130D9B01AC0160E074E2BE
:1011C00084E79BE40E946B0C6C837D838E839F83FA
:1011D0008AE191E00E94DA0283EF92E00E94DA0253
:1011E00088E191E00E94DA0288890E94810488E106
:1011F00091E00E94DA0284E392E00E94DA0288E140
:1012000091E00E94DA0289899A890E94EA0229897A
:101210003A89AC85BD850E94EA0B9D878C878091B9
:1012200080008062809380008C859D8590938B00E8
:1012300080938A00F7CEC114D10488E0E806F10457
:1012400068F482E0888BC501B40120EA30E040E018
:1012500050E00E94C80B3A8B298B9ACFC114D1045D
:10126000E0E4EE06F10448F483E0888BC501B401A4
:1012700020E035E040E050E0ECCFC114D104E104BF
:10128000F1E0FF0640F4188BC501B40120E034E121
:1012900040E050E0DECFC114D104E10484E0F80660
:1012A00048F485E0888BC501B40120E030E540E0DA
:1012B00050E0CFCF8AE191E00E94DA028AEC92E01E
:1012C0000E94DA0260E074E284E793E40E94D803AB
:1012D00085E0888B8FEF9FEF9A8B898B59CFC11454
:1012E000F8E0DF06E104F10468F482E0888BC501D0
:1012F000B40120E530E040E050E00E94C80B3A8B9A
:10130000298B25CCC11480E2D806E104F10448F40D
:1013100083E0888BC501B40120E431E040E050E077
:10132000ECCFC114E0E4DE06E104F10448F484E00B
:10133000888BC501B40120E832E040E050E0DDCF09
:10134000C114F0E8DF06E104F10448F485E0888B7D
:10135000C501B40120E035E040E050E0CECFC1143B
:10136000D10481E0E806F10448F486E0888BC501E9
:10137000B40120E03AE040E050E0BFCFC114D10416
:10138000E4E0EE06F10448F487E0888BC501B4017F
:1013900020E038E240E050E0B0CF8AE191E00E94E6
:1013A000DA0283E693E00E94DA0260E074E284E706
:1013B00097E40E94D80387E0888B8FEF90E09A8BA8
:1013C000898BC5CB1F920F920FB60F9211242F93CA
:1013D0003F938F939F93AF93BF93809135049091E8
:1013E0003604A0913704B09138043091340423E0DE
:1013F000230F2D3758F50196A11DB11D20933404FC
:101400008093350490933604A0933704B093380446
:101410008091390490913A04A0913B04B0913C042E
:101420000196A11DB11D8093390490933A04A093B5
:101430003B04B0933C04BF91AF919F918F913F913A
:101440002F910F900FBE0F901F90189526E8230F35
:101450000296A11DB11DD2CF1F920F920FB60F920F
:1014600011242F933F934F935F936F937F938F93A9
:101470009F93AF93BF93EF93FF9385E494E00E9413
:10148000F700FF91EF91BF91AF919F918F917F9165
:101490006F915F914F913F912F910F900FBE0F90E1
:1014A0001F9018951F920F920FB60F9211242F9331
:1014B0008F939F93EF93FF93E0915504F09156041F
:1014C0008081E0915B04F0915C0482FD1BC09081FF
:1014D00080915E048F5F8F7320915F04821741F0CB
:1014E000E0915E04F0E0EB5BFB4F958F80935E0430
:1014F000FF91EF919F918F912F910F900FBE0F90C1
:101500001F9018958081F4CFCF93DF9300D000D047
:101510001F92CDB7DEB7789484B5826084BD84B560
:10152000816084BD85B5826085BD85B5816085BDDE
:1015300080916E00816080936E0010928100809196
:10154000810082608093810080918100816080931E
:101550008100809180008160809380008091B10043
:1015600084608093B1008091B00081608093B0006E
:1015700080917A00846080937A0080917A00826002
:1015800080937A0080917A00816080937A008091C4
:101590007A00806880937A001092C10087E790E01B
:1015A0000E9466018FEF93E00E94DC0288E690E0E3
:1015B0000E94660181E291E00E9489028AE0F82E91
:1015C000FD8280E090E4ACE9B6E489839A83AB8342
:1015D000BC8383E190E00E94420E8C01DC011496F2
:1015E0001D921D921D921C9217971E96FC921E979B
:1015F000E9E9F0E0E4911F96EC93AE014F5F5F4F95
:10160000BE016B5F7F4F0E94E703F80115861486C9
:101610008AE191E00E94DA028BE194E00E94DA0212
:1016200088E191E00E94DA02D8011C968D919C918C
:101630000E94EA028D810E949B0010933304009364
:101640003204C12CD12C98E4E92E93E4F92E812C9C
:10165000912C20EAA22E21E4B22E3AE0332E412C26
:10166000512C44EB642E42E4742E00E010E0C09252
:101670004104D0924204E0924304F09244048092E8
:101680003D0490923E04A0923F04B09240048091A9
:101690003204909133043982BE016F5F7F4F0E9404
:1016A000A5040E94260240923D0450923E0460929E
:1016B0003F04709240048091320490913304398247
:1016C000BE016F5F7F4F0E94A5040E942602011594
:1016D000110569F20E94A101882349F20E940000CD
:1016E000C6CFE5E4F4E01382128288EE93E0A0E036
:1016F000B0E084839583A683B7838AE091E09183E9
:10170000808385EC90E09587848784EC90E09787D0
:10171000868780EC90E0918B808B81EC90E0938BBE
:10172000828B82EC90E0958B848B86EC90E0978B9B
:10173000868B118E128E138E148E0895052E97FBB4
:101740001EF400940E94B50B57FD07D00E94C80BF1
:1017500007FC03D04EF40C94B50B50954095309592
:1017600021953F4F4F4F5F4F08959095809570950D
:1017700061957F4F8F4F9F4F08950E94EA0BA59F61
:10178000900DB49F900DA49F800D911D112408957C
:10179000A1E21A2EAA1BBB1BFD010DC0AA1FBB1F75
:1017A000EE1FFF1FA217B307E407F50720F0A21BE7
:1017B000B30BE40BF50B661F771F881F991F1A9454
:1017C00069F760957095809590959B01AC01BD017E
:1017D000CF010895A29FB001B39FC001A39F700DD8
:1017E000811D1124911DB29F700D811D1124911D29
:1017F00008955058BB27AA270E94110C0C948B0DFA
:101800000E947D0D38F00E94840D20F039F49F3F36
:1018100019F426F40C947A0D0EF4E095E7FB0C9481
:10182000740DE92F0E949C0D58F3BA1762077307D5
:101830008407950720F079F4A6F50C94BE0D0EF4FC
:10184000E0950B2EBA2FA02D0B01B90190010C01D0
:10185000CA01A0011124FF27591B99F0593F50F4E8
:10186000503E68F11A16F040A22F232F342F442740
:10187000585FF3CF469537952795A795F040539538
:10188000C9F77EF41F16BA0B620B730B840BBAF008
:101890009150A1F0FF0FBB1F661F771F881FC2F773
:1018A0000EC0BA0F621F731F841F48F48795779587
:1018B0006795B795F7959E3F08F0B0CF9395880F41
:1018C00008F09927EE0F9795879508950E94500D7F
:1018D00008F481E008950E947F0C0C948B0D0E9407
:1018E000840D58F00E947D0D40F029F45F3F29F0EF
:1018F0000C94740D51110C94BF0D0C947A0D0E9430
:101900009C0D68F39923B1F3552391F3951B550B67
:10191000BB27AA2762177307840738F09F5F5F4FC2
:10192000220F331F441FAA1FA9F335D00E2E3AF001
:10193000E0E832D091505040E695001CCAF72BD019
:10194000FE2F29D0660F771F881FBB1F261737076A
:101950004807AB07B0E809F0BB0B802DBF01FF279C
:1019600093585F4F3AF09E3F510578F00C94740DF8
:101970000C94BF0D5F3FE4F3983ED4F386957795C2
:101980006795B795F7959F5FC9F7880F911D969555
:10199000879597F90895E1E0660F771F881FBB1FB1
:1019A000621773078407BA0720F0621B730B840B5E
:1019B000BA0BEE1F88F7E09508950E94E40C689436
:1019C000B1110C94BF0D08950E94A40D88F09F578B
:1019D00098F0B92F9927B751B0F0E1F0660F771F53
:1019E000881F991F1AF0BA95C9F714C0B13091F049
:1019F0000E94BE0DB1E008950C94BE0D672F782FA4
:101A00008827B85F39F0B93FCCF38695779567950D
:101A1000B395D9F73EF490958095709561957F4F79
:101A20008F4F9F4F0895E89409C097FB3EF490951F
:101A30008095709561957F4F8F4F9F4F9923A9F0A7
:101A4000F92F96E9BB279395F69587957795679536
:101A5000B795F111F8CFFAF4BB0F11F460FF1BC07A
:101A60006F5F7F4F8F4F9F4F16C0882311F096E90D
:101A700011C0772321F09EE8872F762F05C06623BB
:101A800071F096E8862F70E060E02AF09A95660F74
:101A9000771F881FDAF7880F9695879597F908952D
:101AA000990F0008550FAA0BE0E8FEEF161617066F
:101AB000E807F907C0F012161306E407F50798F0D7
:101AC000621B730B840B950B39F40A2661F0232BF0
:101AD000242B252B21F408950A2609F4A140A6956C
:101AE0008FEF811D811D089597F99F6780E870E051
:101AF00060E008959FEF80EC089500240A94161684
:101B0000170618060906089500240A9412161306EB
:101B1000140605060895092E0394000C11F4882379
:101B200052F0BB0F40F4BF2B11F460FF04C06F5F95
:101B30007F4F8F4F9F4F089557FD9058440F551F6B
:101B400059F05F3F71F04795880F97FB991F61F03F
:101B50009F3F79F087950895121613061406551FB6
:101B6000F2CF4695F1DF08C0161617061806991F22
:101B7000F1CF86957105610508940895E894BB2717
:101B800066277727CB0197F908950E94500D08F436
:101B90008FEF08950E94DD0D0C948B0D0E947D0D3A
:101BA00038F00E94840D20F0952311F00C94740DF0
:101BB0000C947A0D11240C94BF0D0E949C0D70F3AF
:101BC000959FC1F3950F50E0551F629FF001729FE2
:101BD000BB27F00DB11D639FAA27F00DB11DAA1FF1
:101BE000649F6627B00DA11D661F829F2227B00D3E
:101BF000A11D621F739FB00DA11D621F839FA00DC9
:101C0000611D221F749F3327A00D611D231F849F18
:101C1000600D211D822F762F6A2F11249F5750406F
:101C20009AF0F1F088234AF0EE0FFF1FBB1F661FEA
:101C3000771F881F91505040A9F79E3F510580F0B3
:101C40000C94740D0C94BF0D5F3FE4F3983ED4F3F5
:101C5000869577956795B795F795E7959F5FC1F757
:101C6000FE2B880F911D9695879597F908950E94F0
:101C7000500D880B990B0895EE0FFF1F0590F491FE
:101C8000E02D09940F931F93CF93DF93823091053A
:101C900010F482E090E0E091E404F091E50430E09B
:101CA00020E0B0E0A0E0309799F42115310509F467
:101CB0004AC0281B390B24303105D8F58A819B8115
:101CC0006115710589F1FB0193838283FE0111C0C7
:101CD000408151810281138148175907E0F048176C
:101CE000590799F4109761F012960C931297139676
:101CF0001C933296CF01DF91CF911F910F910895E0
:101D00000093E4041093E504F4CF2115310551F05C
:101D10004217530738F0A901DB019A01BD01DF0129
:101D2000F801C1CFEF01F9CF9093E5048093E4046B
:101D3000CDCFFE01E20FF31F819391932250310921
:101D400039832883D7CF2091E2043091E304232BF9
:101D500041F420910201309103013093E304209378
:101D6000E20420910001309101012115310541F477
:101D70002DB73EB74091040150910501241B350B4E
:101D8000E091E204F091E304E217F307A0F42E1BC4
:101D90003F0B2817390778F0AC014E5F5F4F2417CF
:101DA000350748F04E0F5F1F5093E3044093E20461
:101DB000819391939FCFF0E0E0E09CCFCF93DF93AE
:101DC0000097E9F0FC01329713821282A091E4049B
:101DD000B091E504ED0130E020E01097A1F42081FE
:101DE0003181820F931F2091E2043091E304281780
:101DF000390709F061C0F093E304E093E204DF9156
:101E0000CF910895EA01CE17DF07E8F54A815B819B
:101E10009E0141155105B1F7E901FB83EA83499120
:101E20005991C40FD51FEC17FD0761F48081918192
:101E30000296840F951FE90199838883828193819B
:101E40009B838A83F0E0E0E012968D919C9113973A
:101E50000097B9F52D913C911197CD010296820F13
:101E6000931F2091E2043091E3042817390739F6D3
:101E7000309751F51092E5041092E404B093E30416
:101E8000A093E204BCCFD383C28340815181840FED
:101E9000951FC817D90761F44E5F5F4F88819981FC
:101EA000480F591F518340838A819B81938382838A
:101EB0002115310509F0B0CFF093E504E093E40477
:101EC0009ECFFD01DC01C0CF13821282D7CFF894E0
:101ED000FFCF0000E60480000000000019015C0252
:101EE000BA008101EB00C900DD0020005B50574DB6
:101EF0005D20000D0A006E616E00696E66006F76EF
:101F000066004156525F50574D3A546F6F206C6FC8
:101F100077206672657175656E6379203D002C20AF
:101F20006D696E203D200073657450574D3A205FF7
:101F3000647574796379636C65203D0073657450D2
:101F4000574D5F496E743A205F64757479637963A5
:101F50006C65203D004572726F722C206578636558
:101F600065646564205F647574796379636C652C5E
:101F700020726573657420746F2000736574505708
:101F80004D5F496E743A7573696E672054494D45CB
:101F900052304200736574506572696F645F5469B2
:101FA0006D6572303A20465F435055203D002C202D
:101FB0006379636C6573203D007365745065726965
:101FC0006F645F54696D6572303A204572726F724A
:101FD0002C206D696E20667265712028487A292050
:101FE0003D00736574506572696F645F54696D6517
:101FF00072303A20636C6F636B53656C6563744237
:10200000697473203D002C2070776D506572696F84
:1020100064203D0073657450574D5F496E743A7586
:1020200073696E672054494D455232422C205F64DB
:102030007574796379636C65203D007365745057DE
:102040004D5F496E743A7573696E672054494D450A
:102050005230422C20544343523041203D002C202A
:10206000544343523042203D0073657450574D5FD6
:10207000496E743A7573696E672054494D45523103
:102080004100736574506572696F645F54696D6572
:1020900072313A20465F435055203D0073657450BD
:1020A0006572696F645F54696D6572313A2045727B
:1020B000726F722C206D696E2066726571202848DF
:1020C0007A29203D00736574506572696F645F54AE
:1020D000696D6572313A20636C6F636B53656C6533
:1020E000637442697473203D0073657450574D5F8B
:1020F000496E743A7573696E672054494D45523183
:10210000420073657450574D5F496E743A75736938
:102110006E672054494D45523242007365745065D4
:1021200072696F645F54696D6572323A20465F432D
:102130005055203D00736574506572696F645F543B
:10214000696D6572323A204572726F722C206D692A
:102150006E20667265712028487A29203D007365DB
:1021600074506572696F645F54696D6572323A20AC
:10217000636C6F636B53656C656374426974732041
:102180003D0073657450574D5F496E743A757369BD
:102190006E672054494D455232422C2054434352DD
:1021A0003241203D002C20544343523242203D0016
:1021B0004572726F722C206E6F7420757361626C41
:1021C0006520666F722050574D2C2070696E203D3F
:1021D0000041726475696E6F2041565220554E4F12
:1021E0002C204E616E6F2C206574632E0041565278
:1021F0005F50574D3A205F647574796379636C65FD
:04220000203D00007D
:107E0000112484B714BE81FFF0D085E080938100F7
:107E100082E08093C00088E18093C10086E0809377
:107E2000C20080E18093C4008EE0C9D0259A86E02C
:107E300020E33CEF91E0309385002093840096BBD3
:107E4000B09BFECF1D9AA8958150A9F7CC24DD24C4
:107E500088248394B5E0AB2EA1E19A2EF3E0BF2EE7
:107E6000A2D0813461F49FD0082FAFD0023811F036
:107E7000013811F484E001C083E08DD089C08234E0
:107E800011F484E103C0853419F485E0A6D080C0E4
:107E9000853579F488D0E82EFF2485D0082F10E0AE
:107EA000102F00270E291F29000F111F8ED06801E7
:107EB0006FC0863521F484E090D080E0DECF843638
:107EC00009F040C070D06FD0082F6DD080E0C81688
:107ED00080E7D80618F4F601B7BEE895C0E0D1E017
:107EE00062D089930C17E1F7F0E0CF16F0E7DF06D8
:107EF00018F0F601B7BEE89568D007B600FCFDCFD4
:107F0000A601A0E0B1E02C9130E011968C91119780
:107F100090E0982F8827822B932B1296FA010C0160
:107F200087BEE89511244E5F5F4FF1E0A038BF0790
:107F300051F7F601A7BEE89507B600FCFDCF97BE46
:107F4000E89526C08437B1F42ED02DD0F82E2BD052
:107F50003CD0F601EF2C8F010F5F1F4F84911BD097
:107F6000EA94F801C1F70894C11CD11CFA94CF0C13
:107F7000D11C0EC0853739F428D08EE10CD085E9AC
:107F80000AD08FE07ACF813511F488E018D01DD067
:107F900080E101D065CF982F8091C00085FFFCCF94
:107FA0009093C60008958091C00087FFFCCF809118
:107FB000C00084FD01C0A8958091C6000895E0E648
:107FC000F0E098E1908380830895EDDF803219F02E
:107FD00088E0F5DFFFCF84E1DECF1F93182FE3DFCA
:107FE0001150E9F7F2DF1F91089580E0E8DFEE27F6
:047FF000FF270994CA
:027FFE00040479
:00000001FF
