:020000040000FA
:100000000C945D000C947A000C947A000C947A00A5
:100010000C947A000C947A000C947A000C94E20010
:100020000C947A000C947A000C947A000C947A0068
:100030000C947A000C947A000C947A000C947A0058
:100040000C9498000C947A000C947A000C947A002A
:100050000C947A000C947A000C947A000C947A0038
:100060000C947A000C947A00000000080002010051
:100070000003040700000000000000000200000070
:1000800000250028002B0000000000240027002A83
:100090000004040404040404040202020202020331
:1000A000030303030301020408102040800102043B
:1000B0000810200102040810200011241FBECFEFF9
:1000C000D8E0DEBFCDBF11E0A0E0B1E0ECEAF5E0A2
:1000D00002C005900D92A230B107D9F721E0A2E04D
:1000E000B1E001C01D92AC31B207E1F70E94A50159
:1000F0000C94D4020C940000EEEAF0E02491EAE9BA
:10010000F0E08491882399F090E0880F991FFC011A
:10011000E957FF4FA591B491FC01E358FF4F85913A
:1001200094918FB7F894EC91E22BEC938FBF0895E4
:100130001F920F920FB60F9211242F933F938F931C
:100140009F93AF93BF938091180190911901A09153
:100150001A01B0911B013091170123E0230F2D37B5
:1001600058F50196A11DB11D209317018093180128
:1001700090931901A0931A01B0931B018091130170
:1001800090911401A0911501B09116010196A11D45
:10019000B11D8093130190931401A0931501B093A6
:1001A0001601BF91AF919F918F913F912F910F9029
:1001B0000FBE0F901F90189526E8230F0296A11DE1
:1001C000B11DD2CF1F920F920FB60F9211242F9311
:1001D0003F938F939F93AF93BF93EF93FF93809140
:1001E000070190910801A0910901B0910A01892BA2
:1001F0008A2B8B2BB1F190910201E0910301F091D8
:1002000004018081892780838091070190910801F2
:10021000A0910901B0910A01181619061A061B06C9
:100220009CF48091070190910801A0910901B0917F
:100230000A010197A109B109809307019093080170
:10024000A0930901B0930A01FF91EF91BF91AF9183
:100250009F918F913F912F910F900FBE0F901F9004
:10026000189580910001ECE7F0E0E4919FEF909306
:100270000001E13009F431C068F1E23009F433C023
:1002800090E0FC01E859FF4F2491FC01EB55FF4F32
:100290003491FC01EF56FF4FE491EE23A9F22223A3
:1002A00051F0233009F43AC078F5213009F43CC00C
:1002B000223009F43DC0F0E0EE0FFF1FE358FF4F7E
:1002C000A591B4918FB7F894EC9130953E233C936F
:1002D0008FBFBACF10926E00D3CF90916F009D7FE9
:1002E00090936F00CDCF909170009D7F90937000A0
:1002F00091E09093B0009091B100987F94609093BA
:10030000B1001092B300BCCF2730A9F02830C9F05B
:10031000243089F6809180008F7D03C08091800019
:100320008F7780938000C7CF84B58F7784BDC3CF8C
:1003300084B58F7DFBCF8091B0008F778093B00024
:10034000BACF8091B0008F7DF9CF789484B5826068
:1003500084BD84B5816084BD85B5826085BD85B569
:10036000816085BD80916E00816080936E001092E7
:100370008100809181008260809381008091810062
:1003800081608093810080918000816080938000F3
:100390008091B10084608093B1008091B000816051
:1003A0008093B00080917A00846080937A0080917D
:1003B0007A00826080937A0080917A0081608093D5
:1003C0007A0080917A00806880937A001092C10050
:1003D0000E947C003FECC32E32E0D32E4CE7E42E8B
:1003E00040E0F42E5AE9452E50E0552E0EEA10E07A
:1003F00060E0662E60E0762E88248A94982C540162
:10040000D9E0809100018930B1F4F701C491C7FDB2
:1004100089C00E947C00CC2309F43BC0C23009F49F
:10042000AAC0C13009F467C0C23009F4BBC0C11111
:1004300079C08FEC33C08F3F09F074C0D0930001B6
:10044000F701C491CF3F09F46DC0C13009F435C044
:1004500040F0C23009F46DC0C7FD64C00E947C004A
:10046000DDCF14BC15BC84B5826084BD85B58160C8
:1004700085BDF2018491E82FF0E0EE0FFF1FE358F5
:10048000FF4F85919491F8018491809306010E9419
:100490007C0085B5887F826085BD89E587BD8092B7
:1004A0000F0190921001A0921101B092120180915F
:1004B0006E00826080936E0035C0109280001092B2
:1004C000810080918100886080938100809181000B
:1004D000816080938100F2018491E82FF0E0EE0FBB
:1004E000FF1FE358FF4F85919491F8018491809309
:1004F00005010E947C0080918100887F816080934B
:100500008100D0928900C092880080920B01909265
:100510000C01A0920D01B0920E0180916F008260DB
:1005200080936F006114710409F46BCF0E94000086
:1005300067CF1092B0001092B1008091B00082603D
:100540008093B0008091B10081608093B100F2018E
:100550008491E82FF0E0EE0FFF1FE358FF4F8591E5
:1005600094919093040180930301F8018491809306
:1005700002010E947C008091B100887F826080939C
:10058000B10089E58093B300809207019092080141
:10059000A0920901B0920A0180917000826080935C
:0E05A0007000C0CF8FECEECFF894FFCFFF00BD
:107E0000112484B714BE81FFF0D085E080938100F7
:107E100082E08093C00088E18093C10086E0809377
:107E2000C20080E18093C4008EE0C9D0259A86E02C
:107E300020E33CEF91E0309385002093840096BBD3
:107E4000B09BFECF1D9AA8958150A9F7CC24DD24C4
:107E500088248394B5E0AB2EA1E19A2EF3E0BF2EE7
:107E6000A2D0813461F49FD0082FAFD0023811F036
:107E7000013811F484E001C083E08DD089C08234E0
:107E800011F484E103C0853419F485E0A6D080C0E4
:107E9000853579F488D0E82EFF2485D0082F10E0AE
:107EA000102F00270E291F29000F111F8ED06801E7
:107EB0006FC0863521F484E090D080E0DECF843638
:107EC00009F040C070D06FD0082F6DD080E0C81688
:107ED00080E7D80618F4F601B7BEE895C0E0D1E017
:107EE00062D089930C17E1F7F0E0CF16F0E7DF06D8
:107EF00018F0F601B7BEE89568D007B600FCFDCFD4
:107F0000A601A0E0B1E02C9130E011968C91119780
:107F100090E0982F8827822B932B1296FA010C0160
:107F200087BEE89511244E5F5F4FF1E0A038BF0790
:107F300051F7F601A7BEE89507B600FCFDCF97BE46
:107F4000E89526C08437B1F42ED02DD0F82E2BD052
:107F50003CD0F601EF2C8F010F5F1F4F84911BD097
:107F6000EA94F801C1F70894C11CD11CFA94CF0C13
:107F7000D11C0EC0853739F428D08EE10CD085E9AC
:107F80000AD08FE07ACF813511F488E018D01DD067
:107F900080E101D065CF982F8091C00085FFFCCF94
:107FA0009093C60008958091C00087FFFCCF809118
:107FB000C00084FD01C0A8958091C6000895E0E648
:107FC000F0E098E1908380830895EDDF803219F02E
:107FD00088E0F5DFFFCF84E1DECF1F93182FE3DFCA
:107FE0001150E9F7F2DF1F91089580E0E8DFEE27F6
:047FF000FF270994CA
:027FFE00040479
:00000001FF
