:020000040000FA
:100000000C9472000C949A000C949A000C949A0030
:100010000C949A000C949A000C949A000C949A00F8
:100020000C949A000C949A000C949A000C949A00E8
:100030000C949A000C949A000C949A000C949A00D8
:100040000C948F040C949A000C945D040C94370467
:100050000C949A000C949A000C949A000C949A00B8
:100060000C949A000C949A004156525F50574D20C0
:1000700076312E322E30000A5374617274696E67C5
:100080002050574D5F57617665666F726D206F6EB9
:10009000200000000000250028002B0000000000C8
:1000A000240027002A0004040404040404040202B7
:1000B00002020202030303030303010204081020E7
:1000C00040800102040810200102040810200000F2
:1000D0000008000201000003040700000000000007
:1000E0000000D90411241FBECFEFD8E0DEBFCDBF82
:1000F00013E0A0E0B1E0EAE3FDE102C005900D925B
:10010000A032B107D9F723E0A0E2B3E001C01D920D
:10011000A23DB207E1F710E0C2E7D0E004C02197AA
:10012000FE010E94700DC137D107C9F70E94060574
:100130000C949B0E0C94000090E0FC01E654FF4FE1
:1001400024918A559F4FFC018491882399F090E077
:10015000880F991FFC01E456FF4FA591B491FC0153
:10016000EE56FF4F859194918FB7F894EC91E22B66
:10017000EC938FBF0895AF92BF92CF92DF92EF9230
:10018000FF920F931F93CF93DF936C017B018B0141
:10019000040F151FEB015E01AE18BF08C017D10791
:1001A00059F06991D601ED91FC910190F081E02D1B
:1001B000C6010995892B79F7C501DF91CF911F9170
:1001C0000F91FF90EF90DF90CF90BF90AF90089588
:1001D000FC01538D448D252F30E0842F90E0821B4D
:1001E000930B541710F0CF96089501970895FC01D2
:1001F000918D828D981761F0A28DAE0FBF2FB11D2A
:100200005D968C91928D9F5F9F73928F90E0089581
:100210008FEF9FEF0895FC01918D828D981731F03B
:10022000828DE80FF11D858D90E008958FEF9FEF8F
:100230000895FC01918D228D892F90E0805C9F4F65
:10024000821B91098F739927089581E393E00E949F
:10025000190121E0892B09F420E0822F089580E024
:1002600090E0892B29F00E94250181110C94000057
:100270000895FC01A48DA80FB92FB11DA35ABF4F3B
:100280002C91848D90E001968F739927848FA68995
:10029000B7892C93A089B1898C91837080648C93E9
:1002A000938D848D981306C00288F389E02D808198
:1002B0008F7D80830895EF92FF920F931F93CF93CA
:1002C000DF93EC0181E0888F9B8D8C8D98131AC091
:1002D000E889F989808185FF15C09FB7F894EE8978
:1002E000FF896083E889F9898081837080648083D5
:1002F0009FBF81E090E0DF91CF911F910F91FF9020
:10030000EF900895F62E0B8D10E00F5F1F4F0F73C7
:100310001127E02E8C8D8E110CC00FB607FCFACF82
:10032000E889F989808185FFF5CFCE010E943901E6
:10033000F1CFEB8DEC0FFD2FF11DE35AFF4FF08253
:100340009FB7F8940B8FEA89FB8980818062CFCFB9
:100350000F931F93CF93DF938C01D0E0C0E0F8019F
:10036000EC0FFD1F6491662341F081E393E00E944E
:100370005B01892B11F02196F2CFCE01DF91CF9155
:100380001F910F910895CF93DF93EC01888D8823FF
:10039000B9F0AA89BB89E889F9898C9185FD03C0E8
:1003A000808186FD0DC00FB607FCF7CF8C9185FFCD
:1003B000F2CF808185FFEDCFCE010E943901E9CFD8
:1003C000DF91CF91089590E0FC01E253FF4F24911B
:1003D000FC01E654FF4F3491FC01EA55FF4FE491D4
:1003E000EE23C9F0222339F0233001F1A8F42130A3
:1003F00019F1223029F1F0E0EE0FFF1FEE56FF4F0A
:10040000A591B4918FB7F894EC91611126C0309505
:100410003E233C938FBF08952730A9F02830C9F0C0
:10042000243049F7809180008F7D03C08091800047
:100430008F7780938000DFCF84B58F7784BDDBCF4B
:1004400084B58F7DFBCF8091B0008F778093B00013
:10045000D2CF8091B0008F7DF9CF3E2BDACF3FB75E
:10046000F8948091210390912203A0912303B091ED
:10047000240326B5A89B05C02F3F19F00196A11DA6
:10048000B11D3FBFBA2FA92F982F8827BC01CD01DE
:10049000620F711D811D911D42E0660F771F881F3D
:1004A000991F4A95D1F70895FC0101900020E9F7C2
:1004B0003197AF01481B590BBC0181E393E00C94C9
:1004C000BB008F929F92AF92BF920F931F93CF93D7
:1004D000DF93CDB7DEB7A1970FB6F894DEBF0FBE9E
:1004E000CDBF19A2423008F44AE08E010F5D1F4FC4
:1004F000842E912CB12CA12CA50194010E94EF0A0D
:10050000E62FB901CA01EA30F4F4E05DD801EE93B8
:100510008D01232B242B252B79F790E080E0109779
:1005200019F0CD010E945402A1960FB6F894DEBFD7
:100530000FBECDBFDF91CF911F910F91BF90AF90B4
:100540009F908F900895E95CE1CF0C945402CF9373
:10055000DF930E945402EC0184EC91E00E9454026B
:100560008C0F9D1FDF91CF9108954F925F926F92F4
:100570007F928F929F92AF92BF92CF92DF92EF9233
:10058000FF920F931F93CF936B017C01742EAC01EC
:100590009B010E94570D882399F087EC91E0CF9141
:1005A0001F910F91FF90EF90DF90CF90BF90AF9091
:1005B0009F908F907F906F905F904F900C9454021B
:1005C00046015701E894B7F82FEF3FEF4FE75FE799
:1005D000C501B4010E94570D81110DC02FEF3FEFEF
:1005E0004FE75FE7C501B4010E948D0B18161CF49C
:1005F0008BEC91E0D4CF2FEF3FEF4FE75FE4C701E3
:10060000B6010E94E50C18161CF48FEC91E0C7CFE0
:100610002FEF3FEF4FE75FECC701B6010E948D0B54
:1006200087FDF3CF20E030E0A901C701B6010E94A9
:100630008D0B10E000E087FF0AC06DE281E393E0DC
:100640000E945B018C01F7FAF094F7F8F094C0E097
:1006500060E070E080E09FE37C1641F020E030E055
:1006600040E251E40E94920BCF5FF6CFA7019601C2
:100670000E94210B2B013C010E94040C4B015C01E8
:100680004AE00E9461027C01E00EF11ECC23C1F120
:10069000C501B4010E94330C9B01AC01C301B2013E
:1006A0000E94200B4B015C016EE281E393E00E940B
:1006B0005B01E80EF91EC15018F120E030E040E285
:1006C00051E4C501B4010E94EA0C2B013C010E94D7
:1006D000040C4B01B12CA12C4AE0C501B4010E94CD
:1006E0006102E80EF91EC501B4010E94330C9B01A2
:1006F000AC01C301B2010E94200B4B015C01DBCFB6
:10070000C701CF911F910F91FF90EF90DF90CF9095
:10071000BF90AF909F908F907F906F905F904F9021
:100720000895CF93DF930E94B502EC0184EC91E031
:100730000E9454028C0F9D1FDF91CF910895CF939B
:10074000DF93EC01FB0160912D0370912E038091EA
:100750002F0390913003688779878A879B87E08190
:10076000F0E0E253FF4FE491EF872FEF2E0F22309E
:1007700020F0E650E33008F042C020E034E244E7E5
:1007800057E40E948D0B87FF33C089E691E00E94F9
:10079000A50283ED91E00E94A50287E691E00E9408
:1007A000A50260912D0370912E0380912F039091EB
:1007B000300342E00E94B50287E691E00E94A50264
:1007C0008FEE91E00E94A50287E691E00E94A502CB
:1007D00042E050E060E074E284E797E40E94910315
:1007E00080E094E2A4E7B7E488879987AA87BB876B
:1007F000688579858A859B85DF91CF91089520E072
:1008000034E244E753E40E948D0B87FFF1CF89E681
:1008100091E00E94A50283ED91E00E94A50287E687
:1008200091E00E94A50260912D0370912E038091AA
:100830002F039091300342E00E94B50287E691E0D9
:100840000E94A5028FEE91E00E94A50287E691E04A
:100850000E94A50242E050E060E074E284E793E485
:100860000E94910380E094E2A4E7B3E4BDCF1F921D
:100870000F920FB60F9211242F933F934F935F93D4
:100880006F937F938F939F93AF93BF93EF93FF9358
:1008900081E393E00E943901FF91EF91BF91AF9105
:1008A0009F918F917F916F915F914F913F912F9188
:1008B0000F900FBE0F901F9018951F920F920FB6BA
:1008C0000F9211242F938F939F93EF93FF93E091B7
:1008D0004103F09142038081E0914703F091480386
:1008E00082FD1BC0908180914A038F5F8F7320919E
:1008F0004B03821741F0E0914A03F0E0EF5CFC4FBC
:10090000958F80934A03FF91EF919F918F912F9143
:100910000F900FBE0F901F9018958081F4CF1F92FB
:100920000F920FB60F9211242F933F938F939F93A3
:10093000AF93BF938091250390912603A091270345
:10094000B09128033091200323E0230F2D3758F571
:100950000196A11DB11D2093200380932503909340
:100960002603A0932703B09328038091210390913D
:100970002203A0912303B09124030196A11DB11D70
:100980008093210390932203A0932303B093240325
:10099000BF91AF919F918F913F912F910F900FBE7B
:1009A0000F901F90189526E8230F0296A11DB11DE8
:1009B000D2CFE1E3F3E01382128288EE93E0A0E06D
:1009C000B0E084839583A683B78384E791E0918325
:1009D000808385EC90E09587848784EC90E097870E
:1009E000868780EC90E0918B808B81EC90E0938BFC
:1009F000828B82EC90E0958B848B86EC90E0978BD9
:100A0000868B118E128E138E148E0895CF93DF93E2
:100A10001F92CDB7DEB7789484B5826084BD84B56B
:100A2000816084BD85B5826085BD85B5816085BDE9
:100A300080916E00816080936E00109281008091A1
:100A40008100826080938100809181008160809329
:100A50008100809180008160809380008091B1004E
:100A600084608093B1008091B00081608093B00079
:100A700080917A00846080937A0080917A0082600D
:100A800080937A0080917A00816080937A008091CF
:100A90007A00806880937A001092C100E09141034F
:100AA000F091420382E08083E0913D03F0913E03A8
:100AB0001082E0913F03F091400380E18083109227
:100AC0004903E0914503F091460386E08083E0917D
:100AD0004303F0914403808180618083E09143036C
:100AE000F0914403808188608083E0914303F0911A
:100AF0004403808180688083E0914303F091440344
:100B000080818F7D80830E942F024B015C0134E63F
:100B1000C32ED12CE12CF12C0E942F0268197909E7
:100B20008A099B09683E734081059105A8F321E07D
:100B3000C21AD108E108F10888EE880E83E0981EF9
:100B4000A11CB11CC114D104E104F10429F787E709
:100B500090E00E94A80188EF91E00E94A70288E639
:100B600090E00E94A80184EC91E00E94540280E091
:100B700090E4ACE1B6E480932D0390932E03A09310
:100B80002F03B09330032AE0F22EF98283E190E044
:100B90000E94760D8C01FC01148215821682178248
:100BA000F686E8EDF0E0E491DC011F96EC93BE01DF
:100BB0006F5F7F4F0E949F03F8011586148689811D
:100BC0000E949C0010932C0300932B030115110528
:100BD00009F4A4C1F982D8011D961C921E921C979B
:100BE0008AE00E949C00BE016F5F7F4FC8010E9497
:100BF0009F034B015C01F80187859FEF980F9230AE
:100C000020F08650833008F062C0D8011C962D91E8
:100C10003C91AFEFB0E00E94110B2FEF3FEF40E0AF
:100C200050E00E94C50AF80135872487CC24CA9475
:100C3000D12CD8011C968D919C9160E00097B1F069
:100C40008C159D05B0F089E691E00E94A50284E133
:100C500092E00E94A502B60190E080E04AE00E9486
:100C6000610284EC91E00E94540261E089810E945B
:100C7000E301F801F784F3E0FF1609F471C2FF15F0
:100C800050F122E0F21609F495C089E691E00E9445
:100C9000A50285EB92E00E94A502698170E090E0D8
:100CA00080E04AE00E94610284EC91E00E945402DC
:100CB000D694C794D8011C968D919C9160E08C15B8
:100CC0009D0508F061E089810E94E301CFC0CC243A
:100CD000CA94DC2CAECF84E0F81609F402C3A8E075
:100CE000FA12D3CFF092B1001092B000A501940196
:100CF00060E074E284E799E40E94920B0E94040C85
:100D00009B01AC01A0EAB0E00E94E40A6B017C0107
:100D10002AE030E040E050E00E94EF0A2F3F31052A
:100D20004105510511F008F09DC381E0D8015096AE
:100D30008C93509752963C932E9351978091B1008B
:100D4000D80150969C915097892B8093B100519671
:100D50008C9151978093B3005196ED90FC90B70120
:100D600045E0660F771F4A95E1F790E080E00E942A
:100D7000330C9B01AC0160E074E284E79BE40E94C9
:100D8000920BF8016483758386839783A485B58568
:100D900097010E94110B672F782F892F992775874C
:100DA00064878091B00083628093B00084858093D3
:100DB000B4005CC088E085BD14BCA501940160E06E
:100DC00074E284E799E40E94920B0E94040C9B0158
:100DD000AC01A0EAB0E00E94E40A4B015C0124E10E
:100DE00030E040E050E00E94EF0A2F3F310541051E
:100DF000510511F008F031C181E0F801808B328B90
:100E0000218B85B5F8019089892B85BD818987BDA6
:100E1000E188F288B701A5E0660F771FAA95E1F790
:100E200090E080E00E94330C9B01AC0160E074E232
:100E300084E79BE40E94920BD80114966D937D93F6
:100E40008D939C9317971C960D90BC91A02D9701A4
:100E50000E94110B672F782F892F9927F80175872A
:100E6000648784B5836284BD848588BD00912B032B
:100E700010912C0380E091E00E94A70286ED92E0A1
:100E80000E94A502F801668570E090E080E04AE0EB
:100E90000E9461028AEE92E00E94A502D8011C968F
:100EA0006D917C9190E080E00E94330C20E030E076
:100EB00048EC52E40E94EA0C6B017C01F801618964
:100EC000728990E080E00E94330C9B01AC01C70165
:100ED000B6010E94920B42E00E94B5028DEF92E0B3
:100EE0000E94A502D80151966D917C9190E080E01E
:100EF0000E94330C42E00E94B5028CE093E00E9415
:100F0000A502F801608571858285938544E050E0F3
:100F10000E94910380E091E00E94A70291E2A92E35
:100F2000B12C20E0C22E20E0D22E2FB7F894809171
:100F3000250390912603A0912703B09128032FBF8A
:100F400040915D0150915E0160915F01709160017F
:100F5000481759076A077B0708F073C000912B03F5
:100F600010912C03D8011E968C911E978A3009F09F
:100F700046C05196ED90FC90E0912903F0912A0330
:100F8000EE0FFF1FEE57FE4F6081718190E080E011
:100F90000E94330C2B013C01B70190E080E00E94DD
:100FA000330C9B01AC01C301B2010E94EA0C20E0AA
:100FB00030E04AEF55E40E94920B0E94040CE616C2
:100FC000F706E8F0F8012785233009F4D4C208F0C9
:100FD000C3C2223009F4C8C289E691E00E94A5028A
:100FE00085EB92E00E94A5024AE06AE070E080E0B2
:100FF00090E00E94610284EC91E00E945402809192
:10100000290390912A030196B5010E945C0D9093EB
:101010002A03809329032FB7F89480912503909198
:101020002603A0912703B09128032FBFC296A11DCC
:10103000B11D80935D0190935E01A0935F01B09319
:101040006001C114D10409F470CF0E9425018823E6
:1010500009F46BCF0E94000068CF2115F8E03F072C
:101060004105510568F4D8015096FC92C501B401C0
:1010700020EA30E040E050E00E94EF0AF801BFCEE5
:101080002115F0E23F074105510558F483E0D801EE
:1010900050968C93C501B40120E832E040E050E066
:1010A000EBCF2115F0E43F074105510558F484E0EA
:1010B000D80150968C93C501B40120E035E040E0A2
:1010C00050E0DACF2115F0E83F074105510558F40B
:1010D00085E0D80150968C93C501B40120E03AE038
:1010E00040E050E0C9CF21153105F1E04F0751052F
:1010F00058F486E0D80150968C93C501B40120E0E5
:1011000034E140E050E0B8CF2115310544405105AD
:1011100058F487E0D80150968C93C501B40120E0C3
:1011200030E540E050E0A8CF89E691E00E94A502BA
:101130008AE392E00E94A50242E050E060E074E29F
:1011400084E797E40E94910387E0D80150968C933E
:1011500050978FEF90E052969C938E93519751CE7B
:1011600080E18093810010928000A501940160E0ED
:1011700074E284E799E40E94920B0E94040C9B01A4
:10118000AC01A0EAB0E00E94E40A4B015C0124E15A
:1011900030E040E050E00E94EF0A21153105F1E017
:1011A0004F07510508F044C081E0D80150968C9358
:1011B000509752963C932E935197D80151968D910A
:1011C0009C91529790938700809386008091810034
:1011D00050969C915097892B809381005196ED9069
:1011E000FC90B701660F771F90E080E00E94330CFF
:1011F0009B01AC0160E074E284E79BE40E94920BE7
:10120000F8016483758386839783A485B5859701E8
:101210000E94110B9587848780918000806880935D
:1012200080008485958590938900809388001ECEE8
:1012300021153105B8E04B07510568F482E0F8014B
:10124000808BC501B40120EA30E040E050E00E940C
:10125000EF0AD801AECF21153105B0E44B07510597
:1012600048F4F801F08AC501B40120E035E040E01F
:1012700050E0EDCF211531054105B1E05B0750F499
:1012800084E0F801808BC501B40120E034E140E046
:1012900050E0DDCF211531054105544050F485E083
:1012A000F801808BC501B40120E030E540E050E05A
:1012B000CECF89E691E00E94A50283E692E00E94EB
:1012C000A50242E050E060E074E284E793E40E940B
:1012D000910385E0F801808B8FEF9FEF928B818BDC
:1012E0006CCF80E18093810010928000A501940171
:1012F00060E074E284E799E40E94920B0E94040C7F
:101300009B01AC01A0EAB0E00E94E40A4B015C0141
:1013100024E130E040E050E00E94EF0A2115310561
:10132000F1E04F07510508F044C081E0D801509624
:101330008C93509752963C932E935197D801519687
:101340008D919C9152979093870080938600809115
:10135000810050969C915097892B809381005196E3
:10136000ED90FC90B701660F771F90E080E00E943F
:10137000330C9B01AC0160E074E284E79BE40E94C3
:10138000920BF8016483758386839783A485B58562
:1013900097010E94110B958784878091800080625D
:1013A000809380008485958590938B0080938A003C
:1013B0005DCD21153105B8E04B07510568F482E099
:1013C000F801808BC501B40120EA30E040E050E034
:1013D0000E94EF0AD801AECF21153105B0E44B07CA
:1013E000510550F483E0F801808BC501B40120E081
:1013F00035E040E050E0ECCF211531054105B1E08A
:101400005B0748F4F801F08AC501B40120E034E13B
:1014100040E050E0DDCF211531054105544050F446
:1014200085E0F801808BC501B40120E030E540E0A3
:1014300050E0CECF89E691E00E94A50283E692E0DB
:101440000E94A50242E050E060E074E284E793E489
:101450000E94910385E0F801808B8FEF9FEF928BC4
:10146000818B6CCF2115B8E03B074105510568F42D
:1014700082E0F801808BC701B60120E530E040E052
:1014800050E00E94EF0AD80155CC2115B0E23B078D
:101490004105510550F483E0F801808BC701B60186
:1014A00020E431E040E050E0ECCF2115B0E43B0710
:1014B0004105510550F484E0F801808BC701B60165
:1014C00020E832E040E050E0DCCF2115B0E83B07F7
:1014D0004105510550F485E0F801808BC701B60144
:1014E00020E035E040E050E0CCCF21153105B1E0FF
:1014F0004B07510550F486E0F801808BC701B60117
:1015000020E03AE040E050E0BCCF211531054440F6
:10151000510550F487E0F801808BC701B60120E047
:1015200038E240E050E0ADCF89E691E00E94A502AC
:101530008CE892E00E94A50242E050E060E074E294
:1015400084E797E40E94910387E0F801808B8FEF96
:1015500090E0928B818BF2CB243091F0283009F00F
:101560003BCD6093B40001C068BDD8011D967C934B
:101570006E931C9744CD7093890060938800F5CFDB
:1015800070938B0060938A00F0CF052E97FB1EF4BA
:1015900000940E94DC0A57FD07D00E94EF0A07FC66
:1015A00003D04EF40C94DC0A50954095309521956B
:1015B0003F4F4F4F5F4F089590958095709561957F
:1015C0007F4F8F4F9F4F08950E94110BA59F900D45
:1015D000B49F900DA49F800D911D11240895A1E248
:1015E0001A2EAA1BBB1BFD010DC0AA1FBB1FEE1F9D
:1015F000FF1FA217B307E407F50720F0A21BB30BE8
:10160000E40BF50B661F771F881F991F1A9469F763
:1016100060957095809590959B01AC01BD01CF01BF
:101620000895A29FB001B39FC001A39F700D811DBB
:101630001124911DB29F700D811D1124911D0895DB
:101640005058BB27AA270E94380B0C94AB0C0E9461
:101650009D0C38F00E94A40C20F039F49F3F19F43F
:1016600026F40C949A0C0EF4E095E7FB0C94940C81
:10167000E92F0E94BC0C58F3BA176207730784075E
:10168000950720F079F4A6F50C94DE0C0EF4E095A5
:101690000B2EBA2FA02D0B01B90190010C01CA012C
:1016A000A0011124FF27591B99F0593F50F4503ED7
:1016B00068F11A16F040A22F232F342F4427585FC9
:1016C000F3CF469537952795A795F0405395C9F7E1
:1016D0007EF41F16BA0B620B730B840BBAF0915099
:1016E000A1F0FF0FBB1F661F771F881FC2F70EC038
:1016F000BA0F621F731F841F48F48795779567950B
:10170000B795F7959E3F08F0B0CF9395880F08F0F6
:101710009927EE0F9795879508950E94700C08F40D
:1017200081E008950E94A60B0C94AB0C0E94A40CBF
:1017300058F00E949D0C40F029F45F3F29F00C9472
:10174000940C51110C94DF0C0C949A0C0E94BC0C5C
:1017500068F39923B1F3552391F3951B550BBB27E0
:10176000AA2762177307840738F09F5F5F4F220F25
:10177000331F441FAA1FA9F335D00E2E3AF0E0E81C
:1017800032D091505040E695001CCAF72BD0FE2F66
:1017900029D0660F771F881FBB1F261737074807FA
:1017A000AB07B0E809F0BB0B802DBF01FF279358B2
:1017B0005F4F3AF09E3F510578F00C94940C0C94D6
:1017C000DF0C5F3FE4F3983ED4F3869577956795F9
:1017D000B795F7959F5FC9F7880F911D96958795E7
:1017E00097F90895E1E0660F771F881FBB1F621706
:1017F00073078407BA0720F0621B730B840BBA0BC4
:10180000EE1F88F7E09508950E94C40C88F09F575A
:1018100098F0B92F9927B751B0F0E1F0660F771F14
:10182000881F991F1AF0BA95C9F714C0B13091F00A
:101830000E94DE0CB1E008950C94DE0C672F782F27
:101840008827B85F39F0B93FCCF3869577956795CF
:10185000B395D9F73EF490958095709561957F4F3B
:101860008F4F9F4F0895E89409C097FB3EF49095E1
:101870008095709561957F4F8F4F9F4F9923A9F069
:10188000F92F96E9BB279395F695879577956795F8
:10189000B795F111F8CFFAF4BB0F11F460FF1BC03C
:1018A0006F5F7F4F8F4F9F4F16C0882311F096E9CF
:1018B00011C0772321F09EE8872F762F05C066237D
:1018C00071F096E8862F70E060E02AF09A95660F36
:1018D000771F881FDAF7880F9695879597F90895EF
:1018E000990F0008550FAA0BE0E8FEEF1616170631
:1018F000E807F907C0F012161306E407F50798F099
:10190000621B730B840B950B39F40A2661F0232BB1
:10191000242B252B21F408950A2609F4A140A6952D
:101920008FEF811D811D089597F99F6780E870E012
:1019300060E008959FEF80EC089500240A94161645
:10194000170618060906089500240A9412161306AD
:10195000140605060895092E0394000C11F488233B
:1019600052F0BB0F40F4BF2B11F460FF04C06F5F57
:101970007F4F8F4F9F4F089557FD9058440F551F2D
:1019800059F05F3F71F04795880F97FB991F61F001
:101990009F3F79F087950895121613061406551F78
:1019A000F2CF4695F1DF08C0161617061806991FE4
:1019B000F1CF86957105610508940895E894BB27D9
:1019C00066277727CB0197F908950E94700C08F4D9
:1019D0008FEF08950E94FD0C0C94AB0C0E949D0C9F
:1019E00038F00E94A40C20F0952311F00C94940C74
:1019F0000C949A0C11240C94DF0C0E94BC0C70F314
:101A0000959FC1F3950F50E0551F629FF001729FA3
:101A1000BB27F00DB11D639FAA27F00DB11DAA1FB2
:101A2000649F6627B00DA11D661F829F2227B00DFF
:101A3000A11D621F739FB00DA11D621F839FA00D8A
:101A4000611D221F749F3327A00D611D231F849FDA
:101A5000600D211D822F762F6A2F11249F57504031
:101A60009AF0F1F088234AF0EE0FFF1FBB1F661FAC
:101A7000771F881F91505040A9F79E3F510580F075
:101A80000C94940C0C94DF0C5F3FE4F3983ED4F379
:101A9000869577956795B795F795E7959F5FC1F719
:101AA000FE2B880F911D9695879597F908950E94B2
:101AB000700C880B990B0895AA1BBB1B51E107C042
:101AC000AA1FBB1FA617B70710F0A61BB70B881FCE
:101AD000991F5A95A9F780959095BC01CD0108955D
:101AE000EE0FFF1F0590F491E02D09940F931F93C3
:101AF000CF93DF938230910510F482E090E0E09183
:101B0000D003F091D10330E020E0B0E0A0E03097C6
:101B100099F42115310509F44AC0281B390B2430EA
:101B20003105D8F58A819B816115710589F1FB0129
:101B300093838283FE0111C0408151810281138110
:101B400048175907E0F04817590799F4109761F0C2
:101B500012960C93129713961C933296CF01DF9135
:101B6000CF911F910F9108950093D0031093D1034B
:101B7000F4CF2115310551F04217530738F0A90170
:101B8000DB019A01BD01DF01F801C1CFEF01F9CFFF
:101B90009093D1038093D003CDCFFE01E20FF31FCA
:101BA000819391932250310939832883D7CF209193
:101BB000CE033091CF03232B41F420916301309168
:101BC00064013093CF032093CE03209161013091C3
:101BD00062012115310541F42DB73EB740916501F1
:101BE00050916601241B350BE091CE03F091CF0399
:101BF000E217F307A0F42E1B3F0B2817390778F0E4
:101C0000AC014E5F5F4F2417350748F04E0F5F1F42
:101C10005093CF034093CE03819391939FCFF0E0F5
:101C2000E0E09CCFCF93DF930097E9F0FC0132977F
:101C300013821282A091D003B091D103ED0130E064
:101C400020E01097A1F420813181820F931F209111
:101C5000CE033091CF032817390709F061C0F09304
:101C6000CF03E093CE03DF91CF910895EA01CE1721
:101C7000DF07E8F54A815B819E0141155105B1F707
:101C8000E901FB83EA8349915991C40FD51FEC17F1
:101C9000FD0761F4808191810296840F951FE9010F
:101CA00099838883828193819B838A83F0E0E0E03B
:101CB00012968D919C9113970097B9F52D913C91B7
:101CC0001197CD010296820F931F2091CE03309180
:101CD000CF032817390739F6309751F51092D10301
:101CE0001092D003B093CF03A093CE03BCCFD38385
:101CF000C28340815181840F951FC817D90761F4B1
:101D00004E5F5F4F88819981480F591F51834083EF
:101D10008A819B81938382832115310509F0B0CF9D
:101D2000F093D103E093D0039ECFFD01DC01C0CF3F
:101D300013821282D7CFF894FFCF3D3D3D3D3D3D0C
:101D40003D3D3D3D3D3D3D3D3D3D3D3D3D3D3D3DC3
:101D50003D3D3D3D3D3D3D3D3D3D3D3D3D3D3D3DB3
:101D60003D3D3D3D3D3D3D3D3D3D3D3D3D3D3D3DA3
:101D70003D3D3D3D3D3D3D3D3D3D3D3D3D3D3D3D93
:101D80003D3D3D3D3D3D3D3D3D3D3D3D3D3D3D3D83
:101D90003D3D3D3D3D3D00320000000000D203804E
:101DA0000020005B50574D5D2000000000005B01EB
:101DB000BB00E800C3011901F7000B010000F401AA
:101DC000E803DC05D007C409B80BAC0DA00F9411D3
:101DD00088137C1570176419581B4C1D401F4C1D2F
:101DE000581B641970177C1588139411A00FAC0D43
:101DF000B80BC409D007DC05E803F40100000D0AA4
:101E0000006E616E00696E66006F76660041565224
:101E10005F50574D3A546F6F206C6F772066726534
:101E20007175656E6379203D002C206D696E203DD3
:101E3000200041726475696E6F2041565220554EE4
:101E40004F2C204E616E6F2C206574632E004572FE
:101E5000726F722C206578636565646564205F64C9
:101E60007574796379636C652C2072657365742071
:101E7000746F2000736574506572696F645F546994
:101E80006D6572303A204572726F722C206D696EEA
:101E900020667265712028487A29203D0073657498
:101EA000506572696F645F54696D6572313A20459F
:101EB00072726F722C206D696E20667265712028B7
:101EC000487A29203D00736574506572696F645FBC
:101ED00054696D6572323A204572726F722C206DB2
:101EE000696E20667265712028487A29203D004578
:101EF00072726F722C206E6F7420757361626C65E4
:101F000020666F722050574D2C2070696E203D0066
:101F100041637475616C20646174613A2070696E0C
:101F2000203D20002C2050574D2044757479437972
:101F3000636C65203D20002C2050574D5065726920
:101F40006F64203D20002C2050574D204672657153
:0A1F50002028487A29203D200000D7
:107E0000112484B714BE81FFF0D085E080938100F7
:107E100082E08093C00088E18093C10086E0809377
:107E2000C20080E18093C4008EE0C9D0259A86E02C
:107E300020E33CEF91E0309385002093840096BBD3
:107E4000B09BFECF1D9AA8958150A9F7CC24DD24C4
:107E500088248394B5E0AB2EA1E19A2EF3E0BF2EE7
:107E6000A2D0813461F49FD0082FAFD0023811F036
:107E7000013811F484E001C083E08DD089C08234E0
:107E800011F484E103C0853419F485E0A6D080C0E4
:107E9000853579F488D0E82EFF2485D0082F10E0AE
:107EA000102F00270E291F29000F111F8ED06801E7
:107EB0006FC0863521F484E090D080E0DECF843638
:107EC00009F040C070D06FD0082F6DD080E0C81688
:107ED00080E7D80618F4F601B7BEE895C0E0D1E017
:107EE00062D089930C17E1F7F0E0CF16F0E7DF06D8
:107EF00018F0F601B7BEE89568D007B600FCFDCFD4
:107F0000A601A0E0B1E02C9130E011968C91119780
:107F100090E0982F8827822B932B1296FA010C0160
:107F200087BEE89511244E5F5F4FF1E0A038BF0790
:107F300051F7F601A7BEE89507B600FCFDCF97BE46
:107F4000E89526C08437B1F42ED02DD0F82E2BD052
:107F50003CD0F601EF2C8F010F5F1F4F84911BD097
:107F6000EA94F801C1F70894C11CD11CFA94CF0C13
:107F7000D11C0EC0853739F428D08EE10CD085E9AC
:107F80000AD08FE07ACF813511F488E018D01DD067
:107F900080E101D065CF982F8091C00085FFFCCF94
:107FA0009093C60008958091C00087FFFCCF809118
:107FB000C00084FD01C0A8958091C6000895E0E648
:107FC000F0E098E1908380830895EDDF803219F02E
:107FD00088E0F5DFFFCF84E1DECF1F93182FE3DFCA
:107FE0001150E9F7F2DF1F91089580E0E8DFEE27F6
:047FF000FF270994CA
:027FFE00040479
:00000001FF
