:100000000C945C000C9479000C9479000C947900A9
:100010000C9479000C9479000C9479000C9479007C
:100020000C9479000C9479000C9479000C9479006C
:100030000C9479000C9479000C9479000C9479005C
:100040000C94C7000C9479000C9479000C947900FE
:100050000C9479000C9479000C9479000C9479003C
:100060000C9479000C947900000000002400270013
:100070002A0000000000250028002B0004040404CE
:100080000404040402020202020203030303030342
:10009000010204081020408001020408102001021F
:1000A00004081020000000080002010000030407FB
:1000B000000000000000000011241FBECFEFD8E0B8
:1000C000DEBFCDBF11E0A0E0B1E0E6E2F4E002C0A7
:1000D00005900D92A431B107D9F721E0A4E1B1E078
:1000E00001C01D92AD31B207E1F70E9411010C94DD
:1000F00011020C94000090E0FC01EC55FF4F24919C
:10010000FC01E057FF4F3491FC01E458FF4FE491AC
:10011000EE23C9F0222339F0233001F1A8F4213075
:1001200019F1223029F1F0E0EE0FFF1FEE58FF4FDA
:10013000A591B4918FB7F894EC91611126C03095D8
:100140003E233C938FBF08952730A9F02830C9F093
:10015000243049F7809180008F7D03C0809180001A
:100160008F7780938000DFCF84B58F7784BDDBCF1E
:1001700084B58F7DFBCF8091B0008F778093B000E6
:10018000D2CF8091B0008F7DF9CF3E2BDACF1F9276
:100190000F920FB60F9211242F933F938F939F933B
:1001A000AF93BF938091190190911A01A0911B0107
:1001B000B0911C013091180123E0230F2D3758F521
:1001C0000196A11DB11D20931801809319019093F0
:1001D0001A01A0931B01B0931C018091140190910E
:1001E0001501A0911601B09117010196A11DB11D35
:1001F0008093140190931501A0931601B0931701F9
:10020000BF91AF919F918F913F912F910F900FBE12
:100210000F901F90189526E8230F0296A11DB11D7F
:10022000D2CF789484B5826084BD84B5816084BD6A
:1002300085B5826085BD85B5816085BD80916E0084
:10024000816080936E0010928100809181008260B5
:1002500080938100809181008160809381008091F2
:1002600080008160809380008091B10084608093E1
:10027000B1008091B00081608093B00080917A00DD
:10028000846080937A0080917A00826080937A0003
:1002900080917A00816080937A0080917A008068F2
:1002A00080937A001092C100A0E0B1E08D919D9101
:1002B0009927FC01E057FF4F249184589F4FFC0180
:1002C0008491882399F090E0880F991FFC01E859E8
:1002D000FF4FC591D491FC01EE58FF4F8591949149
:1002E0008FB7F894E881E22BE8838FBFF1E0A43167
:1002F000BF07E1F690E4792E88248A9423E0922EB9
:10030000A12CB12C30E0C32E30E0D32E70927C00B3
:1003100080917A00806480937A0080917A0086FDD3
:10032000FCCFA0917800B09179002AE030E00E94E3
:100330000A02A50194010E94BA01890180E0E82E19
:1003400081E0F82ED0E0C0E0F7018081F2E0EF0E0E
:10035000F11C61E0C017D1070CF060E00E947B0047
:100360002196CA30D10581F7C114D10479F20E94D7
:100370000000CCCF052E97FB1EF400940E94D10103
:1003800057FD07D00E94D90107FC03D04EF40C940E
:10039000D10150954095309521953F4F4F4F5F4F7C
:1003A000089590958095709561957F4F8F4F9F4FE1
:1003B0000895A1E21A2EAA1BBB1BFD010DC0AA1FA6
:1003C000BB1FEE1FFF1FA217B307E407F50720F0BE
:1003D000A21BB30BE40BF50B661F771F881F991F39
:1003E0001A9469F760957095809590959B01AC0182
:1003F000BD01CF010895A29FB001B39FC001A39F8B
:10040000700D811D1124911DB29F700D811D11244D
:10041000911D08950E94FB01B7FF0895821B930B65
:060420000895F894FFCFDF
:10042600020003000400050006000700080009009A
:040436000A000B00AD
:00000001FF
