:020000040000FA
:100000000C9446010C946E010C946E010C94E11258
:100010000C9412140C94EE130C946E010C946E015B
:100020000C946E010C946E010C946E010C946E0194
:100030000C946E010C946E010C946E010C946E0184
:100040000C9497120C946E010C9465120C943F1250
:100050000C946E010C946E010C946E010C946E0164
:100060000C946E010C946E0100C20100010011009D
:1000700011000C0000E100000A002500250021000D
:10008000009600001900390039003600127A00008D
:100090001F004600460044008070000022004D0012
:1000A0004D004A00004B00003600750075007200DC
:1000B000403800004A009C009C0099008025000008
:1000C0007200EC00EC00E900C0120000E900DA0167
:1000D000DA01D70160090000D701B603B603B30304
:1000E000B0040000B3036E076E076B072C0100001D
:1000F000DC0EC11DC11DBE1D41542B434F4C503D54
:100100003100415445300041542B434C49503D315E
:100110000041542B434D47463D310041542B494645
:10012000433D312C31002B43475245473A20302C78
:1001300035002B43475245473A20302C310041547B
:100140002B43475245473F0041542B4350494E3DB6
:1001500000504F57455220444F574E00434F4E4E8C
:100160004543540D0A0041542B51494F50454E3DD3
:100170000041542B5149444E5349503D0041542BAA
:100180005149434C4F534500434C4F534544004164
:10019000542B434D474C3D2252454320554E52452A
:1001A0004144222C310041542B434D47443D0041F2
:1001B000542B51495345525645520041542B5149F5
:1001C0004C504F52543D22544350222C0041542B4A
:1001D00051494C4F43495000434F4E4E4543540DF7
:1001E0000A00434C4F5345440D0A0041544400411A
:1001F000542B434C43430041544100415448002B8D
:10020000434C49503A0042555359004E4F20434108
:100210005252494552002B434F4C503A0052494EDE
:10022000470000000000240027002A00000000080A
:1002300000020100000304070000000000000000AD
:1002400041542B434D47533D2200415400000000D0
:100250000023002600290000000000250028002BB4
:10026000000404040404040404020202020202035F
:100270000303030303010204081020408001020469
:10028000081020010204081020001E1611241FBEB1
:10029000CFEFD8E0DEBFCDBF24E0A8ECB2E001C0D4
:1002A0001D92AE3DB207E1F712E0A0E0B1E0E2E757
:1002B000F1E302C005900D92A83CB107D9F711E017
:1002C000C6E4D1E004C02197FE010E94B118C534F4
:1002D000D107C9F70E949E170C94B7180C94000020
:1002E0008130910559F020911D0430911E04223077
:1002F000310521F4109223041092220480931B04F0
:1003000081E090E090931E0480931D0410922B04D2
:1003100010922A0480931C040895DB01FC012491AF
:100320002D9301962111FACF08958091C8039091E1
:10033000C903DC01ED91FC910088F189E02D09945D
:10034000DC01ED91FC910190F081E02D0994AF92D8
:10035000BF92CF92DF92EF92FF920F931F93CF93B2
:10036000DF936C017B018B01040F151FEB015E0114
:10037000AE18BF08C017D10759F06991D601ED91A9
:10038000FC910190F081E02DC6010995892B79F748
:10039000C501DF91CF911F910F91FF90EF90DF90FA
:1003A000CF90BF90AF900895FC01538D448D252FC1
:1003B00030E0842F90E0821B930B541710F0CF96FF
:1003C000089501970895FC01918D828D981761F031
:1003D000A28DAE0FBF2FB11D5D968C91928D9F5F48
:1003E0009F73928F90E008958FEF9FEF0895FC0127
:1003F000918D828D981731F0828DE80FF11D858DDA
:1004000090E008958FEF9FEF0895FC01918D228D6C
:10041000892F90E0805C9F4F821B91098F739927F1
:10042000089587EE92E00E94050221E0892B09F4ED
:1004300020E0822F089580E090E0892B29F00E942F
:10044000110281110C9400000895FC01A48DA80FE5
:10045000B92FB11DA35ABF4F2C91848D90E0019606
:100460008F739927848FA689B7892C93A089B18926
:100470008C91837080648C93938D848D981306C0C7
:100480000288F389E02D80818F7D80830895EF922B
:10049000FF920F931F93CF93DF93EC0181E0888F3E
:1004A0009B8D8C8D98131AC0E889F989808185FF0E
:1004B00015C09FB7F894EE89FF896083E889F989B0
:1004C00080818370806480839FBF81E090E0DF91B2
:1004D000CF911F910F91FF90EF900895F62E0B8D05
:1004E00010E00F5F1F4F0F731127E02E8C8D8E11C0
:1004F0000CC00FB607FCFACFE889F989808185FF27
:10050000F5CFCE010E942502F1CFEB8DEC0FFD2F30
:10051000F11DE35AFF4FF0829FB7F8940B8FEA89E1
:10052000FB8980818062CFCFCF93DF93EC01888DF0
:100530008823B9F0AA89BB89E889F9898C9185FD5E
:1005400003C0808186FD0DC00FB607FCF7CF8C91EC
:1005500085FFF2CF808185FFEDCFCE010E9425027D
:10056000E9CFDF91CF91089590E0FC01E45DFD4F6C
:100570002491FC01EB58FD4F3491FC01EF59FD4FE4
:10058000E491EE23C9F0222339F0233001F1A8F4DD
:10059000213019F1223029F1F0E0EE0FFF1FE95A66
:1005A000FD4FA591B4918FB7F894EC91611126C0DD
:1005B00030953E233C938FBF08952730A9F0283013
:1005C000C9F0243049F7809180008F7D03C080916D
:1005D00080008F7780938000DFCF84B58F7784BDD4
:1005E000DBCF84B58F7DFBCF8091B0008F77809378
:1005F000B000D2CF8091B0008F7DF9CF3E2BDACF03
:10060000CF93DF9390E0FC01EB58FD4F24918F597D
:100610009D4FFC0184918823D1F090E0880F991FB1
:10062000FC01EE5DFD4FA591B491FC01E95AFD4F2F
:10063000C591D49161110EC09FB7F8948C91E22FAF
:10064000E0958E238C932881E223E8839FBFDF917E
:10065000CF9108958FB7F894EC91E22BEC938FBF74
:10066000F6CF3FB7F8948091CF029091D002A0913D
:10067000D102B091D20226B5A89B05C02F3F19F038
:100680000196A11DB11D3FBFBA2FA92F982F882712
:10069000BC01CD01620F711D811D911D42E0660FED
:1006A000771F881F991F4A95D1F708958F929F92BF
:1006B000AF92BF92CF92DF92EF92FF924B015C011B
:1006C0000E9431036B017C010E9431036C197D098A
:1006D0008E099F09683E734081059105A8F321E0CA
:1006E000821A9108A108B10888EEC80E83E0D81ECE
:1006F000E11CF11C81149104A104B10429F7FF90BD
:10070000EF90DF90CF90BF90AF909F908F90089523
:100710002FB7F8946091CB027091CC028091CD02FA
:100720009091CE022FBF0895CF92DF92EF92FF9269
:100730000F931F930E9488038B019C01E1E1F4E079
:10074000438D548D658D768D68017C01C41AD50A60
:10075000E60AF70AC701B601038F148F258F368F7B
:100760001F910F91FF90EF90DF90CF900895DC01E3
:100770001696ED91FC911797908115968C91809526
:10078000892380830895DC01ED91FC910280F3813F
:10079000E02D61E109948091440490914304891B08
:1007A0008F7741F0809144048093430480E394E088
:1007B0000C94C30381E080931B0421E030E030936C
:1007C0001E0420931D0410922B0410922A0480937F
:1007D0001C04089520E001972FEF8F3F9207D9F76F
:1007E0000895CF93DF93FC0120893189232B51F1A8
:1007F000EC010190F081E02D0280F381E02D613168
:1008000061F467E70995E881F9810280F381E02DC1
:100810006EEECE01DF91CF910994633149F467E721
:100820000995E881F9810280F381E02D6CEEF1CF2A
:10083000673781F70995E881F9810280F381E02D1E
:1008400068E8E7CF90E080E0DF91CF910895E1E1A3
:10085000F4E081E0828721E030E035872487128E42
:10086000118E838708952091240430912504232B31
:10087000B9F02091260430912704232BA1F0209178
:10088000280430912904232B51F422E030E0220F78
:10089000331FF901EF5EFB4F0296948B838B089513
:1008A00030E020E0F4CF21E030E0F1CFFC017783AD
:1008B00066830895CF93DF93EC01E881F981068484
:1008C000F785E02D09958E819F81DF91CF91089565
:1008D00090E080E0089581E020912204309123048B
:1008E0002530310509F080E0089581E0209122044F
:1008F000309123042530310509F080E0089590E01F
:1009000080E00895CF92DF92EF92FF920F931F93B2
:10091000CF93DF93EC01F62EE42E8C010D5E1F4F7A
:100920006C0189E1C80ED11CD8018D919D918D017A
:10093000009769F1DC01ED91FC910280F381E02DDB
:100940006F2D09950C151D05B9F4811117C0898DFE
:100950009A8D009799F0DC01ED91FC910190F08166
:10096000E02D4E2D6F2DDF91CF911F910F91FF90B4
:10097000EF90DF90CF9009948823B1F2DF91CF916F
:100980001F910F91FF90EF90DF90CF90089580E03E
:10099000D9CFFC012685222319F06787408B089563
:1009A0000C948204089590E080E00895E1E1F4E081
:1009B0000396928F818F128681E0838783E190E096
:1009C000958784871786108A0C94CB0390914404F2
:1009D00080914304891780F48091440490914304EA
:1009E000891B81F0E0914304F0E0EF5EFB4F86A9A4
:1009F000082E000C990B08958091440490914304B3
:100A00008058EECF80E0F4CFCF9380914304909153
:100A100044048150891B8F7729F190914304809180
:100A20004404C0E0981761F0E0914304F0E0EF5E09
:100A3000FB4FC6A9809143048F5F8F778093430457
:100A400090914304809144049150981B9F77943671
:100A500021F480E394E00E94C3038C2FCC0F990B08
:100A6000CF91089590E080E0FBCF80912204909197
:100A70002304059721F084E090E00E9470018091AA
:100A8000440490914304891B8F7799F081E080930F
:100A90001B0421E030E030931E0420931D041092CB
:100AA0002B0410922A0480931C0480911B0490E074
:100AB000089584E090E00E947001F7CF089580913E
:100AC000220490912304059721F483E194E00C948F
:100AD000A00108950895CF92DF92EF92FF92DB017B
:100AE0001296CD90DD90ED90FC901597FC01C1869B
:100AF000D286E386F48610921804109217040190AF
:100B0000F081E02D0484F585E02D70E060E0FF9039
:100B1000EF90DF90CF90099461E087E00E9400039E
:100B200061E087E00E94B40264E873E080E090E056
:100B30000E94560360E087E00E94B40286E090E0E5
:100B400090932304809322041092C9021092C80249
:100B500081E0089580E00895CF92DF92EF92FF92B6
:100B60000E9488036B017C010E9488036C197D0937
:100B70008E099F09603177428105910558F40E94E2
:100B80009501892B39F464E670E080E090E00E94E2
:100B90005603EACF0E94950121E030E0019711F061
:100BA00030E020E0C901FF90EF90DF90CF900895F2
:100BB0008091C8039091C903DC01ED91FC91008400
:100BC000F185E02D09948091C8039091C903DC015F
:100BD000ED91FC910684F785E02D0994CF93DF9386
:100BE000EC018091C8039091C903DC01ED91FC9167
:100BF0000680F781E02D09958C8580FF05C0CE0128
:100C0000DF91CF910C94AC05DF91CF910C949501BD
:100C1000CF93DF93EC018091C8039091C903DC016D
:100C2000ED91FC910284F385E02D09958C8580FF80
:100C300005C0CE01DF91CF910C94AC05DF91CF912F
:100C40000C9495018091C8039091C903DC01ED914A
:100C5000FC910280F381E02D099581E090E00895F8
:100C60000895DF92EF92FF920F931F93CF93DF933C
:100C7000EC01FB018081882351F130E0F0E0E0E0FD
:100C8000421709F440C0942FDE01A90FB11D14963C
:100C90008C91DB01AE0FBF1FAC910A2E000CBB0B79
:100CA0008A171B06E9F4311101C0D92E3196DB01F8
:100CB000AE0FBF1F8C9181111BC00115110511F0E2
:100CC000F801D082E114F10411F0F701908381E082
:100CD000DF91CF911F910F91FF90EF90DF900895DA
:100CE00051E0332339F050E030E0F0E0E0E002C0C2
:100CF00051E031E09F5F9F77552311F02913C4CF56
:100D00004F5F4F77BDCF80E0E3CFCF92DF92EF927E
:100D1000FF920F931F93CF93DF9300D0CDB7DEB731
:100D20006B012091440440914304BE016E5F7F4FEC
:100D30007B0110E000E0BC0183E494E00E943106F6
:100D400081110CC080E00F900F90DF91CF911F9127
:100D50000F91FF90EF90DF90CF9008954A814F5F01
:100D60004A8320914404F12CE12C8E010F5F1F4F28
:100D700068EF71E083E494E00E943106882311F368
:100D80009A8129812F77F601A92FB0E0921741F0BF
:100D9000AF5EBB4FD6963C9131939F5F9F77F4CF68
:100DA0001082D1CF82EF91E00E94850681E090E031
:100DB0000895AF92BF92CF92DF92EF92FF920F937E
:100DC0001F93CF93DF9300D0CDB7DEB76C01B42E65
:100DD000A22EFC0121814081CE0102967C018E0170
:100DE0000F5F1F4FC6010E943106882379F0AA20A9
:100DF000D1F0BB2039F08A818F5F8F77F601808335
:100E00008B2D04C08981F60180838A2D0F900F906D
:100E1000DF91CF911F910F91FF90EF90DF90CF90D6
:100E2000BF90AF900895BB2031F08A818F5F8F779C
:100E3000F6018183E5CF9981F6019183E7CFFC012B
:100E40002681211109C021E0268341E068E072E09B
:100E500083E494E00E94D906909144048091430475
:100E6000891780F48091440490914304891B81F098
:100E7000E0914304F0E0EF5EFB4F86A9082E000CE2
:100E8000990B089580914404909143048058EECFCB
:100E900080E0F4CFEF92FF920F931F93FC0121812A
:100EA0004081F12CE12C10E000E00E9431061F91FE
:100EB0000F91FF90EF9008950F931F93CF93DF93BF
:100EC0008C01EA016115710521F4209711F464E0A9
:100ED00072E083E494E00E944A07F8018083811164
:100EE00009C0209739F0BE0183E494E00E944A07CC
:100EF000F801808381E0DF91CF911F910F910895D8
:100F0000CF92DF92EF92FF92CF93DF93CDB7DEB710
:100F100063970FB6F894DEBF0FBECDBF61E087E0E8
:100F20000E94000361E087E00E94B4026CED75E06E
:100F300080E090E00E94560360E087E00E94B402E7
:100F400081E090E090932304809322041092C902E0
:100F50001092C8020E9488036B017C01BE016F5F82
:100F60007F4F81E591E00E948D010E9488036C19FA
:100F70007D098E099F096838734181059105F8F450
:100F800061E070E080E090E00E94560350E040E0B5
:100F9000BE016F5F7F4FCE0143960E945C0788239E
:100FA00021F38B8963960FB6F894DEBF0FBECDBFD9
:100FB000DF91CF91FF90EF90DF90CF90089580E088
:100FC000F1CF0F931F93CF93DF93EC018E818111AB
:100FD0000AC081E08E8321E041E068E072E083E4B2
:100FE00094E00E94D906909143048091440400E06B
:100FF000981761F0E0914304F0E0EF5EFB4F06A923
:10100000809143048F5F8F77809343048985882381
:1010100041F019866AEF71E083E494E00E944A0788
:1010200088878885811139C08F8160E072E08823CC
:10103000B1F180914304909144048150891B8F77D2
:10104000002E000C110B8F3711F580914404809312
:1010500043041F8281E089872296D0932B04C0939A
:101060002A0410921B0480931C0410921E041092F8
:101070001D04109220041092210480E394E00E9449
:10108000C3036AE070E080E090E00E945603C8016C
:10109000DF91CF911F910F9108956AEF71E083E482
:1010A00094E00E944A07002E000C110B8111EFCF33
:1010B00080914404809343042296D0932B04C093E0
:1010C0002A0410921B0481E080931C0410921E04D9
:1010D00010921D04109220041092210480E394E0E9
:1010E0000E94C3036AE070E080E090E00E94560333
:1010F00010E000E0CCCFDF92EF92FF920F931F93AE
:10110000CF93DF93EC01D62EEFB6F8940E94B7038D
:101110008889998905960E94EA0308E010E0FF2477
:10112000F3948D2D8F2119F1EE81FF8180819D81B6
:10113000892B8083888999890E94EA03FF0C0150DA
:10114000110979F7EE81FF8180819D81892B808350
:10115000EFBE888999890E94EA0381E090E0DF91DF
:10116000CF911F910F91FF90EF90DF900895CE01E6
:101170000E94B703DFCFFB0101900020E9F7319710
:10118000AF01461B570BDC01ED91FC910280F3810E
:10119000E02D09948F929F92AF92BF92EF92FF92AF
:1011A0000F931F93CF93DF93CDB7DEB7A1970FB601
:1011B000F894DEBF0FBECDBF7C01FA01CB0119A2AE
:1011C000223008F42AE08E010F5D1F4F822E912CF1
:1011D000B12CA12CBF01A50194010E948F18F90127
:1011E000CA016A300CF5605DD8016E938D01232B26
:1011F000242B252B79F790E080E0109721F0BD019A
:10120000C7010E94BB08A1960FB6F894DEBF0FBEBF
:10121000CDBFDF91CF911F910F91FF90EF90BF90C5
:10122000AF909F908F900895695CDECFCF92DF9250
:10123000EF92FF920F931F93CF93DF936B01770F82
:10124000EE08FF08F7FE1BC0EC016DE20E94A00152
:101250008C0144275527BA014C195D096E097F0995
:101260002AE0CE010E94CA08800F911FDF91CF9122
:101270001F910F91FF90EF90DF90CF9008952AE09B
:10128000B701A601DF91CF911F910F91FF90EF90D1
:10129000DF90CF900C94CA088F929F92AF92BF922A
:1012A000CF92DF92EF92FF920F931F93CF93DF9332
:1012B0007C018B016C0182E0C80ED11C4701E5E086
:1012C0008E0E911CD0E0C0E0F60141916F0150E01C
:1012D00070E060E02AE0C8010E94CA085C016EE28A
:1012E000C8010E94A0018A0D9B1DC80FD91FC814F8
:1012F000D90451F7F701458150E070E060E02AE041
:10130000C8010E94CA088C0F9D1FDF91CF911F91C9
:101310000F91FF90EF90DF90CF90BF90AF909F9094
:101320008F900895CF9390EE980F682F9F3580F09F
:10133000C82F65E287EE92E00E94A0014C2F50E09A
:1013400070E060E02AE087EE92E00E94CA0865E261
:1013500087EE92E0CF910C94A00181E194E00C948F
:101360009015CF93DF93BC0187EE92E00E94BB08FB
:10137000EC0167E072E087EE92E00E94BB088C0F00
:101380009D1FDF91CF9108956115710511F00C94A7
:10139000BB0890E080E00895CF93DF9380911F0415
:1013A000882309F44CC0909120048091210498175F
:1013B00009F445C0C0914304D091440467E072E051
:1013C00087EE92E00E94BB084C2F50E070E060E096
:1013D0002AE087EE92E00E94CA086AE072E087EE97
:1013E00092E00E94C4094D2F50E070E060E02AE0D6
:1013F00087EE92E00E94CA086EE387EE92E00E94B8
:10140000A001DC1751F0EC2FF0E0EF5EFB4F86A956
:101410000E949209CF5FCF77F4CF67E072E087EE4A
:1014200092E00E94BB08409121046091200481E178
:1014300094E00E9482041092200410922104DF9113
:10144000CF9108950E94CC0980911B0490E00895EB
:101450000E94CC0980911B0490E008950E94CC0961
:1014600080911B0490E008950E94CC0980911B0498
:1014700090E008950E94CC0980911B0490E00895AB
:10148000CF93DF931F92CDB7DEB780911C048130DC
:1014900031F0823099F00F90DF91CF91089582E082
:1014A00080931C046AE181E194E00E9490156DE054
:1014B00072E083E194E00E94C409EDCF50E040E087
:1014C00070E060E0CE0101960E945C07882319F36A
:1014D0008981882319F00E942704DDCF83E090E002
:1014E0000E947001D8CFCF93DF93EC0102969093C6
:1014F0002B0480932A0410921B0481E080931C0427
:1015000085E090E090931E0480931D0410922004C7
:10151000109221040E94400AE881F9810088F18933
:10152000E02DCE010995892B39F464E670E080E066
:1015300090E00E945603F0CF80911B0490E0DF9171
:10154000CF910895EF92FF920F931F93CF93DF9364
:101550008C01E42EEB01FE01F490FF2049F0D8014C
:10156000ED91FC910280F381E02D6F2DC80109956A
:101570002196F110F0CFEE2031F06DE072E0C8015D
:1015800002960E94C40981E090E0DF91CF911F9103
:101590000F91FF90EF900895462FE1E1F4E023A929
:1015A00022ABBC01CF010C94A20ACF93DF931F9210
:1015B000CDB7DEB780911C04813031F0823069F004
:1015C0000F90DF91CF91089561E08AE492E00E944C
:1015D000CC0A82E080931C04F3CF50E040E070E03E
:1015E00060E0CE0101960E945C07882349F389815F
:1015F000882319F00E942704E3CF83E090E00E9443
:101600007001DECFCF93DF93C1E1D4E01A8621E0F1
:101610002B8702969A8F898F83E090E09D878C8735
:101620001F86188A0E94D50A8A8590E0DF91CF91A3
:101630000895CF93DF931F92CDB7DEB780911C043E
:10164000813031F08230D9F00F90DF91CF91089541
:1016500082E080931C0460E080E492E00E94CC0A67
:10166000609117047091180483E194E00E94C4090A
:101670006CE072E083E194E00E94C409E5CF50E0A1
:1016800040E06FE072E0CE0101960E945C07882383
:10169000D9F28981882319F00E942704D5CF83E0ED
:1016A00090E00E947001D0CF209122043091230459
:1016B0002350310922303105F0F4709318046093FF
:1016C0001704029690932B0480932A0410921B0413
:1016D00081E080931C0484E090E090931E0480934A
:1016E0001D0410922004109221040E94190B809175
:1016F0001B0490E0089582E090E008950F931F93FB
:10170000CF93DF931F92CDB7DEB78C0180911C047D
:10171000813041F0823079F00F90DF91CF911F91AD
:101720000F91089561E08BEF91E00E94CC0A82E076
:1017300080931C04F1CF50E040E070E060E0CE0107
:1017400001960E945C07882339F3D801ED91FC9142
:101750000484F585E02D70E060E0C8010995898179
:10176000882319F00E942704D7CF83E090E00E94DD
:101770007001D2CFCF93DF93C1E1D4E01A8621E08C
:101780002B879C012E5F3F4F3A8F298F2AE030E054
:101790003D872C871F86188A0E947E0B8A8590E0E1
:1017A000DF91CF9108950F931F93CF93DF931F92F3
:1017B000CDB7DEB78C0180911C04813041F08230BE
:1017C00079F00F90DF91CF911F910F91089561E013
:1017D00087EF91E00E94CC0A82E080931C04F1CF55
:1017E00050E040E070E060E0CE0101960E945C07AE
:1017F000882339F3D801ED91FC910484F585E02D1F
:1018000063E070E0C80109958981882319F00E947E
:101810002704D7CF83E090E00E947001D2CFCF930E
:10182000DF93C1E1D4E01A8621E02B879C012E5F73
:101830003F4F3A8F298F29E030E03D872C871F8664
:10184000188A0E94D30B8A8590E0DF91CF9108958A
:1018500080911C04813019F0823051F0089561E0CC
:101860008FEE91E00E94CC0A82E080931C040895E0
:10187000609117047091180481E192E00E9485063E
:10188000809144048093430481E080931B0421E011
:1018900030E030931E0420931D0410922B0410920C
:1018A0002A04E3CFCF93DF93C1E1D4E07F836E833B
:1018B000FC01558344831A8621E02B879C012E5F0F
:1018C0003F4F3A8F298F2BE030E03D872C871F86D2
:1018D000188A0E94280C8A8590E0DF91CF910895A4
:1018E0000F931F93CF93DF93EC018B0160E08BEE9E
:1018F00091E00E94CC0AB80183E194E00E94C409FF
:1019000064E272E083E194E00E94C409E881F98115
:101910000484F585E02D61E070E0CE01099581E059
:1019200090E0DF91CF911F910F9108950F931F9336
:10193000CF93DF9300D000D0CDB7DEB78C0180917C
:101940001C04823009F456C060F4813009F449C0A7
:101950000F900F900F900F90DF91CF911F910F91EB
:101960000895833009F473C0843091F750E040E06B
:1019700070E060E0CE0104960E945C07882341F38A
:101980008C81882309F45EC0809124049091250401
:10199000892B09F471C08091260490912704892B2A
:1019A00009F46DC08091280490912904892B59F481
:1019B00082E090E0880F991FFC01EF5EFB4F0E5F05
:1019C0001F4F148B038B81E080931B0421E030E0D8
:1019D00030931E0420931D0410922B0410922A04AD
:1019E00006C061E08DEC91E00E94CC0A82E0809319
:1019F0001C04AECF8DE089838AE08A831B8250E08D
:101A000040E0BE016F5F7F4FCE0104960E945C07ED
:101A1000882309F49DCF8C818823A1F060E08BEBB3
:101A200091E00E94CC0A6091190470911A0483E13C
:101A300094E00E9416096DE083E194E00E94A00109
:101A400083E0D5CF83E090E00E94700181CF50E029
:101A500040E070E060E0CE0104960E945C078823BD
:101A600009F476CF8C81882369F361E08FEA91E0F5
:101A70000E94CC0A84E0BBCF90E080E09BCF81E065
:101A800090E098CFCF93DF93C1E1D4E07987688766
:101A90009C012E5F3F4F3A8F298F1A8621E02B87BA
:101AA00024E130E03D872C871F86188A0E94960C1F
:101AB0008A8590E0DF91CF9108950F931F93CF9384
:101AC000DF931F92CDB7DEB78C0180911C0481306B
:101AD00041F08230E1F00F90DF91CF911F910F9193
:101AE000089582E080931C0460E086EA91E00E9401
:101AF000CC0AF8016481758183E194E00E941609A3
:101B00006DE072E083E194E00E94C409E4CF50E00C
:101B100040E070E060E0CE0101960E945C078823FF
:101B2000D1F28981882319F00E942704D4CF83E061
:101B300090E00E947001CFCF0F931F93CF93DF935C
:101B40008C01C5E0D0E0809144048093430480E39D
:101B500094E00E94C3036AE070E080E090E00E949D
:101B60005603219781F7C801029690932B04809326
:101B70002A0410921B0481E080931C0487E090E00B
:101B800090931E0480931D0410922004109221044F
:101B9000C801DF91CF911F910F910C945D0D1F93A0
:101BA000CF93DF93EC0180911C04813031F08230BF
:101BB00069F0DF91CF911F91089561E08FE891E086
:101BC0000E94CC0A82E080931C04F3CF80914304EE
:101BD000909144048150891B8F7791E0853008F003
:101BE00090E09F8321E041E067E272E083E494E0CB
:101BF0000E94D906182F809143048F5F50E040E087
:101C000030E020E06AE090914404981711F1E82F49
:101C1000F0E0EF5EFB4F96A9903229F4411107C026
:101C20008F5F8F77F0CF9D3211F4442381F040ED28
:101C3000490F4A3070F4629FF001639FF00D112448
:101C40009F01290F311D2053310941E0E9CF51E0B7
:101C5000FCCF552319F03195219531093D832C8313
:101C60006AEF71E083E494E00E944A07888719864E
:101C7000111107C084E090E0DF91CF911F910C9487
:101C8000700181E080931B0421E030E030931E045A
:101C900020931D0410922B0410922A0494CFCF930A
:101CA000DF93FC011682C1E1D4E09C012E5F3F4F1F
:101CB0003A8F298F1A8621E02B8726E030E03D8776
:101CC0002C871F86188A0E94CF0D8A8590E0DF91AD
:101CD000CF9108958091220490912304059721F4D7
:101CE00083E194E00C94C4090895EF92FF921F934E
:101CF000CF93DF93EC012396D0932B04C0932A0457
:101D000010921B0481E080931C048FE090E090937C
:101D10001E0480931D04109220041092210468EE8A
:101D200073E080E090E00E9456036EE272E083E18F
:101D300094E00E94C40968EE73E080E090E00E94A5
:101D4000560361E08DE791E00E94CC0A84E090E0C8
:101D5000909323048093220411E0EE24E394F12C69
:101D6000809144048093430480E394E00E94C30381
:101D700064E670E080E090E00E94560310931B043C
:101D8000F0921E04E0921D0410922B0410922A047B
:101D900010931C048091440490914304891B8F7715
:101DA000F9F68091240490912504C817D907F9F019
:101DB0008091260490912704C817D907D9F0809103
:101DC000280490912904C817D90749F482E090E0CB
:101DD000880F991FFC01EF5EFB4F148A138A81E084
:101DE00090E0DF91CF911F91FF90EF90089590E0E8
:101DF00080E0EECF81E090E0EBCF0F931F93CF9385
:101E0000DF93CDB7DEB72D970FB6F894DEBF0FBEC8
:101E1000CDBF8C0180911C04823009F465C070F440
:101E2000813009F443C02D960FB6F894DEBF0FBE83
:101E3000CDBFDF91CF911F910F910895833009F4A9
:101E40009CC0843081F7BE016F5F7F4F8CE591E0CD
:101E50000E948D0150E040E0BE016F5F7F4FCE01D8
:101E60000D960E945C078823F1F28D85882309F482
:101E70007FC085E090E0909323048093220421E0CA
:101E800041E0BE016F5F7F4F83E494E00E94D9067A
:101E900081E080931B0421E030E030931E04209306
:101EA0001D0410922B0410922A041BC060E081E7ED
:101EB00091E00E94CC0AE0911704F0911804309749
:101EC00029F08081805361E38A3008F460E383E184
:101ED00094E00E94A0016DE083E194E00E94A001E3
:101EE00082E080931C049FCF50E040E070E060E00F
:101EF000CE010D960E945C07882309F494CF8D854E
:101F00008823B1F160E086E691E00E94CC0A62E3AA
:101F100072E083E194E00E94C4096091170470911B
:101F2000180461157105E9F083E194E00E94C40989
:101F300062E283E194E00E94A0016CE283E194E01C
:101F40000E94A0016091190470911A0483E194E049
:101F50000E9416096DE083E194E00E94A00183E0F5
:101F6000C0CF63E174E0C80107960E944C09E0CF3E
:101F700083E090E00E94700156CF50E040E070E0B6
:101F800060E0CE010D960E945C07882309F44BCFD8
:101F90008D85882369F384E0A4CF50931A0440937D
:101FA0001904FC0136872587709318046093170481
:101FB000AC014D5F5F4F50932B0440932A04109265
:101FC0001B0421E020931C042EE030E030931E041B
:101FD00020931D04109220041092210420912404C7
:101FE00030912504232BD9F0209126043091270429
:101FF000232BC1F02091280430912904232B49F48C
:1020000022E030E0220F331FF901EF5EFB4F548BCB
:10201000438B0E94FD0E80911B0490E0089530E0F8
:1020200020E0F0CF21E030E0EDCF0F931F93CF936E
:10203000DF93CDB7DEB769970FB6F894DEBF0FBE5A
:10204000CDBF80911C0490E08130910549F482E07D
:1020500080931C0461E08AE492E00E94CC0A35C0BF
:102060008230910509F045C050E040E070E060E04A
:10207000CE0149960E945C07882339F1898D882317
:1020800009F489C0E0911704F0911804309741F1E8
:102090008081882329F160E088E491E00E94CC0AE5
:1020A00083E080931C046091170470911804809160
:1020B00044048093430483E194E00E94C4096DE0EA
:1020C00072E083E194E00E94C40969960FB6F89427
:1020D000DEBF0FBECDBFDF91CF911F910F9108954D
:1020E00084E080931C040E94940361E08EE391E0FD
:1020F000B4CF8330910501F550E040E070E060E03E
:10210000CE0149960E945C078823F9F2898D8823C5
:1021100009F441C084E080931C040E94940310E001
:1021200000E088EE93E00E94EA030F5F1F4F003D3E
:1021300027E01207B1F7D9CF84309105F1F5BE0140
:10214000635F7F4F82E391E00E948D01BE016F5F6C
:102150007F4F86E291E00E948D01AE014F5F5F4F9D
:10216000BE01635F7F4FCE0149960E945C078823C2
:1021700009F4ABCF898D882339F085E080931C0466
:1021800061E08BE191E069CF0E949403693873416B
:102190008105910528F083E090E00E94700195CFC1
:1021A00010E000E088EE93E00E94EA030F5F1F4F0B
:1021B000003D87E01807B1F798CF85309105F1F41D
:1021C00050E040E070E060E0CE0149960E945C077C
:1021D000882309F47ACF10E000E088EE93E00E94B3
:1021E000EA030F5F1F4F003D27E01207B1F786E0BB
:1021F00080931C0461E081E191E02FCF863091054E
:1022000091F450E040E070E060E0CE0149960E9419
:102210005C07882309F459CF87E080931C0461E0B0
:1022200087E091E01ACF8730910591F450E040E0CB
:1022300070E060E0CE0149960E945C07882309F4B3
:1022400044CF88E080931C0461E082E091E005CFF8
:102250008830910591F450E040E070E060E0CE01FC
:1022600049960E945C07882309F42FCF89E0809368
:102270001C0461E088EF90E0F0CE099709F025CFCB
:1022800050E040E070E060E0CE0149960E945C07BB
:10229000882309F41ACF898D882309F47CCF83E041
:1022A00090E0909323048093220481E080931B04A8
:1022B00021E030E030931E0420931D0410922B0483
:1022C00010922A0480931C0400CFEF92FF920F9388
:1022D0001F93CF93DF93EC018B01E42EF22E61E08C
:1022E00087E00E94000381E090E0909323048093B4
:1022F000220461E087E0EE2009F49FC00E94B4024E
:1023000060EE7EE280E090E00E94560360E087E0AD
:102310000E94B40268EE73E080E090E00E945603F1
:10232000109241041092400410923F0410923E0417
:1023300010923D0410923C0490E080E0FC01E859CA
:10234000FF4F459155916591749140385542610513
:10235000710509F07FC0FC01E459FF4F25913491CC
:1023600030933B0420933A04FC01E259FF4F25913E
:10237000349130933D0420933C04FC01E059FF4F1D
:102380002591349130933F0420933E04FC01EE5894
:10239000FF4F8591949190934104809340048091E4
:1023A0003E0490913F04892B81F080916800846005
:1023B0008093680080916D00846080936D008091AF
:1023C0004004909141040E94EA0380E394E09093DA
:1023D000C9028093C8021093180400931704CE0119
:1023E000029690932B0480932A0410921B0481E0A0
:1023F00080931C0482E090E090931E0480931D045F
:1024000010922004109221049093230480932204BC
:10241000CE010E941510FF2039F1E881F981008476
:10242000F185E02DCE010995892BF1F468EE73E07A
:1024300080E090E00E945603F0CF0E94B40260ED6D
:1024400077E080E090E00E94560360E087E00E9421
:10245000B40266CF0C968039910509F06FCF1092C7
:102460003B0410923A049BCF809122049091230464
:10247000DF91CF911F910F91FF90EF9008951F92E0
:102480000F920FB60F9211242F933F934F935F93A8
:102490006F937F938F939F93AF93BF93EF93FF932C
:1024A00087EE92E00E942502FF91EF91BF91AF91DC
:1024B0009F918F917F916F915F914F913F912F915C
:1024C0000F900FBE0F901F9018951F920F920FB68E
:1024D0000F9211242F938F939F93EF93FF93E0918B
:1024E000F702F091F8028081E091FD02F091FE0286
:1024F00082FD1BC09081809100038F5F8F732091BC
:102500000103821741F0E0910003F0E0E951FD4F33
:10251000958F80930003FF91EF919F918F912F9161
:102520000F900FBE0F901F9018958081F4CF1F92CF
:102530000F920FB60F9211242F933F938F939F9377
:10254000AF93BF938091CB029091CC02A091CD022A
:10255000B091CE023091CA0223E0230F2D3758F5F7
:102560000196A11DB11D2093CA028093CB029093C6
:10257000CC02A093CD02B093CE028091CF02909175
:10258000D002A091D102B091D2020196A11DB11D3D
:102590008093CF029093D002A093D102B093D20245
:1025A000BF91AF919F918F913F912F910F900FBE4F
:1025B0000F901F90189526E8230F0296A11DB11DBC
:1025C000D2CF1F920F920FB60F9211248F929F922B
:1025D000AF92BF92CF92DF92EF92FF920F931F9331
:1025E0002F933F934F935F936F937F938F939F931B
:1025F000AF93BF93CF93DF93EF93FF93C091C80244
:10260000D091C902209709F4C7C02F933F934F93ED
:102610005F936F937F93AF93BF93EB81FC811081A6
:102620008A81182309F0B0C0F12CBB24B394AA24EA
:10263000A39422E0922E8C898A859B850E94EA03CE
:102640000B898C890150081B0F77063028F4F11094
:1026500003C0CE010E94B70398E0C92ED12C882474
:1026600083948C859D850E94EA03EB81FC818081A7
:102670009A81892309F454C01829063060F4F110B6
:102680000AC0882D837109F44FC0EE81FF818081DB
:102690009D81892B8083880C81E0C81AD10809F7B5
:1026A000063008F096C0F1100AC08C859D850E9406
:1026B000EA03EE81FF8180819D81892B80838A8955
:1026C00082608A8BFF24F3948A891F3F89F581FFFA
:1026D00033C089258A8B82E3C82ED12C81E090E01B
:1026E0000E94EA03EB81FC8180819A81892309F4AD
:1026F000A2CFA1E0CA1AD10889F7063018F01A3023
:1027000009F03FC0888599850097F1F14C89DC017B
:10271000ED91FC910190F081E02D6E2D099534C072
:10272000882D80951823A9CFCE010E94B703B3CF7F
:10273000173711F48160CECF80FF0BC01E3E31F001
:102740001C3EE9F0183819F417E701C011E18A2599
:102750008A8B8C898F5F8F779B89891751F0EC89E1
:10276000EC0FFD2FF11D178BFE01E80FF11D178AED
:102770008C8BBB2009F4AFCFEC88B12CACCF13E12C
:10278000E6CF103209F4BECFBF91AF917F916F9128
:102790005F914F913F912F91FF91EF91DF91CF91F9
:1027A000BF91AF919F918F917F916F915F914F9169
:1027B0003F912F911F910F91FF90EF90DF90CF905D
:1027C000BF90AF909F908F900F900FBE0F901F9073
:1027D00018958E859F850E94EA0376CF1F920F92EF
:1027E0000FB60F9211242F933F934F935F936F93E4
:1027F0007F938F939F93AF93BF93EF93FF930E9429
:10280000E112FF91EF91BF91AF919F918F917F91D5
:102810006F915F914F913F912F910F900FBE0F904D
:102820001F9018951F920F920FB60F9211242F939D
:102830003F934F935F936F937F938F939F93AF9348
:10284000BF93EF93FF930E94E112FF91EF91BF912D
:10285000AF919F918F917F916F915F914F913F9138
:102860002F910F900FBE0F901F901895EF92FF922F
:102870001F93CF93DF93CDB7DEB72C970FB6F894A5
:10288000DEBF0FBECDBF7C01BE016F5F7F4F88E80A
:1028900091E00E948D0111E0809122049091230427
:1028A000059709F010E020E040E0BE016F5F7F4F28
:1028B00083E494E00E94D906812301F193E0E90EBC
:1028C000F11C44E050E050932304409322044091D3
:1028D000240450912504E416F506E1F04091260405
:1028E00050912704E416F506F9F040912804509120
:1028F000290422E030E0E416F50671F02C960FB6BC
:10290000F894DEBF0FBECDBFDF91CF911F91FF9036
:10291000EF90089530E020E0220F331FF901EF5EC1
:10292000FB4F148A138AEACF21E030E0F5CF0397FA
:102930000C943614EF92FF921F93CF93DF93CDB791
:10294000DEB72F970FB6F894DEBF0FBECDBF7C0168
:10295000BE016F5F7F4F8DE192E00E948D01BE014D
:102960006F5F7F4F83E494E00E944A07182F88230B
:10297000D9F0D701ED91FC910484F585E02D62E05A
:1029800070E0C70109958091440480934304812F2E
:102990002F960FB6F894DEBF0FBECDBFDF91CF915B
:1029A0001F91FF90EF900895BE016F5F7F4F86E10A
:1029B00092E00E948D01BE016F5F7F4F83E494E03F
:1029C0000E944A07182F882349F0D701ED91FC9106
:1029D0000484F585E02D63E070E0D3CFBE016F5F26
:1029E0007F4F8BE092E00E948D01BE016F5F7F4FB1
:1029F00083E494E00E944A07182F882349F0D70106
:102A0000ED91FC910484F585E02D70E060E0B9CF94
:102A1000BE016F5F7F4F86E092E00E948D01BE0194
:102A20006F5F7F4F83E494E00E944A07182F811163
:102A3000E6CFBE016F5F7F4F8FEF91E00E948D0167
:102A4000BE016F5F7F4F83E494E00E944A07182F16
:102A5000882309F49CCF8091440480934304D701D8
:102A6000ED91FC910484F585E02D62E070E0C701F2
:102A700009958DCF02970C949A141F93CF93DF93EF
:102A8000CDB7DEB72F970FB6F894DEBF0FBECDBF20
:102A9000BE016F5F7F4F82EE91E00E948D01BE010B
:102AA0006F5F7F4F83E494E00E944A07882331F0F0
:102AB00084E090E09093230480932204BE016F5F32
:102AC0007F4F88ED91E00E948D01BE016F5F7F4FC7
:102AD00083E494E00E944A07182F882399F021E0AC
:102AE00041E0BE016F5F7F4F83E494E00E94D9060E
:102AF00080E394E00E94C30385E090E09093230478
:102B000080932204812F2F960FB6F894DEBF0FBE5C
:102B1000CDBFDF91CF911F91089502970C943D1581
:102B20001F93CF93DF93EC01162F8E85882319F026
:102B3000862F0E949209612FCE014F96DF91CF918F
:102B40001F910C94F10302970C94901520911D0491
:102B500030911E042A30310541F02B30310539F017
:102B60002930310531F40C94D30B0C947E0B0C946A
:102B7000280C089502970C94A61520911D043091FD
:102B80001E042130310521F02431310521F0089552
:102B90006093440408950C94960C02970C94BD1510
:102BA00020911D0430911E0425303105A1F038F428
:102BB0002130310559F02430310559F0089526307F
:102BC000310559F02730310551F0089560934404E0
:102BD00008950C94190B0C94400A0C94CF0D0C948E
:102BE0005D0D02970C94D01520911D0430911E04A8
:102BF0002E30310549F02331310541F021303105C6
:102C000039F46093440408950C94FD0E0C94CB03A6
:102C1000089503970C94F41520911D0430911E041F
:102C20002230310521F02330310519F008950C943C
:102C300015100C94D50A02970C940C16CF92DF92C3
:102C4000EF92FF920F931F93CF93DF93E7EEF2E0A3
:102C50001382128288EEC82E83E0D82EE12CF12C4C
:102C6000C482D582E682F78284E091E091838083FA
:102C700085EC90E09587848784EC90E09787868741
:102C800080EC90E0918B808B81EC90E0938B828B39
:102C900082EC90E0958B848B86EC90E0978B868B12
:102CA000118E128E138E148EECE8F3E000EF11E01B
:102CB000118300831282138214821582E4E8F3E008
:102CC00086E191E0918380838EE291E09383828319
:102CD00015821482E2E9F3E01183008312821382E9
:102CE00014821582E8E9F3E01183008312821382D3
:102CF00014821582EEE9F3E01183008312821382BD
:102D000014821582E4EAF3E01183008312821382B5
:102D100014821582C1E1D4E01D821C8280E491E01E
:102D2000998388838AE491E09B838A8386E391E098
:102D300098A38F8F1AA619A61CA61BA61EA61DA6B1
:102D400018AA1FA61AAA1BAA80E394E09DAB8CAB1D
:102D500061E083E00E94000361E083E00E94B4022E
:102D6000E8E7F2E0E491ECA3E4E6F2E0E491F0E0DD
:102D7000EE0FFF1FE95AFD4F859194919EA38DA3FD
:102D800060E082E00E94000361E082E00E94B40201
:102D9000E7E7F2E0E491E9A3E3E6F2E0E491F0E0B2
:102DA000EE0FFF1FE35BFD4F859194919BA38AA3D8
:102DB000D8A7CFA31F86188A81E08A871B8681E067
:102DC00090E09D878C870E9494031C8A1B8A1E8A30
:102DD0001D8A188E1F8AEAEAF3E0118300831282AB
:102DE000138214821582E0EBF3E0118300831282D8
:102DF000138214821582E6EBF3E0118300831282C2
:102E0000138214821582ECEBF3E0118300831282AB
:102E1000138214821582E2ECF3E0118300831282A4
:102E2000138214821582E4EDF3E011830083128291
:102E3000138214821582EAECF3E086E591E0918337
:102E400080838EE691E093838283F093C903E093BD
:102E5000C803EEEDF3E01183008312821382148223
:102E60001582EAEDF3E086E791E0918380838CE8B8
:102E700091E093838283E4EEF3E011830083128276
:102E8000138214821582EAEEF3E01183008312822A
:102E9000138214821582E0EFF3E011830083128223
:102EA000138214821582E5E0F4E01183008312821C
:102EB000138214821582E6EFF3E084E991E09183B6
:102EC00080838EEB91E09483838310870783118640
:102ED000128613861486EBE0F4E0118300831282DD
:102EE000138214821582E8EDF4E0118300831282CC
:102EF000138214821582E4EDF4E088ED91E0918371
:102F0000808388EE91E0938382831E86E7ECF4E071
:102F100013821282C482D582E682F78286EC91E027
:102F200091838083848581608487DF91CF911F9115
:102F30000F91FF90EF90DF90CF900895789484B533
:102F4000826084BD84B5816084BD85B5826085BDA5
:102F500085B5816085BD80916E00816080936E0033
:102F60001092810080918100826080938100809125
:102F700081008160809381008091800081608093D6
:102F800080008091B10084608093B1008091B00096
:102F900081608093B00080917A00846080937A0091
:102FA00080917A00826080937A0080917A008160BB
:102FB00080937A0080917A00806880937A001092E2
:102FC000C100E091F702F091F80282E08083E09185
:102FD000F302F091F4021082E091F502F091F60212
:102FE0008FEC80831092FF02E091FB02F091FC02D3
:102FF00086E08083E091F902F091FA02808180619D
:103000008083E091F902F091FA02808188608083E8
:10301000E091F902F091FA02808180688083E0916A
:10302000F902F091FA0280818F7D80838AE392E039
:103030000E94B10921E041E069E072E084ED94E092
:103040000E946511039709F042C080E592E00E945A
:10305000B10980E692E00E94B109C0E0D0E087ECBF
:1030600094E00E94EE05892B09F448C083E892E0C1
:103070000E94B1098091C8039091C903DC01ED91D0
:10308000FC910484F585E02D44E150E063ED72E0AD
:10309000099583ED92E00E94B10987EC94E00E94CB
:1030A000D805839741F48AE992E00E94B10987EC40
:1030B00094E00E94080687EC94E00E94E3058823D0
:1030C00089F0682F87EE92E00E94A001F4CF85E797
:1030D00092E00E94B10968EE73E080E090E00E9407
:1030E0005603A8CF88EA92E00E94B10987EC94E0E9
:1030F0000E94080688EB92E00E94B10968EE73E036
:1031000080E090E00E945603209709F4A8CF0E9427
:103110001102882309F4A3CF0E940000A0CFA1E2EE
:103120001A2EAA1BBB1BFD010DC0AA1FBB1FEE1F41
:10313000FF1FA217B307E407F50720F0A21BB30B8C
:10314000E40BF50B661F771F881F991F1A9469F708
:1031500060957095809590959B01AC01BD01CF0164
:103160000895EE0FFF1F0590F491E02D0994F89457
:10317000FFCF000000004702A701D401940205021E
:10318000E301F701000000003304700C0F0CBA0BD0
:10319000520C5A045604280AA6159A14FEFF000081
:1031A000BA153A1500000000C3037B08F1030000C4
:1031B0000000C9049015A20AFEFF0000A315A70194
:1031C0007F04300600000000540BAD09730A4F0E57
:1031D0001F079C0DD206E107340AD015FEFF000040
:1031E000F115AA050000000075047F047F04220A7F
:1031F000420D68046B04BD153D15FEFF0000CD15A2
:103200008D15000000007F047F043A0A6B04D3048C
:10321000D204CD0F6B056A055F056A0E5E053505A4
:103220000405D604E604750E3614F415FDFF0000FF
:1032300009169714000000002206A7017F04080663
:10324000EE05E305D805000000006511020B8007BC
:103250008C052E0A0C16FEFF00001B16AA050000A6
:1032600000004C0952454144222C22000D0A0D0A4F
:103270002B000D0A0D0A4F4B000D0A002000220DF5
:10328000003E002B434C43433A20312C312C342C4C
:10329000302C302C22003B0D002B434D474C3A0084
:1032A0002B2B2B0022544350222C2200534D532011
:1032B0004D657373616765732052656365697665F3
:1032C000720047534D20696E697469616C697A6553
:1032D000640057616974696E6720666F72206D655E
:1032E000737361676573004E6F7420636F6E6E65F4
:1032F00063746564004D657373616765207265630F
:1033000065697665642066726F6D3A00446973631F
:10331000617264656420534D53000A454E44204F4A
:1033200046204D455353414745004D455353414772
:0A333000452044454C455445440037
:107E0000112484B714BE81FFF0D085E080938100F7
:107E100082E08093C00088E18093C10086E0809377
:107E2000C20080E18093C4008EE0C9D0259A86E02C
:107E300020E33CEF91E0309385002093840096BBD3
:107E4000B09BFECF1D9AA8958150A9F7CC24DD24C4
:107E500088248394B5E0AB2EA1E19A2EF3E0BF2EE7
:107E6000A2D0813461F49FD0082FAFD0023811F036
:107E7000013811F484E001C083E08DD089C08234E0
:107E800011F484E103C0853419F485E0A6D080C0E4
:107E9000853579F488D0E82EFF2485D0082F10E0AE
:107EA000102F00270E291F29000F111F8ED06801E7
:107EB0006FC0863521F484E090D080E0DECF843638
:107EC00009F040C070D06FD0082F6DD080E0C81688
:107ED00080E7D80618F4F601B7BEE895C0E0D1E017
:107EE00062D089930C17E1F7F0E0CF16F0E7DF06D8
:107EF00018F0F601B7BEE89568D007B600FCFDCFD4
:107F0000A601A0E0B1E02C9130E011968C91119780
:107F100090E0982F8827822B932B1296FA010C0160
:107F200087BEE89511244E5F5F4FF1E0A038BF0790
:107F300051F7F601A7BEE89507B600FCFDCF97BE46
:107F4000E89526C08437B1F42ED02DD0F82E2BD052
:107F50003CD0F601EF2C8F010F5F1F4F84911BD097
:107F6000EA94F801C1F70894C11CD11CFA94CF0C13
:107F7000D11C0EC0853739F428D08EE10CD085E9AC
:107F80000AD08FE07ACF813511F488E018D01DD067
:107F900080E101D065CF982F8091C00085FFFCCF94
:107FA0009093C60008958091C00087FFFCCF809118
:107FB000C00084FD01C0A8958091C6000895E0E648
:107FC000F0E098E1908380830895EDDF803219F02E
:107FD00088E0F5DFFFCF84E1DECF1F93182FE3DFCA
:107FE0001150E9F7F2DF1F91089580E0E8DFEE27F6
:047FF000FF270994CA
:027FFE00040479
:00000001FF
