:020000040000FA
:100000000C946B000C9488000C9488000C9488006D
:100010000C9488000C9488000C9488000C94880040
:100020000C9488000C9488000C9488000C94880030
:100030000C9488000C94D4000C9488000C948800D4
:100040000C948A000C9488000C9488000C9488000E
:100050000C9488000C9488000C9488000C94880000
:100060000C9488000C94880005A84CCDB2D44EB9ED
:100070003836A9020C50B9918688083CA6AAAA2A4B
:10008000BE000000803F00000008000201000003E5
:100090000407000000000000000000000000250030
:1000A00028002B0000000000240027002A00040480
:1000B0000404040404040202020202020303030310
:1000C00003030102040810204080010204081020EC
:1000D00001020408102011241FBECFEFD8E0DEBFBC
:1000E000CDBF11E0A0E0B1E0E6EAF9E002C0059082
:1000F0000D92A230B107D9F724E0A2E0B1E001C02F
:100100001D92A433B207E1F70E947B010C94D10445
:100110000C9400001F920F920FB60F9211242F9390
:100120003F938F939F93AF93BF93809130049091AF
:100130003104A0913204B091330430912F0423E0B4
:10014000230F2D3758F50196A11DB11D20932F04C3
:100150008093300490933104A0933204B09333041D
:1001600080912B0490912C04A0912D04B0912E0429
:100170000196A11DB11D80932B0490932C04A09394
:100180002D04B0932E04BF91AF919F918F913F9119
:100190002F910F900FBE0F901F90189526E8230FF8
:1001A0000296A11DB11DD2CF1F920F920FB60F92D2
:1001B00011242F933F938F939F93AF93BF93EF930C
:1001C000FF93809105019091060181309105A1F581
:1001D0008091000190EA892780930001809380003C
:1001E0001092060110920501E0910301F0910401C3
:1001F000EE0FFF1FE95FFE4F8081918190938B008E
:1002000080938A00909389008093880080910301F5
:100210009091040101969093040180930301FF9152
:10022000EF91BF91AF919F918F913F912F910F903F
:100230000FBE0F901F90189520910301309104017B
:10024000283C31058CF210920401109203010196B2
:1002500090930601809305012091020181E082279D
:1002600080930201E3E9F0E09491EFECF0E08491F7
:10027000EBEBF0E0E491EE2309F4B6CF992339F0EB
:10028000933001F1A8F4913019F1923029F1F0E0A6
:10029000EE0FFF1FE656FF4FA591B4919FB7F8945C
:1002A000EC91213031F580958E238C939FBF9CCFAC
:1002B0009730A9F09830C9F0943049F790918000B8
:1002C0009F7D03C0909180009F7790938000DFCF47
:1002D00094B59F7794BDDBCF94B59F7DFBCF909174
:1002E000B0009F779093B000D2CF9091B0009F7DE7
:1002F000F9CF8E2BDACF789484B5826084BD84B533
:10030000816084BD85B5826085BD85B5816085BD10
:1003100080916E00816080936E00109281008091C8
:100320008100826080938100809181008160809350
:100330008100809180008160809380008091B10075
:1003400084608093B1008091B00081608093B000A0
:1003500080917A00846080937A0080917A00826034
:1003600080937A0080917A00816080937A008091F6
:100370007A00806880937A001092C10080E293E056
:10038000A0E0B0E08093270490932804A093290470
:10039000B0932A0407E011E0D0E0C0E0BE010D2ECA
:1003A000000C880B990B0E9448032BED3FE049E4B9
:1003B00050E40E94D40320E030E048EC53E40E9473
:1003C0009E020E94410420E030E048E454E40E9490
:1003D000D40320E030E040E05FE30E9432020E945C
:1003E0001003F801619371938F012296C039F1E0F7
:1003F000DF07A1F6809100018093800089E180935E
:10040000810081E080936F008091270490912804FF
:100410009093870080938600789486E084B9EFEC0F
:10042000F0E02491EBEBF0E08491882399F090E0E8
:10043000880F991FFC01EC55FF4FA591B491FC0169
:10044000E656FF4F859194918FB7F894EC91E22B8B
:10045000EC938FBFC0E0D0E02097F1F30E94000042
:10046000FBCF5058BB27AA270E9449020C949A033D
:100470000E948C0338F00E94930320F039F49F3FD0
:1004800019F426F40C9489030EF4E095E7FB0C9420
:100490008303E92F0E94AB0358F3BA17620773076F
:1004A0008407950720F079F4A6F50C94CD030EF49B
:1004B000E0950B2EBA2FA02D0B01B90190010C0174
:1004C000CA01A0011124FF27591B99F0593F50F48C
:1004D000503E68F11A16F040A22F232F342F4427E4
:1004E000585FF3CF469537952795A795F0405395DC
:1004F000C9F77EF41F16BA0B620B730B840BBAF0AC
:100500009150A1F0FF0FBB1F661F771F881FC2F716
:100510000EC0BA0F621F731F841F48F4879577952A
:100520006795B795F7959E3F08F0B0CF9395880FE4
:1005300008F09927EE0F9795879508950E94B202CB
:100540000C949A030E94930358F00E948C0340F08D
:1005500029F45F3F29F00C94830351110C94CE03CE
:100560000C9489030E94AB0368F39923B1F35523DC
:1005700091F3951B550BBB27AA27621773078407B6
:1005800038F09F5F5F4F220F331F441FAA1FA9F34C
:1005900035D00E2E3AF0E0E832D091505040E6953A
:1005A000001CCAF72BD0FE2F29D0660F771F881F9B
:1005B000BB1F261737074807AB07B0E809F0BB0B8E
:1005C000802DBF01FF2793585F4F3AF09E3F5105A2
:1005D00078F00C9483030C94CE035F3FE4F3983ED1
:1005E000D4F3869577956795B795F7959F5FC9F78B
:1005F000880F911D9695879597F90895E1E0660F0C
:10060000771F881FBB1F621773078407BA0720F084
:10061000621B730B840BBA0BEE1F88F7E0950895ED
:100620000E9417036894B1110C94CE0308950E94A0
:10063000B30388F09F5798F0B92F9927B751B0F0BE
:10064000E1F0660F771F881F991F1AF0BA95C9F756
:1006500014C0B13091F00E94CD03B1E008950C9424
:10066000CD03672F782F8827B85F39F0B93FCCF3D7
:10067000869577956795B395D9F73EF490958095D3
:10068000709561957F4F8F4F9F4F0895E89409C0F3
:1006900097FB3EF490958095709561957F4F8F4FB5
:1006A0009F4F9923A9F0F92F96E9BB279395F695CB
:1006B000879577956795B795F111F8CFFAF4BB0F49
:1006C00011F460FF1BC06F5F7F4F8F4F9F4F16C0AD
:1006D000882311F096E911C0772321F09EE8872F37
:1006E000762F05C0662371F096E8862F70E060E0F3
:1006F0002AF09A95660F771F881FDAF7880F96956C
:10070000879597F9089597F99F6780E870E060E012
:1007100008959FEF80EC089500240A94161617069A
:1007200018060906089500240A94121613061406E2
:1007300005060895092E0394000C11F4882352F045
:10074000BB0F40F4BF2B11F460FF04C06F5F7F4FFD
:100750008F4F9F4F089557FD9058440F551F59F0E4
:100760005F3F71F04795880F97FB991F61F09F3F9E
:1007700079F087950895121613061406551FF2CFC7
:100780004695F1DF08C0161617061806991FF1CF17
:1007900086957105610508940895E894BB2766273E
:1007A0007727CB0197F908950E94E7030C949A03E9
:1007B0000E948C0338F00E94930320F0952311F0DF
:1007C0000C9483030C94890311240C94CE030E948F
:1007D000AB0370F3959FC1F3950F50E0551F629FD7
:1007E000F001729FBB27F00DB11D639FAA27F00D8A
:1007F000B11DAA1F649F6627B00DA11D661F829FB1
:100800002227B00DA11D621F739FB00DA11D621F95
:10081000839FA00D611D221F749F3327A00D611DB2
:10082000231F849F600D211D822F762F6A2F112494
:100830009F5750409AF0F1F088234AF0EE0FFF1FC7
:10084000BB1F661F771F881F91505040A9F79E3F1E
:10085000510580F00C9483030C94CE035F3FE4F3C6
:10086000983ED4F3869577956795B795F795E79574
:100870009F5FC1F7FE2B880F911D9695879597F97D
:1008800008959F930E944B040F9007FCEE5F0C9419
:1008900074040C9489030E94B303D8F3E894E0E055
:1008A000BB279F57F0F02AED3FE049EC06C0EE0F62
:1008B000BB0F661F771F881F28F0B23A62077307C5
:1008C000840728F0B25A620B730B840BE3959A9558
:1008D00072F7803830F49A95BB0F661F771F881F18
:1008E000D2F790480C948A04EF93E0FF07C0A2EA85
:1008F0002AED3FE049EC5FEB0E9449020E949A0317
:100900000F90039401FC9058E8E6F0E00C949604F4
:100910009F3F31F0915020F4879577956795B79573
:10092000880F911D9695879597F908959F938F93BA
:100930007F936F93FF93EF939B01AC010E94D403CD
:10094000EF91FF910E94AA042F913F914F915F91E7
:100950000C94D403DF93CF931F930F93FF92EF92E6
:10096000DF927B018C01689406C0DA2EEF010E94B1
:10097000E703FE01E894A5912591359145915591A4
:10098000A6F3EF010E944902FE019701A801DA9443
:1009900069F7DF90EF90FF900F911F91CF91DF915A
:0809A0000895F894FFCF8200D6
:107E0000112484B714BE81FFF0D085E080938100F7
:107E100082E08093C00088E18093C10086E0809377
:107E2000C20080E18093C4008EE0C9D0259A86E02C
:107E300020E33CEF91E0309385002093840096BBD3
:107E4000B09BFECF1D9AA8958150A9F7CC24DD24C4
:107E500088248394B5E0AB2EA1E19A2EF3E0BF2EE7
:107E6000A2D0813461F49FD0082FAFD0023811F036
:107E7000013811F484E001C083E08DD089C08234E0
:107E800011F484E103C0853419F485E0A6D080C0E4
:107E9000853579F488D0E82EFF2485D0082F10E0AE
:107EA000102F00270E291F29000F111F8ED06801E7
:107EB0006FC0863521F484E090D080E0DECF843638
:107EC00009F040C070D06FD0082F6DD080E0C81688
:107ED00080E7D80618F4F601B7BEE895C0E0D1E017
:107EE00062D089930C17E1F7F0E0CF16F0E7DF06D8
:107EF00018F0F601B7BEE89568D007B600FCFDCFD4
:107F0000A601A0E0B1E02C9130E011968C91119780
:107F100090E0982F8827822B932B1296FA010C0160
:107F200087BEE89511244E5F5F4FF1E0A038BF0790
:107F300051F7F601A7BEE89507B600FCFDCF97BE46
:107F4000E89526C08437B1F42ED02DD0F82E2BD052
:107F50003CD0F601EF2C8F010F5F1F4F84911BD097
:107F6000EA94F801C1F70894C11CD11CFA94CF0C13
:107F7000D11C0EC0853739F428D08EE10CD085E9AC
:107F80000AD08FE07ACF813511F488E018D01DD067
:107F900080E101D065CF982F8091C00085FFFCCF94
:107FA0009093C60008958091C00087FFFCCF809118
:107FB000C00084FD01C0A8958091C6000895E0E648
:107FC000F0E098E1908380830895EDDF803219F02E
:107FD00088E0F5DFFFCF84E1DECF1F93182FE3DFCA
:107FE0001150E9F7F2DF1F91089580E0E8DFEE27F6
:047FF000FF270994CA
:027FFE00040479
:00000001FF
