:100000000C945E000C9486000C9486000C94860080
:100010000C9486000C9486000C9486000C94CE04FC
:100020000C9486000C9486000C9486000C94860038
:100030000C9486000C9486000C9486000C94860028
:100040000C94A8050C9486000C9476050C9450052D
:100050000C9486000C9486000C9486000C94860008
:100060000C9486000C9486000000000024002700F9
:100070002A0000000008000201000003040700003D
:10008000000000000000010204081020408001026E
:1000900004081020010204081020000000002500C0
:1000A00028002B00040404040404040402020202D5
:1000B00002020303030303030200F20511241FBE1F
:1000C000CFEFD8E0DEBFCDBF11E0A0E0B1E0EAE3C2
:1000D000F1E102C005900D92AA37B107D9F722E0ED
:1000E000AAE7B1E001C01D92AD34B207E1F710E01C
:1000F000CEE5D0E004C02197FE010E949508CD35E1
:10010000D107C9F70E943C060C949B080C94000090
:10011000AF92BF92CF92DF92EF92FF920F931F9315
:10012000CF93DF936C017B018B01040F151FEB0153
:100130005E01AE18BF08C017D10759F06991D6010A
:10014000ED91FC910190F081E02DC6010995892B7C
:1001500079F7C501DF91CF911F910F91FF90EF903B
:10016000DF90CF90BF90AF900895FC01538D448DE8
:10017000252F30E0842F90E0821B930B541710F052
:10018000CF96089501970895FC01918D828D98175F
:1001900061F0A28DAE0FBF2FB11D5D968C91928D37
:1001A0009F5F9F73928F90E008958FEF9FEF089568
:1001B000FC01918D828D981731F0828DE80FF11D31
:1001C000858D90E008958FEF9FEF0895FC01918D4C
:1001D000228D892F90E0805C9F4F821B91098F7345
:1001E0009927089588E991E00E94E60021E0892B93
:1001F00009F420E0822F089580E090E0892B29F017
:100200000E94F20081110C9400000895FC01A48D5D
:10021000A80FB92FB11DA35ABF4F2C91848D90E028
:1002200001968F739927848FA689B7892C93A0890B
:10023000B1898C91837080648C93938D848D981395
:1002400006C00288F389E02D80818F7D8083089528
:10025000EF92FF920F931F93CF93DF93EC0181E016
:10026000888F9B8D8C8D98131AC0E889F9898081BD
:1002700085FF15C09FB7F894EE89FF896083E889F0
:10028000F98980818370806480839FBF81E090E0E2
:10029000DF91CF911F910F91FF90EF900895F62E6F
:1002A0000B8D10E00F5F1F4F0F731127E02E8C8D09
:1002B0008E110CC00FB607FCFACFE889F98980814E
:1002C00085FFF5CFCE010E940601F1CFEB8DEC0F3B
:1002D000FD2FF11DE35AFF4FF0829FB7F8940B8F6B
:1002E000EA89FB8980818062CFCFCF93DF93EC01D5
:1002F000888D8823B9F0AA89BB89E889F9898C910E
:1003000085FD03C0808186FD0DC00FB607FCF7CFC9
:100310008C9185FFF2CF808185FFEDCFCE010E94C9
:100320000601E9CFDF91CF91089590E0FC01EE58EE
:10033000FF4F2491FC01EA57FF4F3491FC01EC552B
:10034000FF4FE491EE23C9F0222339F0233001F16D
:10035000A8F4213019F1223029F1F0E0EE0FFF1F4F
:10036000E656FF4FA591B4918FB7F894EC916111C7
:1003700026C030953E233C938FBF08952730A9F0C7
:100380002830C9F0243049F7809180008F7D03C068
:10039000809180008F7780938000DFCF84B58F7746
:1003A00084BDDBCF84B58F7DFBCF8091B0008F778C
:1003B0008093B000D2CF8091B0008F7DF9CF3E2BDB
:1003C000DACFCF93DF9390E0FC01EA57FF4F2491FF
:1003D0008C559F4FFC0184918823D1F090E0880FC9
:1003E000991FFC01E859FF4FA591B491FC01E65615
:1003F000FF4FC591D49161110EC09FB7F8948C91B5
:10040000E22FE0958E238C932881E223E8839FBF1F
:10041000DF91CF9108958FB7F894EC91E22BEC9394
:100420008FBFF6CF1F93CF93DF93182FEB0161E0BF
:100430000E94E101209739F460E0812FDF91CF9194
:100440001F910C949501CF3FD10511F461E0F5CFD8
:10045000E12FF0E0EE58FF4FE491E33031F140F44A
:10046000E130B1F0E230E1F0C038D1057CF7E4CF03
:10047000E73029F1E83059F1E430B1F7809180009C
:10048000806280938000D0938B00C0938A0004C068
:1004900084B5806884BDC7BDDF91CF911F91089559
:1004A00084B5806284BDC8BDF7CF8091800080682C
:1004B00080938000D0938900C0938800EDCF809115
:1004C000B00080688093B000C093B300E5CF809106
:1004D000B00080628093B000C093B400DDCF8E5036
:1004E000806480937C0080917A00806480937A009D
:1004F00080917A0086FDFCCF809178009091790000
:1005000008953FB7F89480917B0190917C01A09170
:100510007D01B0917E0126B5A89B05C02F3F19F043
:100520000196A11DB11D3FBFBA2FA92F982F882773
:10053000BC01CD01620F711D811D911D42E0660F4E
:10054000771F881F991F4A95D1F708958F929F9220
:10055000AF92BF92CF92DF92EF92FF920E94810200
:100560004B015C0188EEC82E83E0D82EE12CF12CE3
:100570000E948102681979098A099B09683E7340C3
:1005800081059105A8F321E0C21AD108E108F1081C
:1005900088EE880E83E0981EA11CB11CC114D10402
:1005A000E104F10429F7FF90EF90DF90CF90BF9026
:1005B000AF909F908F900895089590E080E0089507
:1005C000CF93DF93EC0160E08E810E94950161E0A2
:1005D0008E810E94950160E08E810E9495018BE8DA
:1005E00091E00197F1F7DF91CF910895CF92DF92DB
:1005F000EF92FF920F931F93CF93DF936C017C01D7
:1006000087E0E80EF11CD0E0C0E0062F10E0B80152
:100610000C2E02C0759567950A94E2F76170F70198
:1006200081917F010E9495012196C430D10579F70F
:10063000C601DF91CF911F910F91FF90EF90DF9056
:10064000CF900C94E002CF92DF92EF92FF920F9343
:100650001F93CF93DF93EC01F62E642F8C810E94C1
:1006600095018D818F3F19F060E00E9495010F2D5B
:1006700010E08F8584FF25C06E0187E0C80ED11C75
:10068000F12CE12CB8010E2C02C0759567950A94E7
:10069000E2F76170F60181916F010E949501FFEF11
:1006A000EF1AFF0A88E0E816F10461F7CE01DF9146
:1006B000CF911F910F91FF90EF90DF90CF900C940E
:1006C000E002B80184E0759567958A95E1F7CE015F
:1006D0000E94F6026F2DCE01DF91CF911F910F91F5
:1006E000FF90EF90DF90CF900C94F60240E0682FDF
:1006F00085E392E00C942303CF93DF93823029F4B7
:100700009091440298609093440280934802109222
:10071000490280E480934A0280E180934B0280E5A5
:1007200080934C0261E0809139020E94E101809146
:100730003A028F3F19F061E00E94E10161E080918F
:100740003B020E94E101C5E3D2E09E012553324005
:100750008091440284FD0BC084E090E0219628172C
:10076000390744F461E08E810E94E101EECF88E018
:1007700090E0F4CF8BE39DE00197F1F760E080918A
:1007800039020E94950160E080913B020E94950130
:1007900080913A028F3F19F060E00E9495018091AC
:1007A000440284FD39C063E085E392E00E94F602D2
:1007B000CBE4D6E4CE010197F1F763E085E392E064
:1007C0000E94F6022197F1F763E085E392E00E9430
:1007D000F60283E592E00197F1F762E085E392E0AB
:1007E0000E94F6028091440280620E94760384E0B7
:1007F000809345028CE00E94760381E00E9476039C
:100800008BE39FE10197F1F782E08093460286E057
:10081000DF91CF910C94760380620E9476038BE483
:1008200096E40197F1F78091440280620E9476037A
:1008300083E592E00197F1F78091440280620E9483
:100840007603D0CF41E00E94230381E090E0089539
:10085000FB0101900020E9F73197AF01461B570BD0
:10086000DC01ED91FC910280F381E02D09948F92DF
:100870009F92AF92BF92EF92FF920F931F93CF93ED
:10088000DF93CDB7DEB7A1970FB6F894DEBF0FBEEA
:10089000CDBF7C01FA01CB0119A2223008F42AE075
:1008A0008E010F5D1F4F822E912CB12CA12CBF0108
:1008B000A50194010E945D08F901CA016A300CF596
:1008C000605DD8016E938D01232B242B252B79F7A6
:1008D00090E080E0109721F0BD01C7010E9428043C
:1008E000A1960FB6F894DEBF0FBECDBFDF91CF91BA
:1008F0001F910F91FF90EF90BF90AF909F908F90BE
:100900000895695CDECFCF92DF92EF92FF92CF9392
:10091000DF936C01990FEE08FF08F7FE23C06DE22C
:1009200088E991E00E942801EC0144275527BA018B
:100930004C195D096E097F092AE088E991E00E945F
:100940003704C80FD91F6FE171E088E991E00E9478
:1009500028048C0F9D1FDF91CF91FF90EF90DF90C7
:10096000CF9008952AE0B701A60188E991E00E949E
:100970003704EC01E8CFCF93DF93BC0188E991E025
:100980000E942804EC016FE171E088E991E00E9487
:1009900028048C0F9D1FDF91CF9108951F920F9215
:1009A0000FB60F9211242F933F934F935F936F9342
:1009B0007F938F939F93AF93BF93EF93FF93809118
:1009C000880190918901A0918A01B0918B01892BB6
:1009D0008A2B8B2BD1F190918301E0918401F091CE
:1009E0008501808189278083809188019091890188
:1009F000A0918A01B0918B01181619061A061B06E0
:100A00009CF48091880190918901A0918A01B09114
:100A10008B010197A109B109809388019093890105
:100A2000A0938A01B0938B01FF91EF91BF91AF9199
:100A30009F918F917F916F915F914F913F912F91F6
:100A40000F900FBE0F901F90189580910001E8EB5A
:100A5000F0E0E4919FEF90930001E13051F030F02D
:100A6000E23069F060E00E949501DECF10926E00E6
:100A7000F9CF90916F009D7F90936F00F3CF90918D
:100A800070009D7F9093700091E09093B0009091E2
:100A9000B100987F94609093B1001092B300E2CFC0
:100AA0001F920F920FB60F9211242F933F934F93E3
:100AB0005F936F937F938F939F93AF93BF93EF93C6
:100AC000FF9388E991E00E940601FF91EF91BF91A9
:100AD000AF919F918F917F916F915F914F913F91D6
:100AE0002F910F900FBE0F901F9018951F920F928D
:100AF0000FB60F9211242F938F939F93EF93FF9331
:100B0000E091A801F091A9018081E091AE01F091FE
:100B1000AF0182FD1BC090818091B1018F5F8F7307
:100B20002091B201821741F0E091B101F0E0E85666
:100B3000FE4F958F8093B101FF91EF919F918F911F
:100B40002F910F900FBE0F901F9018958081F4CFBA
:100B50001F920F920FB60F9211242F933F938F93F2
:100B60009F93AF93BF9380917F0190918001A0915B
:100B70008101B091820130917A0123E0230F2D375A
:100B800058F50196A11DB11D20937A0180937F0134
:100B900090938001A0938101B093820180917B01A9
:100BA00090917C01A0917D01B0917E010196A11DE3
:100BB000B11D80937B0190937C01A0937D01B09344
:100BC0007E01BF91AF919F918F913F912F910F9097
:100BD0000FBE0F901F90189526E8230F0296A11DB7
:100BE000B11DD2CFE8E9F1E01382128288EE93E0E2
:100BF000A0E0B0E084839583A683B78385E091E08D
:100C00009183808385EC90E09587848784EC90E0E5
:100C10009787868780EC90E0918B808B81EC90E0C9
:100C2000938B828B82EC90E0958B848B86EC90E0AA
:100C3000978B868B118E128E138E148EE5E3F2E065
:100C40001382128287E191E0918380838CE0848318
:100C50008FEF85838BE0868385E0878384E08087C0
:100C600083E0818782E08287138614861586168644
:100C7000178681E00C947C03789484B5826084BDEF
:100C800084B5816084BD85B5826085BD85B5816090
:100C900085BD80916E00816080936E00109281000E
:100CA00080918100826080938100809181008160C9
:100CB000809381008091800081608093800080918A
:100CC000B10084608093B1008091B0008160809316
:100CD000B00080917A00846080937A0080917A00DD
:100CE000826080937A0080917A00816080937A009C
:100CF00080917A00806880937A001092C100E09120
:100D0000A801F091A90182E08083E091A401F09113
:100D1000A5011082E091A601F091A7018FEC8083DC
:100D20001092B001E091AC01F091AD0186E08083BA
:100D3000E091AA01F091AB01808180618083E09114
:100D4000AA01F091AB01808188608083E091AA01C3
:100D5000F091AB01808180688083E091AA01F091DD
:100D6000AB0180818F7D808382E00E947C0362E200
:100D700071E085E392E00E94280461E08DE00E942A
:100D8000E10160E08EE00E94E10160E08FE00E94FE
:100D9000E10161E088E00E94E10161E089E00E94F8
:100DA000E1018AE391E00E94BB0451EB252E50E063
:100DB000352E03E910E0CC24CA94DC2C760138EE01
:100DC000432E33E0532E612C712C88248A9443E007
:100DD000942EA12CB12CE0914802E23008F048C0DA
:100DE000E150F0E0EB5CFD4F848980680E9476035F
:100DF0002FB7F89460917F017091800180918101FB
:100E0000909182012FBFA30192010E945D08BA0157
:100E1000A9012AE085E392E00E9437048091000155
:100E20008D3041F5E8EBF0E0C491C7FDC2C061E050
:100E30008DE00E94E101CC2309F48BC0C23009F09F
:100E40009CC08091B100887F82608093B10089E569
:100E50008093B300C0928801D0928901E0928A0108
:100E6000F0928B0180917000826080937000A1C02D
:100E7000E1E0B7CF8F3F09F09CC08DE08093000187
:100E8000E8EBF0E0C491CF3F09F493C0C13019F111
:100E900050F0C23009F43CC0C7FD8BC061E08DE06A
:100EA0000E94E101CBCF14BC15BC84B5826084BD27
:100EB00085B5816085BDF1018491E82FF0E0EE0FEA
:100EC000FF1FE656FF4F85919491F801849180931E
:100ED0008701C0E0ACCF1092800010928100809119
:100EE000810088608093810080918100816080937F
:100EF0008100F1018491E82FF0E0EE0FFF1FE6562C
:100F0000FF4F85919491F8018491809386018FCF52
:100F10001092B0001092B1008091B0008260809376
:100F2000B0008091B10081608093B100F1018491A3
:100F3000E82FF0E0EE0FFF1FE656FF4F85919491EA
:100F40009093850180938401F801849180938301BB
:100F50006ECF85B5887F826085BD89E587BDC092EB
:100F60009001D0929101E0929201F09293018091D0
:100F70006E00826080936E001CC0C13009F076C0A4
:100F800080918100887F8160809381008FEC92E066
:100F90009093890080938800C0928C01D0928D013B
:100FA000E0928E01F0928F0180916F0082608093B9
:100FB0006F008EE00E946F02EC010E94A6028DE39A
:100FC00091E00E94BB04CE010E9483042FEF30E029
:100FD000DE010E948E08A50194010E943E08309314
:100FE000950120939401B90189E00E94120289E4DD
:100FF00091E00E94BB0480919401909195010E9420
:1010000083048FE00E946F02EC010E94A6028CE52F
:1010100091E00E94BB04CE010E9483042FEF30E0D8
:10102000DE010E948E08A50194010E943E083093C3
:10103000970120939601B90188E00E94120287E689
:1010400091E00E94BB0480919601909197010E94CB
:101050008304E0E0F0E0EF2B09F4BDCE0E94F20043
:10106000882309F4B8CE0E940000A9CEC23021F036
:10107000C1119FCF8FEC72CF8FECEACE052E97FB7C
:101080001EF400940E94550857FD07D00E945D0889
:1010900007FC03D04EF40C945508509540953095BC
:1010A00021953F4F4F4F5F4F0895909580957095D4
:1010B00061957F4F8F4F9F4F0895A1E21A2EAA1B73
:1010C000BB1BFD010DC0AA1FBB1FEE1FFF1FA217F8
:1010D000B307E407F50720F0A21BB30BE40BF50BF5
:1010E000661F771F881F991F1A9469F7609570957E
:1010F000809590959B01AC01BD01CF010895A29F01
:10110000B001B39FC001A39F700D811D1124911DDB
:10111000B29F700D811D1124911D08950E947F08BA
:10112000B7FF0895821B930B0895EE0FFF1F0590E4
:0A113000F491E02D0994F894FFCF2C
:10113A00FF0000000028018800B5007501E600C420
:10114A0000D8000000000022048800DD02DC020D45
:10115A000A00506F77657220666163746F7220634C
:10116A006F7272656374696F6E00686900566F6C9E
:10117A007461676520697320004F757470757420F7
:10118A00766F6C746167652069732000637572728B
:10119A00656E74206973006F757470757420637559
:0A11AA007272656E742069732000F4
:00000001FF
