:020000040000FA
:100000000C9452000C946F000C946F000C946F00D1
:100010000C946F000C946F000C946F000C946F00A4
:100020000C946F000C946F000C946F000C946F0094
:100030000C946F000C9433010C946F000C946F00BF
:100040000C94E9000C946F000C946F000C946F00FA
:100050000C946F000C946F000C946F000C946F0064
:100060000C946F000C946F00000000002500280025
:100070002B0000000000240027002A0004040404D0
:100080000404040402020202020203030303030342
:10009000010204081020408001020408102001021F
:1000A0000408102011241FBECFEFD8E0DEBFCDBF63
:1000B00011E0A0E0B1E0EAEEF6E002C005900D929A
:1000C000A230B107D9F721E0A2E0B1E001C01D9252
:1000D000A031B207E1F70E945A010C9473030C940B
:1000E000000090E0FC01E057FF4F249184589F4F9F
:1000F000FC018491882399F090E0880F991FFC01FE
:10010000EE58FF4FA591B491FC01E859FF4F85913E
:1001100094918FB7F894EC91E22BEC938FBF0895F4
:100120000895CF92DF92EF92FF9280E480937C005B
:1001300080917A00806480937A0080917A0086FDB5
:10014000FCCF6091780070917900072E000C880B2D
:10015000990B0E9442022EE030EA46E65CE30E94E0
:10016000A6026B017C0126E636E646E651E40E94D3
:100170003B0287FF15C023E333E343E251E4C701A9
:10018000B6010E94A10218165CF48CE291E09093F3
:10019000060180930501FF90EF90DF90CF900895C6
:1001A00023E333E343E251E4C701B6010E943B027B
:1001B00087FD0AC026E636E646E651E4C701B601E9
:1001C0000E94A10218163CF7109206011092050138
:1001D000E2CF1F920F920FB60F9211242F933F93ED
:1001E0008F939F93AF93BF9380910C0190910D01DA
:1001F000A0910E01B0910F0130910B0123E0230F6C
:100200002D3758F50196A11DB11D20930B01809348
:100210000C0190930D01A0930E01B0930F018091FA
:10022000070190910801A0910901B0910A0101967E
:10023000A11DB11D8093070190930801A0930901AE
:10024000B0930A01BF91AF919F918F913F912F91F0
:100250000F900FBE0F901F90189526E8230F02965F
:10026000A11DB11DD2CF1F920F920FB60F92112474
:100270002F933F934F935F936F937F938F939F93AE
:10028000AF93BF93EF93FF93E0910001F0910101D1
:100290000995FF91EF91BF91AF919F918F917F91C0
:1002A0006F915F914F913F912F910F900FBE0F90E3
:1002B0001F901895789484B5826084BD84B5816060
:1002C00084BD85B5826085BD85B5816085BD809121
:1002D0006E00816080936E00109281008091810099
:1002E0008260809381008091810081608093810091
:1002F000809180008160809380008091B100846053
:100300008093B1008091B00081608093B0008091B3
:100310007A00846080937A0080917A008260809372
:100320007A0080917A00816080937A0080917A00CF
:10033000806880937A001092C10089E00E94710069
:100340008AE00E94710080E1809381001092800019
:1003500082E08093040180E29EE490930301809305
:100360000201909387008093860082E18093810050
:1003700081E990E0909301018093000181E08093F6
:100380006F00809180008F70806B8093800042E0CE
:10039000D42EC0E2DEE452E1C52E0FEF13E060E0A0
:1003A000E62E60E0F62EA0900501B0900601D092F6
:1003B0000401D0930301C0930201D0938700C0933E
:1003C0008600C092810089E00E94710080918000C7
:1003D000806880938000A0910201B0910301950193
:1003E0000E9464032AE096958795779567952A95EC
:1003F000D1F7709389006093880080910401806137
:100400008093810080910501909106015801A81AFE
:10041000B90AD0920401D0930301C0930201D09392
:100420008700C0938600C09281008AE00E9471001C
:1004300080918000806280938000A0910201B09141
:10044000030195010E9464033AE09695879577959C
:1004500067953A95D1F770938B0060938A008091ED
:100460000401806180938100E114F10409F49BCFC1
:100470000E94000098CF0E947D0208F481E0089558
:10048000E89409C097FB3EF490958095709561952E
:100490007F4F8F4F9F4F9923A9F0F92F96E9BB27E4
:1004A0009395F695879577956795B795F111F8CF60
:1004B000FAF4BB0F11F460FF1BC06F5F7F4F8F4FCB
:1004C0009F4F16C0882311F096E911C0772321F0C1
:1004D0009EE8872F762F05C0662371F096E8862F59
:1004E00070E060E02AF09A95660F771F881FDAF7B0
:1004F000880F9695879597F90895990F0008550FDD
:10050000AA0BE0E8FEEF16161706E807F907C0F099
:1005100012161306E407F50798F0621B730B840BA1
:10052000950B39F40A2661F0232B242B252B21F47B
:1005300008950A2609F4A140A6958FEF811D811D1B
:1005400008950E947D0208F48FEF08950E94B90279
:100550000C942A030E941C0338F00E94230320F00D
:10056000952311F00C9413030C94190311240C948B
:100570005E030E943B0370F3959FC1F3950F50E01B
:10058000551F629FF001729FBB27F00DB11D639F45
:10059000AA27F00DB11DAA1F649F6627B00DA11DEB
:1005A000661F829F2227B00DA11D621F739FB00D91
:1005B000A11D621F839FA00D611D221F749F332701
:1005C000A00D611D231F849F600D211D822F762F9A
:1005D0006A2F11249F5750409AF0F1F088234AF077
:1005E000EE0FFF1FBB1F661F771F881F91505040E3
:1005F000A9F79E3F510580F00C9413030C945E0301
:100600005F3FE4F3983ED4F3869577956795B79569
:10061000F795E7959F5FC1F7FE2B880F911D969583
:10062000879597F9089597F99F6780E870E060E0F3
:1006300008959FEF80EC089500240A94161617067B
:1006400018060906089500240A94121613061406C3
:1006500005060895092E0394000C11F4882352F026
:10066000BB0F40F4BF2B11F460FF04C06F5F7F4FDE
:100670008F4F9F4F089557FD9058440F551F59F0C5
:100680005F3F71F04795880F97FB991F61F09F3F7F
:1006900079F087950895121613061406551FF2CFA8
:1006A0004695F1DF08C0161617061806991FF1CFF8
:1006B00086957105610508940895E894BB2766271F
:1006C0007727CB0197F90895A29FB001B39FC0018E
:1006D000A39F700D811D1124911DB29F700D811D6E
:0C06E0001124911D0895F894FFCF9000A4
:107E0000112484B714BE81FFF0D085E080938100F7
:107E100082E08093C00088E18093C10086E0809377
:107E2000C20080E18093C4008EE0C9D0259A86E02C
:107E300020E33CEF91E0309385002093840096BBD3
:107E4000B09BFECF1D9AA8958150A9F7CC24DD24C4
:107E500088248394B5E0AB2EA1E19A2EF3E0BF2EE7
:107E6000A2D0813461F49FD0082FAFD0023811F036
:107E7000013811F484E001C083E08DD089C08234E0
:107E800011F484E103C0853419F485E0A6D080C0E4
:107E9000853579F488D0E82EFF2485D0082F10E0AE
:107EA000102F00270E291F29000F111F8ED06801E7
:107EB0006FC0863521F484E090D080E0DECF843638
:107EC00009F040C070D06FD0082F6DD080E0C81688
:107ED00080E7D80618F4F601B7BEE895C0E0D1E017
:107EE00062D089930C17E1F7F0E0CF16F0E7DF06D8
:107EF00018F0F601B7BEE89568D007B600FCFDCFD4
:107F0000A601A0E0B1E02C9130E011968C91119780
:107F100090E0982F8827822B932B1296FA010C0160
:107F200087BEE89511244E5F5F4FF1E0A038BF0790
:107F300051F7F601A7BEE89507B600FCFDCF97BE46
:107F4000E89526C08437B1F42ED02DD0F82E2BD052
:107F50003CD0F601EF2C8F010F5F1F4F84911BD097
:107F6000EA94F801C1F70894C11CD11CFA94CF0C13
:107F7000D11C0EC0853739F428D08EE10CD085E9AC
:107F80000AD08FE07ACF813511F488E018D01DD067
:107F900080E101D065CF982F8091C00085FFFCCF94
:107FA0009093C60008958091C00087FFFCCF809118
:107FB000C00084FD01C0A8958091C6000895E0E648
:107FC000F0E098E1908380830895EDDF803219F02E
:107FD00088E0F5DFFFCF84E1DECF1F93182FE3DFCA
:107FE0001150E9F7F2DF1F91089580E0E8DFEE27F6
:047FF000FF270994CA
:027FFE00040479
:00000001FF
